:101BC0000EC01DC01CC01BC01AC019C018C017C051
:101BD00016C015C014C013C012C011C010C011240B
:101BE0001FBECFE5D2E0DEBFCDBF20E0A0E6B0E073
:101BF00001C01D92A93AB207E1F739D1C8C1E0CFBF
:101C0000E199FECF1CBA811522E0920730F49FBB08
:101C10008EBB6DBBE29AE19A08958FEF91E0F7CF0A
:101C2000CF93DF9300D000D0CDB7DEB71C821B82EC
:101C30001C821B8286B3887096B398709817E1F364
:101C400026B3287012BE90E080E036B338703217A9
:101C5000E1F342B712BE26B328708830910538F000
:101C60006B817C81460F572F511D5C834B830196FE
:101C70008031910551F78B819C8163E070E06DD1DB
:101C800035E0969587953A95E1F79A83898332B73F
:101C900089819A8138171906D0F386B38870281382
:101CA0000FC086B388708217E1F326B3287012BE86
:101CB00032B789819A8138171906D0F312BEEDCF59
:101CC00086B3887048E352E030E028E096B398701D
:101CD0009817E1F312BE66B3687072B789819A8172
:101CE00078171906D0F386B38870E32FF0E0EE5929
:101CF000FF4F9081990F681310C09083215011F409
:101D00003F5F28E04150510909F781E00F900F90A3
:101D10000F900F90DF91CF9108959160EECF1F93B8
:101D2000CF93DF93F894EB0123E0FB01209357005E
:101D3000E89507B600FCFDCFDA0130E020E011E0C5
:101D4000EC9111964C91119750E0542F44274E0F6F
:101D5000511D611571058105910559F42115310554
:101D600041F44F5F5F4B50936100409360004FED33
:101D70005DECFE01E20FF31F0A0110935700E89596
:101D8000112407B600FCFDCF2E5F3F4F1296203482
:101D90003105B1F625E0FB0120935700E89507B621
:101DA00000FCFDCFDF91CF911F91089517BAF894F1
:101DB00013BE089542E050E06EEB7BE180E690E0D8
:101DC000DDD08091600090916100892B31F0EEDFD1
:101DD000E0916000F091610009940895E7DF80E8E8
:101DE0009BE1A0E6B0E042E050E071E08E3B2BE1E9
:101DF000920709F038C04115510509F434C02D91FE
:101E00003C9111974250510912966FB7F894FC011A
:101E1000090170935700E89511246FBF0296803C2A
:101E2000FBE19F0719F7E199FECF8FB7F89493E094
:101E3000E0E8FBE190935700E89507B600FCFDCF82
:101E400095E0E0E8FBE190935700E89507B600FCC9
:101E5000FDCF91E190935700E8958FBFE09160002E
:101E6000F09161000994FC0125913491CECFB99A8B
:101E7000BB98B898C09A82E083BF86B380E090E0B8
:101E8000DC01B0990BC0C19A0196A11DB11D813C26
:101E900026EC92072DE2A207B10599F7C198803C84
:101EA000964CAD42B10508F485DFBADE81110FC052
:101EB00080E197E222E032B73536E8F312BE0197AF
:101EC000D1F788B3822788BB88EE93E0F4CFC09126
:101ED0006200C33019F1C43019F1C230E1F46091ED
:101EE0006400862F90E0982F882760916300680F28
:101EF000792F711D36E0660F771F3A95E1F7603C48
:101F0000FBE17F0740F490E080E049E650E007DF26
:101F100088B3C827C8BB10926200C7CF5FDFFBCF72
:101F2000E0906500C0916300C295CC0FCC0FC07CDF
:101F300002E610E0F12CD0E0C256D040EF1451F090
:101F4000F8016781CE01800F911F5ADEF3940F5F75
:101F50001F4FF4CFC1982EDFDECF0024552704C0D9
:101F6000080E591F880F991F009729F076956795DD
:101F7000B8F37105B9F7802D952F0895FB01DC01A9
:101F800002C005900D9241505040D8F70895F89442
:021F9000FFCF81
:0400000300001BC01E
:00000001FF
