:100000000C943E000C945B000C945B000C945B0021
:100010000C945B000C945B000C94BC010C945B0092
:100020000C9422010C945B000C945B000C945B001C
:100030000C945B000C945B000C945B000C945B00D4
:100040000C945B000C945B000C945B000C945B00C4
:100050000C945B000C945B000C945B000C945B00B4
:100060000C945B000C945B000C945B000C9494006B
:100070000C945B000C945B000C945B0011241FBE7D
:10008000CFEFCDBFDFE3DEBF18E3A0E0B8E3EEECD7
:10009000F6E602C005900D92A430B107D9F728E327
:1000A000A4E0B8E301C01D92A437B207E1F70E94B3
:1000B000D6010C94D3030C94000090E080E02FEF65
:1000C000FC01EE0FFF1FEE0FFF1FEC5AF74C1082E2
:1000D00011822283138201968830910589F720933B
:1000E0005338109251381092523881E080930102B7
:1000F00080911204877F8093120482E08093010430
:1001000080E098E0809308089093090880E8809345
:10011000050880EC8093060883E08093070810921E
:10012000503810924F3808951F920F920FB60F92C9
:1001300011242F933F934F935F936F937F938F93EC
:100140009F93AF93BF93CF93EF93FF938091010859
:10015000C091000882FF19C088E0809305040E94C6
:100160005D00C0930208FF91EF91CF91BF91AF91D5
:100170009F918F917F916F915F914F913F912F91BF
:100180000F900FBE0F901F90189580914F382091BF
:10019000503890E001962817190679F0E0914F3811
:1001A00081E08E0F80934F38F0E0E55DF74CC0831F
:1001B00080914F388F7180934F3880915138909152
:1001C0005238019771F6C7FF10C08C2F807F803F97
:1001D00061F0803929F480934E3810924D38C1CFA8
:1001E0008038C9F310924E38F8CFE0914D3881E055
:1001F0008E0FF0E0E55BF74CC08390914E3890395C
:10020000B1F490910338813041F49F3F11F4C093D1
:100210000338817080934D38A4CF20914B38291337
:10022000F8CFC1110DC09FEF90930338F2CF9038F3
:1002300081F7813071F7909103389C13EACFF3CFA7
:10024000C0E0E7CF1F920F920FB60F9211241F93B9
:100250002F933F934F935F936F937F938F939F93CE
:10026000AF93BF93CF93DF93EF93FF9380912A389F
:100270008093A1066091003870E0AEEAB6EE30E0FF
:1002800020E090E080E0F901EE0FFF1FE20FF31F86
:10029000EF5EF74C408151815695479556954795AD
:1002A0001296CD91DC9113974C175D07A8F512813A
:1002B000CD91DC911197C40FD51F48814058550B43
:1002C000149FE001159FD00D1124CD2F4081518145
:1002D000460F571F408351838C0F911DC7FD9A9580
:1002E0002F5F3F4F14962830310569F62091023870
:1002F00081383FEF9307ECF1803891057CF41816B4
:10030000190674F091958195910930E08223932329
:1003100091958195910905C0C0E0DECF8FE790E00F
:10032000822320912938211103C0805880932A38D4
:1003300081E0820F8093293890910138891302C09F
:100340001092293881E080930B0AFF91EF91DF91A1
:10035000CF91BF91AF919F918F917F916F915F915D
:100360004F913F912F911F910F900FBE0F901F90B3
:10037000189581E89FEFC6CF1F920F920FB60F928C
:1003800011248F939F9380910F389091103801968C
:1003900080930F389093103881E0809343019F91B0
:1003A0008F910F900FBE0F901F901895F89488EDC5
:1003B00090E084BF909361008091A000836080935F
:1003C000A0008091A10081608093A100809116041B
:1003D000887F8093160480911604846080931604AD
:1003E00080911604877F8093160481EC8093A00689
:1003F00088E08093010480E1809302040E945D0004
:1004000042E050E070E060E08DE098E30E948903F4
:1004100080910E38807F803F71F480E280930E38A7
:100420008CE380930D3842E050E070E060E08DE0B6
:1004300098E30E948D031092000A8FE08093050AD2
:100440008FE891E08093260A9093270A81E08093B9
:100450000A0A8093000A109247018091410181119C
:10046000FCCF81E090E080934A0190934B01809112
:10047000420181608093420181EA80934001789437
:1004800010920B3810920C3828E0722ECFEFD0E08B
:100490006624639405E010E036E0E32EF12C44E09E
:1004A000C42ED12C53E0A52EB12C88248394912CFA
:1004B0009091503880914F389817D9F0E09150388A
:1004C00081E08E0F80935038F0E0E55DF74C90812D
:1004D000809150388F7180935038892F887F883F62
:1004E00041F097FF2CC0292F207F203FB9F4609264
:1004F0000A38809108048071E0910B38F0910C3833
:10050000E730F105A8F6E957FD4F0C94CD0326031B
:10051000310343035B0377038603600310920A38B9
:1005200030E02093083830930938907E81E0903C89
:1005300009F480E08093073810920638DACF809172
:100540000A388111D6CF80910638E82FF0E0EC5FB1
:10055000F74C90838F5F90910738892380930638FA
:100560008111C7CF409108385091093880910538E2
:10057000209104384039510539F5882309F44AC0DF
:1005800040910B3850910C384630510541F420937E
:100590000D3810920B3810920C387092060490911E
:1005A0000D38291B283008F0A4CF30E0F901EE0FF8
:1005B000FF1FE20FF31FEF5EF74C10821182880FCE
:1005C00082837092050495CF4038510519F1403B64
:1005D000510509F08ECF40910B3850910C384630C0
:1005E000510541F420930E3810920B3810920C38BC
:1005F0007092060490910E38291B213009F198F071
:10060000223009F076CF82958F7009F481E08093D3
:1006100000386FCF80910D38281B283008F069CF43
:100620007092060466CF82958F709E0102C0220FE1
:10063000331F8A95E2F7C90180648093023859CF4D
:10064000869586958F5F8093013853CF811130CF87
:1006500080920B3890920C3810920F38109210380C
:1006600027CF81113FC080910F38909110380B97A0
:1006700008F41ECF7092050482E090E080930B385E
:1006800090930C3815CF20910F3830911038882373
:1006900049F02135310508F40BCFA0920B38B09208
:1006A0000C3806CF213A3F4008F402CFC0920B38F5
:1006B000D0920C38FDCEE0920B38F0920C38F8CE88
:1006C00080910F3890911038813A9F4008F4F0CE15
:1006D0007092060442E050E070E060E08DE098E344
:1006E0000E94890310920B3810920C38E1CE42E040
:1006F00050E070E060E08DE098E30E948D0370921E
:10070000060400930B3810930C38D2CE8111EACF37
:10071000CFCE60507C4E0C94C403DC01A40FB51FF7
:100720004150504048F0CB01840F951F2E910E94FC
:100730009E0341505040D0F70895262F0E94C003D9
:100740000080021619F00E94A903019701970895ED
:10075000262FAF93BF93E0E0F0E1328131FDFDCF72
:10076000DC01A050BC4E2C932DE924BF23E0208354
:100770000196BF91AF91089503D080819927089584
:10078000FC01E050FC4E0895FB01DC0102C0019029
:100790000D9241505040D8F70895EE0FFF1F05907D
:0A07A000F491E02D0994F894FFCFC6
:1007AA007F7C867A837E7F7E817C867F7D827B8347
:1007BA00799275827B867F8774897B8A836C8F792D
:1007CA00857D837A85877289787F9074818B718F12
:1007DA007A7E827D7B85847F7483916C8B837A8811
:1007EA007E7B738D8E6C8A72936F8583817879890B
:1007FA00887C7F8281767F818983768F72847B8EE3
:10080A0079748C7A7D84867C81806E918F6C8783E3
:10081A00798076927D7A817F7F80897F7C847B8CC8
:10082A006F82817F8A797C848B7782808877827FC6
:10083A007E897D7E7C7D7D86827F837C778A837AB2
:10084A007E7E92717E84818279848085778588789C
:10085A0084798085827788866F926C8B8C74887E87
:10086A00817B827D7D8B7D827784817C8181827A86
:10087A0088749075828983757E8B7E79828183855F
:10088A007A7F7C887E85807C81828379818284805C
:10089A007D7A808B7A7F86827688827B7B7F8C7951
:1008AA0080887B7D8879867E81817F81847F7E8432
:1008BA00718C7F80857F7E7F7D82838379877E7E30
:1008CA007F83837E837A827D887C81817E81807F1B
:1008DA008181807D85807F7A897E7E807D86808108
:1008EA007D857B7D8A7D7D85807D82817C827C86FB
:1008FA0082807F7F7D867C83817F857881847E81EB
:10090A008181807E827F807F827F847E7D857F7FDA
:10091A0082817E7F82808282807D8180827D8382C5
:10092A007C8280827E837E827B8380838080817EBC
:10093A00847C8380827F8179877F7F7F827F8182A7
:10094A0080807F827F7F7E857D80837F7F817F829B
:10095A007E827F847B828082807D837D82817F808C
:10096A00817F817E828280807F81807F82807F7F7B
:10097A008280817F7E82807F807F80837E827F7F6C
:10098A00827C867E7F827F817F817F808080807F5C
:10099A0081827E7F817F81827D817F817F81807F4D
:1009AA00817D8081827F817F8080817E827F7F803E
:1009BA007F827E7E83807E827F827E7F8180807F2F
:1009CA008080807F808081807F808080808080801E
:1009DA00808080808080808083817D7C817F7B8114
:1009EA007C8775927C766F94914891775B5F9F7054
:1009FA00468287785F9F9A538F9E5A81A27B6C9F0B
:100A0A005A68A4897E8B9B5C7CA58A6A98745AC6AC
:100A1A00866E6FA96E878D6A7F92797AA5816F8EAD
:100A2A008B7C8E7E7B6A8B85927F737E9874858B96
:100A3A00838085708B8C5B8F8E5F94AA718868988F
:100A4A007F8475739E718953A1A3618E8D72658DA2
:100A5A00938F766E868E5C80AC796AA85F51B9896D
:100A6A005F6AAF7C69938B5BA17C6C897F90757799
:100A7A008C9468797F897A837683907C7D885DA05F
:100A8A008E698D748A6B8C858A777A787475889763
:100A9A007E7D739E6F84985A76A17A7D7B7E809440
:100AAA006370AA6E796C9B7F7A8779997678657F6D
:100ABA00966794A05E7D956C878B6E81897F936F14
:100ACA007F7E86758E8464948283688985787E8A1F
:100ADA007C937376917C619F716C9A8C7B74908302
:100AEA0070738C7C9A7A736F83A07E5B9B7C718D0A
:100AFA008C8075936F77848A80798464918C7287ED
:100B0A00718D81838C62759E856E7AA15D77A172E3
:100B1A00769D816C8D6F88886E7A88848C7A7598B8
:100B2A00747189898781787375986A8A9077877EC4
:100B3A006D908B5690977274927577858B758B8FA3
:100B4A007471977479887D7C8A86618597707F90A5
:100B5A0070806DA38C6981748194787B906D7B9889
:100B6A0088637C9E78788A7D6686987B827F79788E
:100B7A007C8B78818B8E6D729180758A80767F836B
:100B8A008D7773958E628199686EA7727C8E6B8160
:100B9A0088827D857A888975787B8481817D8E7942
:100BAA0070907B888C7B7D81807B77857A81888B2E
:100BBA007770927A79827B789285767D7D83858932
:100BCA007779828D72789B647E9E6F778384857F26
:100BDA007A87848075847E788E71848D7A7E7B8212
:100BEA00876C8C8A737A94857D72877E7592777FFB
:100BFA0090807B6A6E9A8C85768687708583876BF0
:100C0A008284778C847D789775788B84707C8480D5
:100C1A008F7A758D7E8381757673988C7C718A80C4
:100C2A00847B748F71858B86757C7F7B8D857A72C8
:100C3A00848C7D816C8694777B77937B7D88797DA4
:100C4A0081848487737982867598846C8385757F9D
:100C5A008981817A816E8C8F7C7F79847E78956E8A
:100C6A007F926E7D8F7B7087938073758E8872807A
:100C7A008680707F907184917E797B8789777D8564
:100C8A006A90896E7D8988737D897E85866D7E8767
:100C9A008670878882777C8A7089847775977A7458
:100CAA0085769388648E876F8E827370888E7D773F
:100CBA008D86688A8F6D847A7D897D8B7F717F8925
:100CCA00827C7E788B8B62869080738585796C971F
:100CDA0088688981807D82759777738E7C7D7D8710
:100CEA00886E8C85737B84828382798773809772FE
:100CFA00788C797B828A7B79897A8684648A967BE6
:100D0A006B8E876C948162948A7F7E7E7E78857FE3
:100D1A007D887684897D7581936F827D86797E7ED2
:100D2A008E82777F8A77738B8087797597797B88AC
:100D3A006D829A796A937C7A8886618F986C7989B0
:100D4A008382807C888569878D7B7E7F808083789B
:100D5A00887D7C7F7F808E767F8E7F746E8D966F86
:100D6A00817F81876D81917C7D798C806686928E68
:100D7A006F7B7E877D7C8687747D9072759676817F
:100D8A0080788B7C88857C797D80867B7F8A7C7E57
:100D9A007C84898079817E807C77937E7A82887749
:100DAA0073938B697D838D7F758E7F747F8C788733
:100DBA007C7B82828A74798B85797683927B7A7F2F
:100DCA00729D7D6C907083997173937D6F89817C1C
:100DDA008C847C78808B6E888A76827B82808B7406
:100DEA00758E74878A7886767A8781867F857C79FC
:100DFA007C8F7E79887385906983897D79818786DE
:100E0A00857A836E8F76858879838B77708C8482D6
:100E1A0080747A96875D87987C73868776857B80CF
:100E2A00897D738B837D709181807D7E8B747689B9
:100E3A00808B7C7A848382787F88787593728981A3
:100E4A007A88827E857A758983738680807E90838C
:100E5A00717D8E7488797496718E866F8586778D8A
:100E6A007584856C8F857085867B80807A8A777F8A
:100E7A008E7A7988876F838978867F7D7A86867C61
:100E8A0089787C817C88758A7E769476778A8D7754
:100E9A0076828C7D807F7C80887C7687878072834F
:100EAA0093757889837D778B7B83777E8C807A8331
:100EBA00867F7A749C796C8A9071808D7577897E29
:100ECA00857F807D7889858072888581807B817D18
:100EDA008679798F817777957C71937E707B928200
:100EEA0070907B847E79868575798E867E70838BF9
:100EFA007D7A92747A8481807C857F837F80817AEF
:100F0A00867B7F847D8481817282907A7A83897FCD
:100F1A00747A91827386818A6F7D957A78848683C2
:100F2A006B82907E807E80857F73818982768687B8
:100F3A008175818D758381798679858772838482AB
:100F4A008A6A8C8579817A81897D838A70847E7E9A
:100F5A008A8274877B83807D8882738A877483857B
:100F6A007C83728496777B86877974848A6A8F8C6D
:100F7A0071798882837B7D7D898E787984807E826F
:100F8A0076818F7B78888C717694747A9473838255
:100F9A007D837B837F8683777F8C777E857D788B45
:100FAA0085738B8168948971798D7F7F8B78788A34
:100FBA008175877B8180837F84866B8B867B818327
:100FCA007385807E847E8A7E76818C7880827B811E
:100FDA0082857F75858485777F82867D7980877D06
:100FEA007A848B738287788B7578937C6E908383EF
:100FFA007D79837F7F847483897D7C8C7A748783EF
:10100A00827B8773848882797F8B7D7E7C837D84D3
:10101A00807C7E808A7B76868A7E787E8383837CC8
:10102A007D887A8681768F8271857D85827C7A86B3
:10103A008D7F6E808B81816E94846B898A6C878C9C
:10104A007881837B7E926F818B797F847A83837E9A
:10105A007E7A8388857D7E768D7B837D7D8B7F7985
:10106A00828179877E7D8B7D7C818487777D8A7773
:10107A0084827C84787F838979817D8B7B7D857B63
:10108A007E8187738A88767B957A73798A8E7E7455
:10109A0081897C80828175868985707C8583808838
:1010AA007E79867F8678817E8181837F7E877C7840
:1010BA0085857982808179898C7074947F708F8616
:1010CA007B80837A7E7D88867B807A887F8386761A
:1010DA007C8783797E8D7087856C9681728C896E08
:1010EA008B7E7C837C837C858278858387846F7FF3
:1010FA00897F6C9C81738C74789681767D868A74DC
:10110A00897E7A7E857F7E7F8485747F8D7B807FD2
:10111A007F8B7F7487857B837F8083757B947D77C4
:10112A0086827480878A71868D717F847B858C71B3
:10113A0080807F8B7B7D897875907B7D897A778D9E
:10114A007C80826E9B7D718B8372887E7F84808295
:10115A008081797C8F7A7787847B7A8E817777888A
:10116A008A798481708D807B897B7888857488826E
:10117A00768C7A81897A7D887A7286917A7482826B
:10118A00847E89767985917D6592916A858E72765B
:10119A00927F778A7C7689847C7E827B808A7A8237
:1011AA007E7985807F7E86877A79877A847C7E823B
:1011BA00828576857E7E808B7F79817B8D777E8A1C
:1011CA00798978837B837B848D7280857B81817A20
:1011DA008C8275878879768584768B8A757A8389F5
:1011EA00727C92798084777D8D87738282798D7BF8
:1011FA007B848272887D80946D818A787F7F847FE8
:10120A00847C808C7881807888876F848B758283D0
:10121A00768D807B8479848C717D8E7F797E8280C5
:10122A007F80837A80877C84837E7A8285817E7FB1
:10123A007A7F86837E808C7D7B7A8C7E728B8778A0
:10124A0080837C818182807F817E8084768783709F
:10125A00997778926A8B8B747E80897E7C887F7D71
:10126A00867E74898A737E897A82857E827D867C6F
:10127A007C81847F818579858679807C7F82897B60
:10128A007B8A7B7F847D7A8F8378857A7F817E854E
:10129A008379798C8578817F84827A87807A7E8C3B
:1012AA006F7F8F87767C8488787C877A897B7F803A
:1012BA0088728A7E7D8879848C697F977380857E1F
:1012CA007782887B808084837187877B7F7E877E15
:1012DA007885848479828779808475839176788504
:1012EA00827C867B84867884837180927A7F7D7CF7
:1012FA008D7E747A95866B8287817A8984727F8AD9
:10130A007A807F7E8877877C7D8E757C8B7F778AD3
:10131A007E7C89787F7B8B7F7F86738193747889C3
:10132A007E78858E7B787A8D866E7B8F8772808CAD
:10133A007385857E8177857980917E7281897A81AC
:10134A0087738189817F85807D768D7A7793767B95
:10135A00887D7B887C86817680838385757C8E8276
:10136A00728A87767D7E89857A7D818A7B798A7F72
:10137A00808083797D8387817E7B7D897B79848464
:10138A007B8782807A7992827581887A867C778D4A
:10139A00847781857980808487787F867588897A41
:1013AA0078838A758184837A7F8A7C75858E778033
:1013BA0084728E80768D7E807F7E83797B92787B25
:1013CA00847F85837D7C85807B8381847C798A7C0C
:1013DA00868474818F75827E847A838B74808283FB
:1013EA007D7E887F7C837E7C83847D7E808E7585EE
:1013FA00857485857D7C83807F8180807C857E86DF
:10140A008173888484797D837F7F83808378818DCB
:10141A00758388738486797F8B7E75838A7D768CC3
:10142A007F7A837D838A78738C8E6E8382807F82B3
:10143A00817883887A7F7E7A977678808A8278879D
:10144A007D807E83857A7C84847C7F82807A85868F
:10145A007B7F847E837B7C88807E818184787C917B
:10146A00737B907A77898377897D7C7E85847D7387
:10147A00888D748785727C91767D7F7D8D866E825C
:10148A008F7A817C7A887F778686837B7B7D8B7A4D
:10149A007D897B7B828978799375788D73898C763F
:1014AA007B887C7D798D817A84807C80807B88842E
:1014BA007A857D7A8680827B7D8282877C83846E30
:1014CA00898A757A917A7B8480817D7B8689757910
:1014DA008B867184897F7A7E7E82828182837F7EF7
:1014EA007C857E7F8677888279808A777B858082F1
:1014FA007F81847C7C88847A7E7C89817C818081DE
:10150A007E86768483837D7F8081857D7985877BCE
:10151A00798583827C7B8C7F7588827E857C7D7FC2
:10152A008181857C7E8C737C9479748C81778982A5
:10153A007D80847B7B837E847C80897A7F7F83879E
:10154A007087877B817B8482807C847E80847E8294
:10155A007E84817E788292747C8A7B847982867F7B
:10156A008277848B737D8B7A7E7B8C7E7D8481806F
:10157A00807D7B8A867A728C8E747D877A7F868458
:10158A007B887B788F806F86837E867A8180827F54
:10159A00788987767B8B807F847981877B7C877843
:1015AA0088807C7F80887F7C7B8A807589857D7C2A
:1015BA007F7F838C7181897D7E7B83887881817C22
:1015CA0084817C7E8A7C7D83807E857B7F83817F0C
:1015DA007B8A76808B8171808F7D7980877F7A86FE
:1015EA007E7986867D7B7D7F8E7D7B857D7B897AF4
:1015FA00818775838B7184867A8383887185877ADC
:10160A00827F7A838286767C8F7C7B7E887E7B88CB
:10161A007985827682897C7B81857982827F8679C7
:10162A008082867C7B867F7C837E82857884837AAF
:10163A007B828381827F807B8686747F838481819B
:10164A007D7E8180837983828776808681797F8691
:10165A00807F798C83737E8B7E7B7F8F7381867983
:10166A00847988827888806F89857F79868578836E
:10167A00857A7A89817B81848174808B827784815F
:10168A008286777E83847D827A83817B897B817E51
:10169A0083877881817F7D887E768A7C7B84847E3D
:1016AA00778A827F817A83867A798B827B7C838030
:1016BA007F8A7580887E7E85778485798A7E7A821C
:1016CA007F83817A7E8485807780897A83867D7B11
:1016DA0086827B7E837C81867B7F867C7F867E7901
:1016EA008484817884877A7E8281847D7C877F7DE9
:1016FA007F7E84867982827D83807886847D7E87D8
:10170A007D7B86817F817E807D84827B87817687CF
:10171A00847688847B7B86827E7D8583768A8679B9
:10172A007986867A8181827F817C827E7F8F7874B6
:10173A0086887D83817E7D818280857B7B84887B90
:10174A007D7F86807988807A81897C7A847F7F7F91
:10175A008185827D80817D7D8383817F7D84817F78
:10176A00807787887583847A8181827D82837C7E73
:10177A0083857C7D81877C7E857B7F877C7F7E7F5E
:10178A0086817D817C837F7C857D86807A8185794F
:10179A0084827F7C7C89827586857484897B788A39
:1017AA008177828380837B7C877C7E877D7887862E
:1017BA0075848676818481857C7F7E7F847E7E8522
:1017CA007C7B8C797C87817E7D857F837E81817617
:1017DA0084867C827F7A8482837C798E787C9176F7
:1017EA007A8A7F787F8883777F867D80877A7F85EC
:1017FA007B7E897C7E81837C7E8A7B80817A7F8BDB
:10180A00817C7D887C7B8184817E817D847C8084CF
:10181A00827983857F7A83847D7C86847881867DBC
:10182A00807B85847E7F857D7D81807C86877581AE
:10183A0082887C7C818281847C8081847A7E867D98
:10184A007885897B778D847481877F7F7C7A8D7B8D
:10185A00827D897A7A8680837A8282807F827E827A
:10186A007C85867D7A857F7987817B84827E847A6E
:10187A00788A85788480808180827F7F7D837E825A
:10188A00827A85837A837F827D798983807D7E844B
:10189A00837D7B84837A847E85817E807D8481803A
:1018AA00827D7F827C8481817C86827F7E81847A2C
:1018BA00847D827E81857D7E83817C8481827C8217
:1018CA007F7B85827E807C7C8F817A817E8180830A
:1018DA007E7D877F7787847D7B80887982877E80FB
:1018EA007C8480748A867882817A8482807F817FF0
:1018FA0083807D817E827E81857D7A8183808084DA
:10190A007E7F7D88817C7F827D81847E81827880D2
:10191A008882797E82847E7E8183817689837C7ABD
:10192A008186837C7C808480807B81897E7F7A83A8
:10193A00847A85847C7C837C81897C7A85817E7E9D
:10194A007D868579818181817B84817F7B7F867E8B
:10195A007A8782807E7D83857E7C81817E81827C7E
:10196A008082857E758987767F8779808781777D72
:10197A008C7D7C847B86807C81837C80857A838352
:10198A007C7C847A8985797C8186807D80837F7D51
:10199A00837E81827D847F7E817B85827E7F827D3C
:1019AA0081847B837E81847A7C8C7E807F817C802B
:1019BA00847C82827E80867E7E817F7E8380817B1C
:1019CA0086857583877E807A82837E8080827F8106
:1019DA007D7D89807F7B84827B867F7A86867780FD
:1019EA00877D81867981837D7B87817F847D7D7FE9
:1019FA0082847F7A877D7E827E867E8080807D80DB
:101A0A008B787E8480847D7D847D7D887D807F80C7
:101A1A0081827D808180857E827E847D80857D81B4
:101A2A007D7C877F7B89807B85817B837C81867CAB
:101A3A007E85807A847F80827E877E7F837C838492
:101A4A007785807C887E7A85837884857C7E85828A
:101A5A007A7E867C808184807A83857E7983857D7F
:101A6A00817D8381817A7C8D7D80817E847C7D8766
:101A7A0083758389777E84877B7C7D88837B7F845B
:101A8A00817B7E84877A7E81837C82827E7E828746
:101A9A007B7C8585787C8A817780887F78897E7F40
:101AAA00847B80837E82808081828176848780792C
:101ABA0083847C7F857F7D7D85827F7D8280808017
:101ACA007C847F81817E7E817E897C7D827C84810B
:101ADA00817E80827E7F817F857F7C827E828080FC
:101AEA007C847F7F867C7C847F7F847C817F8084EA
:101AFA007D81807F837A82877D7A838084817B7FE0
:101B0A0081847C7E808180818182807A85817D80CA
:101B1A0082827E7A86827D817F837E7A80867E7AC1
:101B2A0087847784847885827B84827D7F83807BA7
:101B3A0081857F817B81867E7A85827D80817E7E9A
:101B4A00837F887B79878377808A7C7984867C8087
:101B5A008180827C83817D82827C837E8082778879
:101B6A00807D82847D7B828083807F7F7F7F867D6C
:101B7A007E83807D82837C817F807E82857D818356
:101B8A007E7E837C8281817F818180817E7F818646
:101B9A00787D85867E7C807F7F887D7E8180807D42
:101BAA0086817B82837D827F80817F817F7D838026
:101BBA008080788B807C847F7C83827E83817B7D1E
:101BCA008B7C7A8283817F8180837E7E8180827E04
:101BDA007F818083807C83807E7F8480807D8185F5
:101BEA007E82807C857E7E877B7D84847D7E7E80EE
:101BFA00847E7F81857B80837E847F7E7E808481D4
:101C0A007C8182817C80867C7F83827F7E7C828BC2
:101C1A007C7B867D7D82847C827F7F827C818284BC
:101C2A007D80837B82867C80837D817F7C85827DAB
:101C3A0080807E817D847D847F7887817C837F7D9F
:101C4A00867E7D7F857C80817F82807E7F83837A8A
:101C5A007C8B7C7B82827F808577828381817F7F78
:101C6A007C84827E7E80807D867F798680807F7E6E
:101C7A0082827C81807D84847A7D8285807A828159
:101C8A00837F7D838279848082817C8082817D7E4C
:101C9A0084817D82817C83817D81847B7F84807E37
:101CAA0081867C7B82857C80817E82817D817D8527
:101CBA007C7F84817D7E867C80837F80817F7E8419
:101CCA007F7E85807C7E877C7E84827A7F887D7B0E
:101CDA00818682787E8A7E7D7F82807E7A84877DF5
:101CEA008082807E80817D83837A857E7F7F8186E4
:101CFA007B80827C7B8B82797E84847B8281817EDD
:101D0A007C88837B81807F81827F7B847D83847EC4
:101D1A007E81837D7E8380807F7D85847B7D8385B4
:101D2A007F7D807F817B8683797E8C7E7B7C8285AA
:101D3A00837D7E827F7E84817888817D82817C809A
:101D4A0084807B83817F817E82837B81857E7C8385
:101D5A00807E837F7F8180827C8183807F7E848274
:101D6A007D7E867F7B7F7E8983777E88807B848168
:101D7A007F7C85807B838181817D827E83827C8258
:101D8A00817E817E7E82837E7E8380807F827C814B
:101D9A00857E7E817F807F828181807D8084807B39
:101DAA007E877F7D8282807C83827F817D83837B25
:101DBA0081807D84857B817D8181807F84817D7F17
:101DCA00827E8182807F7F847B837F82807D7F8009
:101DDA0083817E7E808082837C7B8A7F77858779F8
:101DEA007C88817682887E7B8280808081817E7EEB
:101DFA0081807E857F7D82847C81837C7F85807AD9
:101E0A0081847A7F85807F8080807E837F7C8180C9
:101E1A0082857881887E7B8282807F7C857F7B82B7
:101E2A00847C8084807E7E82817D837E8083807EA6
:101E3A007C87807C837E827F82807C82837C7E8397
:101E4A00817F83817A82857B7D887E7C81827D8188
:101E5A0081827F7E7E80847F817C818181817A7D7F
:101E6A008A82787E85807C847F7F80827F7F7F8064
:101E7A00837E80837F7E8081817F817D8181807C5A
:101E8A007D8A807782887E7E817F827F7D81808342
:101E9A007E7E857F7C84807F8080817D81857D7C3C
:101EAA0083827D837D7D84817F7F827E817F837F24
:101EBA00807D82807F83827F7E8180837D84807C17
:101ECA008082827C82827B857F7F7E847F7D828105
:101EDA00837E7E80818280827E7E83807D82807EF8
:101EEA0084817F82807F807D847F7E867F80847BE1
:101EFA0080827F827F807E82817F827E8280827ED4
:101F0A008181807E7E81817F82857E7B84837D7FC5
:101F1A008080867D7D847F80807F7E877D7D8082B4
:101F2A007F80827E7F8181817E7C877D7E867F7AAB
:101F3A0082837D8281807F7D84827E7E817E828291
:101F4A007C82827E7F7F82827D81817C82817E8388
:101F5A007C81857A81837D7F80837E80827C818576
:101F6A007E7C83827D808082807E7D85807D847E6A
:101F7A00817F7E84817F807F7F827E81807E828155
:101F8A007D808081807F837F7C81887A7C857F8148
:101F9A00827E7B86817A8381817C80867E7D808039
:101FAA00847F7C80857F7F81817E7F81827F7E8224
:101FBA00807D7F8183807B81837D7F83817F7D8319
:101FCA007F807F82827C7D8383807B8183807F8008
:101FDA00807F827D84817D80817F81837A84827EF5
:101FEA00808180807C847F7B857F8081807E8081E8
:101FFA007F80857B7E877E7C8381817C81818180D5
:10200A007C83827D82817F81808080817F7E817FC7
:10201A00837F7F8280817E7E808282817C818080B4
:10202A007F80837F7E80827F7F807E82827F7E83A5
:10203A007F7F857C80847F7F7F8181817C83827D95
:10204A00827E81857C807F7F85807E7F7F7F867C84
:10205A008281817C80847E80808180827F7B84856E
:10206A007D807F7F84817F7E8181817F7E84807E67
:10207A00817F7F82817E8181807E82837D7F828152
:10208A007F81808081807C84817C83807D837E8344
:10209A00817E7F83827C837C81867C7F827D828035
:1020AA00817D80857E80837B83827A84817D7F8324
:1020BA00837D808180837D7E857F7C828183788415
:1020CA00897A7D82817F81807F81807E827E828201
:1020DA007F807F817F7F8180817F7E8083807E81F8
:1020EA00807F81817F7F7D81827E8081837D8380E5
:1020FA007A82857B7F827F80827F7D82827C8381D8
:10210A007A877E7E83807F818080807F7F827F7FC7
:10211A007F80847D80837D7D82817E8280817F7EB7
:10212A00827E8080817F7F8082807E837F7F8180A4
:10213A0080827F7E7F7E86807A85817C82807F7F97
:10214A00847F80827F7C81837F807E80837F7E8183
:10215A0080807F827E82817B83847D80807E818174
:10216A00837C81817E827F7F857F7B847F807E8165
:10217A0083817C80857D7F81817D82817F817F7F54
:10218A0080827E7C867F7E847E7C83837D817F8045
:10219A00827C81867B7E8580807E82817D83807F32
:1021AA0080827F7E83807E82807E827F817E818123
:1021BA007D84807C837F7E82817F7E828081818113
:1021CA007E808380807F81817F818081817D7D8700
:1021DA00807C82817E7F84807E828080807D8281F5
:1021EA00837D7E847F7F7F827E81847E7F827E81E3
:1021FA00827F7F80847D7E82837F7F82817C7F84D1
:10220A008082817D807E82827F81807E80837F7DC5
:10221A008480807F7D857C82847D7D818280817FB0
:10222A007F8180817D81807F82827D7F82817F7FA5
:10223A00827C83857C7E867D7C80837F7D84807E94
:10224A007F847F7D808181817F7F80807E82837F82
:10225A007D83827A82847E7E83807F817D82847C74
:10226A008083807D81817F7E8180818080807F8262
:10227A007F7F818180817F7D837E7F857D80808154
:10228A007C83837D827F80817E7F847F807F7F8243
:10229A00807E83827D80817D80857F7E827E7D8532
:1022AA00817F7F818080807F81807F7E80827F8026
:1022BA0080837F7E80808080807E82817F7F827F14
:1022CA007F80817F7F827F7E807F83807F7F808403
:1022DA007E7F827D81817F827E80807F7E82817EF9
:1022EA0083807C82817F81808080817F807E8083E1
:1022FA007E82807E8183807E7F81827F7F7F8282D1
:10230A007C7E867E7E8181817E8080808081807FC6
:10231A007E84807F8081827C80847E7E80808082B1
:10232A008180817F7D82857C808082807D8282809F
:10233A008081807F807C81847F80817D8080808293
:10234A007D8182807F8080817F80837C7F867E7D85
:10235A0082827D80837E82807E7F82837C81827F6F
:10236A008080817E7F85817E80817F807F81807F62
:10237A00807F82807D81827F807E81827E81818052
:10238A008180807F80827F7E84807D8281807F8140
:10239A007F7F8082827E7F7F85807B8083827D8033
:1023AA0080837F7E8180807F81817F7F81807B8522
:1023BA00817C8282807D81827D81837B81847F7F13
:1023CA00807E82817E827D80847D7F807E85807D05
:1023DA0081827F80817E827F7F8280817E80837FEF
:1023EA0080817D808280817E81817E7E81837E7FE5
:1023FA0081817F7C85837B81827F7E80817F7F81D3
:10240A00808081807E7F837E7F827F7E82817F7EC5
:10241A00877C7C877D7F827D7F817F828080817FB0
:10242A007F827F7E83807F8081827F7E7F808281A0
:10243A007F7C83837E7E80827F7F7F8280817F8094
:10244A007E81827F807F7F828080807E81807E7F86
:10245A0083837E7C83827E7E82807D84807E7F8170
:10246A0081817F7E81807F8081817F7D84817B8164
:10247A00817F807F81827B82837D828180807F8150
:10248A00817F808080807E8182817E80818080823F
:10249A00807E81807F80837F7F827F7D84807C8134
:1024AA00827F7F80827E80817F827E8082807F8021
:1024BA008081807D81827F808082807D80837E8111
:1024CA00807F80817F808080807F8080817F818003
:1024DA007F827F80827F80827E80837E7F80827FF0
:1024EA007F827F7F817F81827E817E818180807FE2
:1024FA008081817E81817F7F818180817F7F8281CE
:10250A007F81807D818081817F81817F80807D84C0
:10251A00837D7F8182807E7F83827F81817E7F82AD
:10252A007D82837F7F7F837F80827F807F8081829D
:10253A00807E81817F81827E7F837D80827F818090
:10254A008082807E80827F80837D81807F8180807F
:10255A0082817F7F80818080808081827D7F83806D
:10256A007E81807F82807F7F828080817F7F83805F
:10257A007D82827C82837E817F8180807F80827F50
:10258A008081807F7F8181817E7F8182807D818140
:10259A00807F80808080817E81807F7F81827F7E34
:1025AA00817D82827E807D827F82817F7F80817E23
:1025BA0081817E837D8082807F827D807F82827C12
:1025CA00807F81817E817F80817F8280807F817F01
:1025DA00817F7F82807F81817F7F827F7F7F8080F2
:1025EA0081817F7E7F847E8080807F827F7E8280E1
:1025FA007F7F8081807F817E8080817E7F867E7ED4
:10260A008281807F80837D80817E827E80808181BD
:10261A007E7F82817E80827F817F80817E7F8381AF
:10262A007E81817F808080807F817F80837D7F859E
:10263A007D7F837D81817F8081807F807F847F7C95
:10264A0081837E7F8082807E8081817E8180817F7E
:10265A00807F80828081807E817E82817F7F80816F
:10266A00817F7F837F8080827E80827E817E82825C
:10267A007D818181807F7E83817D82817F817E8150
:10268A00847E7F80818180807F82817D81827C813E
:10269A0085807E7F80828080827E81827D81807F2C
:1026AA0083807E828080817F817F7F82808081801B
:1026BA007F81807F80827F7F837E7F82827E80830C
:1026CA007D8081817F7F8180817F807F83827D8100
:1026DA00827F7E818180807F80827F7F82807E80F0
:1026EA00837E7F7F81817F7E82817E7F82817F7FE1
:1026FA0080837E8081817F80817F7F83807D8082CD
:10270A00807F808082807D82827F7F807F81837FBD
:10271A00807F7F83807E80827F81807F7F807F82AF
:10272A00807F8080817E7F82808181807D81827CA2
:10273A008283807F7F81807F81807E81817F80818B
:10274A00817F80808081807F81817F808082807E7E
:10275A00817F7F7F82807F817F81807F7D837F8071
:10276A00827E817F7F82807F7F81817E8081807F60
:10277A0081817F8080807E8083807F80808080804E
:10278A007F7F81807F817F8181808080808080803F
:10279A008082807F7F80817F7F818080817F807F30
:1027AA00807F82827E7E8181807F7F8180807F811F
:1027BA008081807E81827E7F7F837F7F837E80800F
:1027CA008180807F81827E80827F808080807F81FD
:1027DA00807E80847C80837E817F817E7E84807FF0
:1027EA0081808080817F80817F7E827F7E84817DDF
:1027FA0080817F818081807F808081807F81807ECF
:10280A0081807F817E81817F818080807F817F81BD
:10281A00817E827F7F7E8182807F7F81817F807FB0
:10282A008081807F7F82807F80827F7F818180809C
:10283A007D81837F807F82807D83807C83837D7F8F
:10284A0083807D81847E7E81827E7F84807F818079
:10285A00807F80817E81837E7F82807F7F82807E6F
:10286A0081818080817F8082807F81817E81807F5B
:10287A00817F7F837F808180817F7F81827F807F4C
:10288A008082807F7F82807E8081817F80817F7F3E
:10289A00818080817E80827E80817E81817E81812D
:1028AA0080817F807F7E82827F7F817E80837E801F
:1028BA0081807F807E82817E8081807E80817E8011
:1028CA008280807E7F82817E80817F81817E8180FD
:1028DA008080817E81827E7E83807F7F7F82817EEF
:1028EA0080827D81817F7F80817F80817E818081DE
:1028FA007F80807F817F817F7F81807F80808081D0
:10290A0080807E81817D80837F807E81827E8080BF
:10291A00817E8081807E8083807E8080807F8080AF
:10292A008080808081807F80818080807F80807F9E
:10293A0081817F8080817F807F81807F827F7F808D
:10294A0082807E8082817D828080807F8081817F7B
:10295A0080807F8080817F81817F817F817E80826C
:10296A007F808080827F80818180807F81817F805B
:10297A0081807F808180818080817E818280807F4A
:10298A0081807F8081807F8180808080808081803B
:10299A00808081807F7F82817D82817D82827F7E2D
:1029AA00808181817E828080807F81817F8080801A
:1029BA008081808080808080817E818080827F7F0C
:1029CA00818080817E82817E7F83807E80817F80FC
:1029DA00817F8180817F808180807F81817F8081EA
:1029EA00817F82807F808180808081817F818080D9
:1029FA0080808081807F8080818080807F808180CC
:102A0A00807F81808080808081808080807F807FBD
:102A1A0080827F818080818080808080807E8180AA
:102A2A0080817F80818180807E8082807D82817E9C
:102A3A0080827F7F818080817F80807F817F807F8D
:102A4A0081807F817F80817F80807F817F7F81807D
:102A5A0081807E82817E7F817F80827E8080807F6E
:102A6A00807F81827F7E81807F81817F81807E815C
:102A7A0080808080807E81837F7D81817E80807E50
:102A8A0082827D8081817D827F7F837E7F8180803B
:102A9A008080807F81807F81807F817F8081807F2D
:102AAA00808080817F7F81807E808081807E81801E
:102ABA00807F80817F80807F8082807F80817F7F0E
:102ACA008081807F82807E81807F80808081817FFB
:102ADA0080817F81807F8080807F80817F80817FED
:102AEA008080807F8081807F81817F7F7F817F80DE
:102AFA008081827E7F837E7F827F80808081817ECB
:102B0A0081817F7F82817E827F7F817F7F808080BB
:102B1A0080827F7F82817F808080827F7F81807FA9
:102B2A008081807F808080808081807F8081817F9A
:102B3A007F81807F81817F7F81808081808080808A
:102B4A007F8080817F80817F80827F80827F808179
:102B5A007F80817F8081808080808080808081806A
:102B6A0080817F8180808081808081807F81817F58
:102B7A0081817F808180807F80817F817F82817F48
:102B8A00817F81807F7F83817F7E82807F82807F39
:102B9A00807F818080807E82817E82817D81817F2B
:102BAA0080817F80817F8081807F8081807F80811A
:102BBA007F80817F7F82817F7F8080807F8180800C
:102BCA00807F7F82807D82817E7F8080817F8180FD
:102BDA00808080817F80808080807F80827F7F80EC
:102BEA007F82807E81807F8080807F8080807F80DE
:102BFA007F8081808081807F817F80827F7F827FCA
:102C0A007F80807F817F80817F8180807F80817FBC
:102C1A008080807E81827F807F81807F81807F80AB
:102C2A00817E80837E7F83807E8080807F817E829A
:102C3A00807F7F80827F7F8080818081807F81808A
:102C4A00817F808081807F7F81807F7F8081807E7D
:102C5A00808280807F8080817F8081807F80817F69
:102C6A0080808080817F818080808180807F808158
:102C7A007F80817F80808080818080818080817F49
:102C8A00808080817F808180807F81827E80808138
:102C9A00807F81807F81807F807F81807F8080802C
:102CAA008080818080808081808080808180808017
:102CBA00808080817F81807F808180807F8080800A
:102CCA008080808080817F8081807F81807F8180F9
:102CDA008080808081808080807F817F8081807FEA
:102CEA0080817F8181807F818180808180808081D5
:102CFA00807F81817F8081808080818080808080C8
:102D0A0080817F80807F81808080808180808081B7
:102D1A007F7F82817F8080808081808080807F80A9
:102D2A008180808080808081807F80808081807F98
:102D3A0080818080807F8080807F81817F80817F89
:102D4A008081808080808080808080808080808078
:102D5A008180807F80818080817F80818080808166
:102D6A00808081807F81807F808180808080807F59
:102D7A0081817F7F81807F8081807F808080808148
:102D8A0080808080808080807F80817F808080803A
:102D9A00808080807F8080807F81807F818080802A
:102DAA008080808081808080808081808080808017
:102DBA00808080808080808081807F808080808009
:102DCA0080807F8081807F808080808080808080FA
:102DDA008080807F81817F808080808080808080E9
:102DEA0080808080808080808080808080808080D9
:102DFA0080808080808080808080808080808080C9
:102E0A0080808080808080808080808080808080B8
:102E1A0080808080808080808080808080808080A8
:102E2A008080808080818080808080808080808097
:102E3A008080808080808080808080808080808088
:102E4A008080808080808080808080808080808078
:102E5A008080808080808080808080808080808068
:102E6A008080808080808080808080808080808058
:102E7A008080808080808080808080808080808048
:102E8A008080808080808080808080808080808038
:102E9A008080808080808080808080808080808028
:102EAA008080808080808080808080808080808018
:102EBA0080808081838489A9AD8D64494B678DA701
:102ECA00AA9577605C6B84979D927E6D686F7F8E02
:102EDA00948E82756F737D878D8B837A75767C84E9
:102EEA008888837D79797D828585837F7C7B7D80D7
:102EFA00838482807D7D7E80828382807E7E7E80C6
:102F0A00818281807F7E7F80818181807F7F7F80B7
:102F1A0080818180807F7F808080818080808080A6
:102F2A008080808080808080808080808080808097
:102F3A00808080808080808180817F817F827EAD59
:102F4A00CF8D3B0F2970B6D2BB86574A618AA8AC8F
:102F5A009687877A6E686E7B89908E847973747C83
:102F6A00858B8A857D78787C828787847F7B7A7D4A
:102F7A0081848583807D7C7E80828383817F7E7E3F
:102F8A0080818282817F7F7F8081828181807F7F31
:102F9A008081818181807F80808181818180808020
:102FAA008080818181808080808081818181808010
:102FBA008080808181818080808080808180808003
:102FCA0080808080808080808080808080808080F7
:102FDA0080808080808080808080808080808080E7
:102FEA0080808080808080808080808080808080D7
:102FFA0080808080808080808080808080808080C7
:1031DA0080808080808080808080807F80818181E3
:1031EA0080807F7F808081808080808080808080D6
:1031FA0080808080808080808080808080808080C5
:10320A0080808080808080808080808080808080B4
:10321A0080808080808080808080808080808080A4
:10322A008080808080808080808080808080808094
:10323A008080808080808080808080808080808084
:10324A008080808080808080808080808080808074
:10325A008080808080808080808080808080808064
:10326A008080808080808080808080808080808054
:10327A008080808080808080808080808080808044
:10328A008080808080808080808080808080808034
:10329A008080808080808080808080808080808024
:1032AA008080808080808080808080808080808014
:1032BA00808081808180817F8280C0D88429012892
:1032CA007AC7DBBA7C4C436490ADAB907060667C85
:1032DA00919A9180726E77848C8D857C77787E85C1
:1032EA008785807C7B7D818484827F7D7E7F8282CC
:1032FA0082807F7F7F8081818180807F80808181C1
:10330A0080808080808080808080808080808080B3
:10331A0080808080808080808080808080808080A3
:10332A008080808080808080808080808080808093
:10333A008080808080808080808080808080808083
:10355A0080808080808077737F8C938E8276737769
:10356A00818889857E79797D828584817E7C7D804A
:10357A00828382807E7E7F81828281807F7F80813A
:10358A00818180807F80808181808080808080802E
:10359A008080808080808080808080808080808021
:1035AA008080808080808080808080808080808011
:1035BA008080808080808080808080808080808001
:1035CA0080808080808080808080808080808080F1
:1035DA0080808080808080808080808080808080E1
:1035EA0080808080808080808080808080808080D1
:1035FA0080808080808080808080808080808080C1
:10360A0080808080808080808080808080808080B0
:10361A0080808080808080808080808080808080A0
:10362A008080808080808080808080808080808090
:10363A008080808183AEB07843325286B0B79D765F
:10364A005D5E758F9D9886736C72818D90887E768B
:10365A00767C848887827C7A7C808484827F7D7D64
:10366A007F818282817F7E7F80818181807F7F7F4F
:10367A00808181808080808080808080808080803E
:10368A008080808080808080808080808080808030
:10369A008080808080808080808080808080808020
:1036AA008080808080808080808080808080808010
:1036BA008080808080808080808080808080808000
:1038DA00807C7C818587847F7C7C7E818383817FD9
:1038EA007E7E80818281807F7F8081818181807FCD
:1038FA0080808181818080808080808080808080BB
:10390A0080808080808080808080808080808080AD
:10391A00808080808080808080808080808080809D
:10392A00808080808080808080808080808080808D
:10393A00808080808080808080808080808080807D
:10394A00808080808080808080808080808080806D
:10395A00808080808080808080808080808080805D
:10396A00808080808080808080808080808080804D
:10397A00808080808080808080808080808080803D
:10398A00808080808080808080808080808080802D
:10399A00808080808080808080808080808080801D
:1039AA0080808080808080808080808080817F8B02
:1039BA00A4936D52546F90A39E8871686F808E9302
:1039CA008B7E75747B848988827C797B80848583ED
:1039DA00807D7C7E818382817F7E7F8081828180DF
:1039EA007F7F7F80818180807F7F808080808080D0
:1039FA0080808080808080808080808080808080BD
:103A0A0080808080808080808080808080808080AC
:103A1A00808080808080808080808080808080809C
:103A2A00808080808080808080808080808080808C
:103C4A008080808080808080808080807F80818169
:103C5A008180807F80808181808080808080808058
:103C6A00808080808080808080808080808080804A
:103C7A00808080808080808080808080808080803A
:103C8A00808080808080808080808080808080802A
:103C9A00808080808080808080808080808080801A
:103CAA00808080808080808080808080808080800A
:103CBA0080808080808080808080808080808080FA
:103CCA0080808080808080808080808080808080EA
:103CDA0080808080808080808080808080808080DA
:103CEA0080808080808080808080808080808080CA
:103CFA0080808080808080808080808080808080BA
:103D0A0080808080808080808080808080808080A9
:103D1A008080808080808080808080808080808099
:103D2A0080808080808080808083979379625E6EB5
:103D3A008697988B7970727D888E8A8179777B8253
:103D4A008687837E7B7C7F828483807E7D7F808260
:103D5A008281807F7F8081818180807F8080818154
:103D6A008080808080808080808080808080808049
:103D7A008080808080808080808080808080808039
:103D8A008080808080808080808080808080808029
:103D9A008080808080808080808080808080808019
:1040AA0080808083908C7A6C6A75859090867B7507
:1040BA00777F868986807B7A7D828485827F7D7DF3
:1040CA007F828382807F7E7F80818181807F7F80E3
:1040DA0081818180808080808181808080808080D1
:1040EA0080808080808080808080808080808080C6
:1040FA0080808080808080808080808080808080B6
:10410A0080808080808080808080808080808080A5
:10411A008080808080808080808080808080808095
:10441A0080808080808080808080808080848C857D
:10442A007971737C868B89827B797B818586837F90
:10443A007C7C7F828383817F7E7F80818281807F73
:10444A007F8081818180807F808080818080808060
:10445A008080808080808080808080808080808052
:10446A008080808080808080808080808080808042
:10447A008080808080808080808080808080808032
:10448A008080808080808080808080808080808022
:10479A00808080808080808587807976798086870E
:1047AA00847F7C7B7E828483817E7D7E80828281FF
:1047BA00807F7F7F80818180807F7F8080818080F1
:1047CA007F808080808080808080808080808080E0
:1047DA0080808080808080808080808080808080CF
:1047EA0080808080808080808080808080808080BF
:1047FA0080808080808080808080808080808080AF
:10480A00808080808080808080808080808080809E
:104B1A008285827D7A7A7E828584817E7D7E80828C
:104B2A008281807E7E7F818181807F7F7F8081817B
:104B3A00808080808080808080808080808080806B
:104B4A00808080808080808080808080808080805B
:104B5A00808080808080808080808080808080804B
:104B6A00808080808080808080808080808080803B
:104B7A00808080808080808080808080808080802B
:104B8A00808080808080808080808080808080801B
:104B9A00808080808080808080808080808080800B
:104BAA0080808080808080808080808080808080FB
:104BBA0080808080808080808080808080808080EB
:104BCA0080808080808080808080808080808080DB
:104BDA0080808080808080808080808080808080CB
:104BEA0080808080808080808080808080808080BB
:104BFA0080808080808080808080808080808080AB
:104C0A00808080808080808080808080808080809A
:104C1A00808080808080808080808080808080808A
:104C2A00808080808080808080808080808080807A
:104C3A00808080808080808080808080808080806A
:104C4A00808080808080808080808080808080805A
:104C5A00808080808080808080808080808080804A
:104C6A00808080808080808080808080808080803A
:104C7A00808080808080808080808080808080802A
:104C8A00808080808080808080808080808080801A
:104C9A00808080808080808080808080808080800A
:104CAA0080808080808080808080808080808080FA
:104CBA0080808080808080808080808080808080EA
:104CCA0080808080808080808080808080808080DA
:104CDA0080808180808080817F7D3CB7DC6F4162EB
:104CEA009F9D7F6A79888B7D7A7D8482807D808092
:104CFA00827F807F8180807F8080808080808080AA
:104D0A008080808080808080808080808080808099
:104D1A008080808080808080808080808080808089
:104D2A008080808080808080808080808080808079
:104D3A008080808080808080808080808080808069
:104D4A008080808080808080808080808080808059
:104D5A008080808080808080808080808080808049
:104D6A008080808080808080808080808080808039
:104D7A008080808080808080808080808080808029
:104D8A008080808080808080808080808080808019
:104D9A008080808080808080808080808080808009
:104DAA0080808080808080808080808080808080F9
:104DBA0080808080808080808080808080808080E9
:104DCA0080808080808080808080808080808080D9
:104DDA0080808080808080808080808080808080C9
:104DEA00808080808080808080808080807F807FBB
:104DFA00807F817F817F817F817F817F817F817FAA
:104E0A00817E817E827E827D85703CCEC8633F6EC4
:104E1A00A299786A7D8A897C7A7E8482807D808064
:104E2A00817F807F8180807F8080807F808080807A
:104E3A008080808080808080808080808080808068
:104E4A008080808080808080808080808080808058
:104E5A008080808080808080808080808080808048
:104E6A008080808080808080808080808080808038
:104E7A008080808080808080808080808080808028
:104E8A008080808080808080808080808080808018
:104E9A008080808080808080808080808080808008
:104EAA0080808080808080808080808080808080F8
:104EBA0080808080808080808080808080808080E8
:104ECA0080808080808080808080808080808080D8
:104EDA0080808080808080808080808080808080C8
:104EEA0080808080808080808080808080808080B8
:104EFA0080808080808080808080808080808080A8
:104F0A008080808080808080808080808080808097
:104F1A008080808080808080808080808080808087
:104F2A0080808080807F807F807F817F817F817E7B
:104F3A00827E827D847C85788E4D6AE89C4C468987
:104F4A00A28E6C70828C837A7A8183817E7E808144
:104F5A00807F7F808080807F8080807F808080804B
:104F6A008080808080808080808080808080808037
:104F7A008080808080808080808080808080808027
:104F8A008080808080808080808080808080808017
:104F9A008080808080808080808080808080808007
:104FAA0080808080808080808080808080808080F7
:104FBA0080808080808080808080808080808080E7
:104FCA0080808080808080808080808080808080D7
:104FDA0080808080808080808080808080808080C7
:104FEA0080808080808080808080808080808080B7
:104FFA0080808080808080808080808080808080A7
:10500A008080808080808080808080808080808096
:10501A008080808080808080808080808080808086
:10502A008080808080808080808080808080808076
:10503A008080808080808080808080808080808066
:10504A008080808080808080808080808080808056
:10505A00808080808080807F807F817F817F817E49
:10506A00817E837D837C85778D4D6FEB994C488A51
:10507A00A28E6D71828D837A7A8283817E7E80810F
:10508A00807F7F808080807F8080807F808080801A
:10509A008080807F80808080808080808080808007
:1050AA0080808080808080808080808080808080F6
:1050BA0080808080808080808080808080808080E6
:1050CA0080808080808080808080808080808080D6
:1050DA0080808080808080808080808080808080C6
:1050EA0080808080808080808080808080808080B6
:1050FA0080808080808080808080808080808080A6
:10510A008080808080808080808080808080808095
:10511A008080808080808080808080808080808085
:10512A008080808080808080808080808080808075
:10513A008080808080808080808080808080808065
:10514A008080808080808080808080808080808055
:10515A008080808080808080808080808080808045
:10516A008080808080808080808080808080808035
:10517A00808080808080808080808080807F807F27
:10518A00807F807F807F817F817F817F817E817E1A
:10519A00827E827D837C857A89604CE1B658417B28
:1051AA00A395736D7F8C867B7A7F84817F7E8081D5
:1051BA00817F807F8180807F8080807F80808080E7
:1051CA0080808080808080808080808080808080D5
:1051DA0080808080808080808080808080808080C5
:1051EA0080808080808080808080808080808080B5
:1051FA0080808080808080808080808080808080A5
:10520A008080808080808080808080808080808094
:10521A008080808080808080808080808080808084
:10522A008080808080808080808080808080808074
:10523A008080808080808080808080808080808064
:10524A008080808080808080808080808080808054
:10525A008080808080808080808080808080808044
:10526A008080808080808080808080808080808034
:10527A008080808080808080808080808080808024
:10528A008080808080808080808080808080808014
:10529A008080808080808080808080808080808004
:1052AA0080807F8080807F807F807F807F807F80FA
:1052BA007F8080807F808080808080808080807FE7
:1052CA00817F817E827D837B893995E480435397F0
:1052DA009F856976868C7F7A7B8382817D7F8081B8
:1052EA007F807F8080807F808080808080808080B7
:1052FA0080808080808080808080808080808080A4
:10530A008080808080808080808080808080808093
:10531A008080808080808080808080808080808083
:10532A008080808080808080808080808080808073
:10533A008080808080808080808080808080808063
:10534A008080808080808080808080808080808053
:10535A008080808080808080808080808080808043
:10536A008080808080808080808080808080808033
:10537A008080808080808080808080808080808023
:10538A008080808080808080808080808080808013
:10539A008080808080808080808080808080808003
:1053AA0080808080808080808080808080808080F3
:1053BA0080808080808080808080808080808080E3
:1053CA0080808080808080808080808080808080D3
:1053DA0080808080807F807F807F807F807F807FC9
:1053EA00807F807F817F807F817F817F817E817FB7
:1053FA00817E817E817E827D847241CBCC633F6DCA
:10540A00A19A796A7C8A897C7A7E8481807D80806F
:10541A00817F807F8180807F8080807F8080808084
:10542A008080808080808080808080808080808072
:10543A008080808080808080808080808080808062
:10544A008080808080808080808080808080808052
:10545A008080808080808080808080808080808042
:10546A008080808080808080808080808080808032
:10547A008080808080808080808080808080808022
:10548A008080808080808080808080808080808012
:10549A008080808080808080808080808080808002
:1054AA0080808080808080808080808080808080F2
:1054BA0080808080808080808080808080808080E2
:1054CA0080808080808080808080808080808080D2
:1054DA0080808080808080808080808080808080C2
:1054EA0080808080808080808080808080808080B2
:1054FA0080808080808080808080808080808080A2
:10550A008080808080808080808080808080808091
:10551A00808080808080807F807F807F817F817F84
:10552A00817E827D837C86788B4875EE954A4A8E89
:10553A00A28C6C72838D827A7A8283817E7F80814B
:10554A00807F7F808080807F8080807F8080808055
:10555A008080808080808080808080808080808041
:10556A008080808080808080808080808080808031
:10557A008080808080808080808080808080808021
:10558A008080808080808080808080808080808011
:10559A008080808080808080808080808080808001
:1055AA0080808080808080808080808080808080F1
:1055BA0080808080808080808080808080808080E1
:1055CA0080808080808080808080808080808080D1
:1055DA0080808080808080808080808080808080C1
:1055EA0080808080808080808080808080808080B1
:1055FA0080808080808080808080808080808080A1
:10560A008080808080808080808080808080808090
:10561A008080808080808080808080808080808080
:10562A008080808080808080808080808080808070
:10563A0080808080808080808080807F807F807F63
:10564A00807F807F817F817F817F817F817F817F52
:10565A00817F817F817F817E83783CC4CE663D696C
:10566A00A09A7A697B898A7C7A7D8482807D80800F
:10567A00817F807F8180807F8080807F8080808022
:10568A008080808080808080808080808080808010
:10569A008080808080808080808080808080808000
:1056AA0080808080808080808080808080808080F0
:1056BA0080808080808080808080808080808080E0
:1056CA0080808080808080808080808080808080D0
:1056DA0080808080808080808080808080808080C0
:1056EA0080808080808080808080808080808080B0
:1056FA0080808080808080808080808080808080A0
:10570A00808080808080808080808080808080808F
:10571A00808080808080808080808080808080807F
:10572A00808080808080808080808080808080806F
:10573A00808080808080808080808080808080805F
:10574A00808080808080808080808080808080804F
:10575A00808080808080808080808080808080803F
:10576A00808080808080808080808080808080802F
:10577A008080808080808080807F817F817F817E21
:10578A00817E827D837C85778E4A76EA944A4A8D29
:10579A00A28D6C72838D827A7A8283817E7F8081E8
:1057AA00807F7F808080807F8080807F80808080F3
:1057BA0080808080808080808080808080808080DF
:1057CA0080808080808080808080808080808080CF
:1057DA0080809BDF793B83C87C2A5DBDAA535FBB6F
:1057EA00CE7D60A5CF8F527AB28C44508F8A4A40C0
:1057FA0080996B5185B2946D89BBAC7A7CA7A773EB
:10580A00608291694C67867152668E8C6F769DA70D
:10581A008A809DAB907886978264697F775C5C7793
:10582A007F6C698394887E90A49A878D9C947C77F8
:10583A0083816C626F776A6270807D758093958AC6
:10584A008D9B9D8E868D8E7F72757A706468737358
:10585A006C71808682849198928D93978E838284CC
:10586A007C706E7271696972787678828B8B8A9095
:10587A0097958E8D8F8A807A7B78706B6E716F6E3A
:10588A00747C7F80868E918F9093938D8786847C9B
:10589A00757473706C6D727475798186878A8F934B
:1058AA00918F8F8E89837F7D78727070706F70751B
:1058BA00797C7F858A8C8D9092908D8A88847E7976
:1058CA007774716F70727274797E8285898D8F8F09
:1058DA008F8F8D8985827E7A7573727070717477F5
:1058EA007A7E8387898C8F908F8D8B8985807C794E
:1058FA0076737171727275787C8083878B8D8E8EC8
:10590A008E8D8A8783807B787573727172747679CB
:10591A007D8185878A8D8E8E8D8B8985827E7B7827
:10592A00757372727375787B7E8286898B8C8D8D86
:10593A008C8A8784817D7A77757372737476797CA1
:10594A00808386898B8C8D8C8B898683807C797702
:10595A007574737475777A7D818487898B8C8C8C46
:10596A008A8885827F7B79767474747576797B7E72
:10597A008285878A8B8C8C8B898784817E7B7876DB
:10598A0075747475777A7C808385888A8B8B8B8A09
:10599A00888583807D7A777675747576787B7D8045
:1059AA008386888A8B8B8A898784817F7C797776BC
:1059BA0075757677797C7F818487898A8A8A8988CE
:1059CA008683807E7B797776757677787A7D808212
:1059DA008587898A8A8A898785827F7D7A78777698
:1059EA00767677797B7E81838687898A8A89888693
:1059FA0084817E7C7A7877767677787A7C7F8184E0
:105A0A00868889898988878583807E7B7978777675
:105A1A007778797B7D80828486888989888786845D
:105A2A00817F7D7B7977777777787A7C7E818385AA
:105A3A008788888888878583807E7C7A7877777755
:105A4A0078797B7D7F818485878888888786848228
:105A5A00807D7B7978777777787A7C7E8082848676
:105A6A0087888887868583817F7D7B797877777831
:105A7A00797B7D7F818385868788878786848280F4
:105A8A007E7C7A79787878797A7C7E808284858639
:105A9A00878787868583817F7D7B7A797878797A0B
:105AAA007B7D7F8082848586868686858382807FC9
:105ABA007D7C7B7A7A7A7B7C7D7E7F8182838485FA
:105ACA00858484838281807F7E7D7C7C7C7C7D7DD5
:105ADA007E7F808182838383838382828180807FA9
:105AEA007E7E7D7D7D7E7E7F7F80808181828282B7
:105AFA00828181818080807F7F7F7F7F7F7F7F809F
:105B0A00808080808080808080808080808080808B
:105B1A007D52415D87ACB5A1764A3036588BB8CFF5
:105B2A00C7A67C5C566D96C0D9D7BB926C5A648264
:105B3A00A6BFC2AB845D44445A7B97A09373503688
:105B4A003244648496937D604842506F90A7AC9E1D
:105B5A00856D636B84A2BAC2B79F847474839CB147
:105B6A00B9B0987C6760697D909A958268534A506B
:105B7A00627786877B67544C51637A8D948E7F6FE8
:105B8A006669798EA1ABA89A897D7B8595A6AFAC0B
:105B9A009E8B7B7477839199978A78685E5F697721
:105BAA0081827B6C5E565762717E8482786D6667ED
:105BBA0071818F989890867E7D838F9CA4A49C90F7
:105BCA00857F82899399989083776F6E737C82839D
:105BDA007D73676060656F787C7A746C66666D78D1
:105BEA0082898B86807B7A808993999B968F888518
:105BFA00868C939898938A817B7A7D828686827A2C
:105C0A00716B696C72787A78736D68686C737B8073
:105C1A00817E7A77777B828A90918F8B8785878C32
:105C2A00929696938D87838284888A8A86807974ED
:105C3A007374777A7B7975706C6B6E72777B7B790C
:105C4A00767474777D8387898885838385898E9125
:105C5A0092918D898787888B8D8D8A85807C7B7BC5
:105C6A007D7F7F7C797471707174777878777472BC
:105C7A007375797D818282807F7F8285898C8E8D02
:105C8A008B8987888A8C8E8D8C8885828181828394
:105C9A0082807D797675757778797876747373747E
:105CAA00777A7C7D7D7C7B7C7E81848788888786E9
:105CBA008687898B8C8C8B89878584858586858365
:105CCA00817E7B7A7A7A7B7B7A7876747475767839
:105CDA007A7A7A7979797B7D8082838383838384D4
:105CEA0086888A8A8A88878686868787878583813F
:105CFA007F7E7E7E7E7D7C7A7977767777787979F2
:105D0A0078787778797A7C7E7F7F7F7F80818385B8
:105D1A00868787868686868787888787858482811D
:105D2A00818181807F7D7C7A7979797A7A797978AB
:105D3A00777778797A7B7C7C7C7D7D7F808283848F
:105D4A0084848484858687878787868584848383F9
:105D5A00838281807F7D7D7C7C7C7C7B7A7978786C
:105D6A0079797A7A7B7B7B7B7C7D7E7F808181825D
:105D7A0082828384858686868585858585858484D1
:105D8A00838281807F7F7F7E7E7D7C7B7A7A7A7A2E
:105D9A007A7B7B7A7A7A7B7B7C7D7E7F7F7F808031
:105DAA0081828384848484848484858585848483AD
:105DBA00828281818180807F7F7E7D7D7D7D7D7DE8
:105DCA007D7C7C7C7C7D7D7E7E7E7E7F7F7F8080ED
:105DDA0081818181818181828282828282828181A2
:105DEA00818181818080808080807F7F7F7F7F7FAB
:105DFA007F7F7F7F7F80808080808080808080809E
:105E0A00807A6C6056504E4F5259626C77838F9BE2
:105E1A00A7B2BCC6CED4D9DCDEDDDBD7D2CBC3B9C0
:105E2A00AEA295887A6C5E5043362A20170F090570
:105E3A00020102050B1017202B3643505F6D7C8A36
:105E4A0099A6B3C0CBD5DDE4EAEEF0F0EFECE8E2D8
:105E5A00DBD3C9BFB3A79B8E8175685C51473E36B9
:105E6A00302B27252425282B31373F48525C67736E
:105E7A007F8A96A1ACB6BFC7CED4D9DCDDDEDDDB26
:105E8A00D7D2CCC5BCB3AA9F958A7F74695F554C9B
:105E9A00443D37322F2D2C2C2E31353B4149515A56
:105EAA00636D77818B959EA7AFB6BDC2C6C9CBCCB1
:105EBA00CCCAC7C4BFB9B2ABA39A91887F756C63C9
:105ECA005B534C46413D39373636373A3D42474DAA
:105EDA00545B636C747D868E969EA5ACB2B6BABED0
:105EEA00C0C1C1C0BEBBB7B2ADA7A099928A827A1F
:105EFA00736B645D57514D49464342424244474A97
:105F0A004E53585F656C737B828990979DA3A8ADA9
:105F1A00B1B4B6B7B8B8B6B4B2AEAAA59F9A938DC3
:105F2A00868079736D67615C5854514F4D4C4C4D66
:105F3A004F5155585D62676D73797F858B91969C39
:105F4A00A0A4A8ABADAFB0B0AFAEACA9A6A29E99C3
:105F5A00948F89847E78736E6964605D5A58565549
:105F6A00555556585A5D6064686D72777C81868B88
:105F7A009095999DA0A3A5A7A8A8A8A7A6A4A29F03
:105F8A009C98948F8B86817D78736F6B6764615F51
:105F9A005D5C5C5B5C5D5F6163666A6D71767A7E8F
:105FAA0083878B8F9396999C9EA0A1A2A2A2A1A05F
:105FBA009E9C9996938F8B8883807C7874706D6A87
:105FCA006865646262616162636466696B6E717559
:105FDA00787C8083878B8E919496989A9B9C9D9DC2
:105FEA009C9B9A999794928F8C8885827E7B7875F0
:105FFA00726F6D6B6968676666666768696B6D6FF5
:10600A007275787B7E8184878A8D8F919395969716
:10601A009898989897969492908E8B898683807E8A
:10602A007B787573716F6D6C6B6A6A6A6A6B6C6D7B
:10603A006F717375777A7C7F828487898B8D8F9154
:10604A00929394949494949392908F8D8B8987844D
:10605A00827F7D7B7876747371706F6E6E6D6D6EF4
:10606A006E6F7172747577797C7E80828486888A75
:10607A008C8D8E90909191919190908F8D8C8A8930
:10608A00878583817F7D7B7977767473727171706E
:10609A00707071717273747677797B7D7F80828478
:1060AA008687898A8B8C8D8E8E8E8E8E8D8D8C8B2B
:1060BA00898887858382807E7D7B797877767574F7
:1060CA007373737373737475767778797B7C7E8058
:1060DA00818284858788898A8B8B8C8C8C8C8C8B2B
:1060EA008A8A89888685848281807E7D7B7A79788E
:1060FA00777676757575757575767778797A7B7C26
:10610A007D7F808183848586878889898A8A8A8A2D
:10611A008A8A898988878685848382807F7E7D7C36
:10612A007B7A797878777777777777777878797AE3
:10613A007B7C7D7E7F808182838485868787888831
:10614A008889898888888786868584838281807FF2
:10615A007E7D7C7B7A7A797978787878787879799B
:10616A007A7A7B7C7D7E7F80818182838485858625
:10617A0086878787878787878686858484838281BF
:10618A0080807F7E7D7C7C7B7B7A7A79797979794C
:10619A007A7A7A7B7C7C7D7E7E7F80818282838410
:1061AA008485858686868686868686858584848392
:1061BA00828281807F7F7E7D7D7C7C7B7B7B7A7AFD
:1061CA007A7A7B7B7B7C7C7C7D7E7E7F80808182F1
:1061DA008283838484858585858585858585848470
:1061EA00838382828181807F7F7E7E7D7D7C7C7CB1
:1061FA007B7B7B7B7B7B7C7C7C7D7D7E7E7F7F80CB
:10620A008081828282838384848484848484848453
:10621A00848383838282818180807F7F7E7E7D7D6D
:10622A007D7D7C7C7C7C7C7C7D7D7D7D7E7E7E7F95
:10623A007F8080808181818282828282838383833C
:10624A0083828282828281818181808080807F7F35
:10625A007F7F7F7E7E7E7E7E7E7E7E7F7F7F7F7F4C
:10626A007F7F80808080808081818181818181801F
:10627A007E7A76726F6C6967656362605F5E5E5D87
:10628A005D5C5C5C5C5C5C5C5C5D5D5D5E5E5F6035
:10629A00606161626364646566676768696A6B6C9A
:1062AA006C6D6E6F707171727374757676777879BA
:1062BA007A7B7C7C7D7E7F808181828384858686D1
:1062CA008788898A8A8B8C8D8D8E8F9090919293F4
:1062DA00939495959697979899999A9A9B9C9C9D31
:1062EA009D9E9E9F9FA0A0A1A1A2A2A2A3A3A4A497
:1062FA00A4A5A5A5A5A6A6A6A6A7A7A7A7A7A7A832
:10630A00A8A8A8A8A8A8A8A8A8A8A8A8A8A8A8A803
:10631A00A7A7A7A7A7A7A6A6A6A6A5A5A5A5A4A415
:10632A00A4A3A3A3A2A2A1A1A1A0A09F9F9E9E9D58
:10633A009D9C9C9B9B9A9A999898979796969594C8
:10634A00949392929190908F8E8E8D8C8C8B8A8A58
:10635A0089888887868585848383828181807F7EF8
:10636A007E7D7C7C7B7A7A79787877767675747498
:10637A00737372717170706F6E6E6D6D6C6C6B6A27
:10638A006A6969686867676666666565646463639F
:10639A00636262616161606060605F5F5F5E5E5EF2
:1063AA005E5D5D5D5D5D5D5C5C5C5C5C5C5C5C5C1B
:1063BA005C5B5B5B5B5B5B5B5B5B5C5C5C5C5C5C1C
:1063CA005C5C5C5C5D5D5D5D5D5D5E5E5E5E5F5FEF
:1063DA005F5F60606061616161626263636364649C
:1063EA006465656666666767686869696A6A6B6B29
:1063FA006C6C6D6D6E6E6F6F70707171727273739B
:10640A0074757576767777787879797A7B7B7C7C00
:10641A007D7D7E7F7F808081818283838484858560
:10642A0086868787888889898A8A8B8B8C8C8D8DCA
:10643A008E8E8F8F90909191919292939393949440
:10644A0094959595969696979797989898989999D6
:10645A009999999A9A9A9A9A9B9B9B9B9B9B9B9B8D
:10646A009C9C9C9C9C9C9C9C9C9C9C9C9C9C9C9C62
:10647A009C9C9B9B9B9B9B9B9B9B9B9A9A9A9A9966
:10648A009999999898989897979796969696959590
:10649A0095949494939392929291919190908F8FD4
:1064AA008F8E8E8D8D8D8C8C8B8B8B8A8A89898928
:1064BA008888878786868685858484848383828282
:1064CA008281818080807F7F7E7E7E7D7D7D7C7CD7
:1064DA007C7B7B7B7A7A7A7979797878787777771F
:1064EA007776767676757575757474747473737356
:1064FA007373737272727272727271717171717175
:10650A00717171717070707070707070707070707D
:10651A00707070707070707070707070707071716F
:10652A00717171717171717171727272727272724A
:10653A007273737373737374747474747475757516
:10654A0075757576767676767777777777787878D9
:10655A007879797979797A7A7A7A7A7B7B7B7B7C92
:10656A007C7C7C7C7D7D7D7D7D7E7E7E7E7E7F7F4C
:10657A007F7F808080808080818181818182828208
:10658A0082828283838383838384848484848484CD
:10659A008585858585858585868686868686868699
:1065AA008686878787878787878787878787878773
:1065BA008787878787878788888888888888888858
:1065CA00888888878787878787878787878787874E
:1065DA008787878787878787878787868686868646
:1065EA008686868686868686858585858585858549
:1065FA00858585858484848484848484848483834F
:10660A008383838383838383838282828282828257
:10661A00828282828281818181818181818181815B
:10662A00818080808080808080808080808080805F
:10663A0080807F7F7F7F7F7F7F7F7F7F7F7F7F7F5E
:10664A007F7F7F7F7F7F7F7F7F7F7F7F7F7F7F7F50
:10665A007F7F7F7F7F7F7F7F7E7E7E7F7F7F7F7F43
:10666A007F7F7F7F7F7F7F7F7F7F7F7F7F7F7F7F30
:10667A007F7F7F7F7F7F7F7F7F7F7F7F7F7F7F7F20
:10668A007F7F7F7F7F7F7F7F7F7F7F7F7F7F80800E
:10669A0080808080808080808080808080808080F0
:1066AA00808080807AE234040ADE70041ADBF00209
:1066BA00DCD73E03DCCC000BBCAE201EE289DA2418
:0466CA00AA87380261
:0466CE000401FFFFC5
:00000001FF
