:100000000C943E000C945B000C945B000C945B0021
:100010000C945B000C945B000C943F010C945B000F
:100020000C94A5000C945B000C945B000C945B009A
:100030000C945B000C945B000C945B000C945B00D4
:100040000C945B000C945B000C945B000C945B00C4
:100050000C945B000C945B000C945B000C945B00B4
:100060000C945B000C945B000C945B000C945D00A2
:100070000C945B000C945B000C945B0011241FBE7D
:10008000CFEFCDBFDFE3DEBF18E3A0E0B8E3EEE9DA
:10009000FEE702C005900D92A430B107D9F728E31E
:1000A000A4E0B8E301C01D92A836B207E1F70E94B0
:1000B00059010C9486030C9400001F920F920FB606
:1000C0000F9211242F933F938F939F93EF93FF935E
:1000D000809101082091000882FF1EC010922938EB
:1000E00010922D38109231381092353810923938DC
:1000F00010923D38109241381092453888E0809334
:100100000504FF91EF919F918F913F912F910F9057
:100110000FBE0F901F901895809167383091663808
:1001200090E001963817190661F3E091673881E095
:100130008E0F80936738F0E0EA5BF74C2083809164
:1001400067388F7180936738DCCF1F920F920FB69C
:100150000F9211241F932F933F934F935F936F93AD
:100160007F938F939F93AF93BF93CF93DF93EF933F
:10017000FF93809125388093A1066091003870E04C
:10018000A6E8BEEF30E020E090E080E0F901EE0F5D
:10019000FF1FE20FF31FEE5EF74C40815181569531
:1001A0004795569547951296CD91DC9113974C172C
:1001B0005D07A8F51281CD91DC911197C40FD51F71
:1001C00048814058550B149FE001159FD00D112414
:1001D000CD2F40815181460F571F408351838C0F93
:1001E000911DC7FD9A952F5F3F4F1496263031051C
:1001F00069F62091023881383FEF9307ECF180389F
:1002000091057CF41816190674F091958195910961
:1002100030E08223932391958195910905C0C0E038
:10022000DECF8FE790E0822320912438211103C094
:1002300080588093253881E0820F809324389091F4
:100240000138891302C01092243881E080930B0A90
:10025000FF91EF91DF91CF91BF91AF919F918F91DE
:100260007F916F915F914F913F912F911F910F90CF
:100270000FBE0F901F90189581E89FEFC6CF1F9279
:100280000F920FB60F9211248F939F938091103885
:10029000909111380196809310389093113881E035
:1002A000809343019F918F910F900FBE0F901F90ED
:1002B0001895F89488ED90E084BF90936100809148
:1002C000A00083608093A0008091A1008160809352
:1002D000A10080911604887F8093160480911604F3
:1002E00084608093160480911604877F809316049F
:1002F00081EC8093A00688E08093010480E18093E4
:1003000002041092293810922D3810923138109230
:1003100035381092393810923D3810924138109289
:10032000453810920438CCE3C093263881E080939E
:10033000010280911204877F8093120480E098E08C
:10034000809308089093090880E8809305088093BB
:10035000060883E080930708109266381092673889
:1003600042E050E070E060E08EE098E30E943C03E1
:1003700080910F38807F803F69F480E280930F384E
:10038000C0930E3842E050E070E060E08EE098E309
:100390000E9440031092000A8FE08093050A87EEC6
:1003A00093E08093260A9093270A81E080930A0ABB
:1003B0008093000A10924701809141018111FCCF86
:1003C00081E090E080934A0190934B01809142013B
:1003D00081608093420181EA809340017894109279
:1003E0000C3810920D3828E0722ECFEFD0E0662442
:1003F000639405E010E036E0E32EF12C44E0C42ED7
:10040000D12C53E0A52EB12C88248394912C90916B
:100410006638809167389817D9F0E091663881E0A6
:100420008E0F80936638F0E0EA5BF74C9081809104
:1004300066388F7180936638892F887F883F41F0B6
:1004400097FF2CC0292F207F203FB9F460920B38F2
:10045000809108048071E0910C38F0910D38E730FC
:10046000F105A8F6EA5CFD4F0C948003D502E0028A
:10047000F2020E032A033903130310920B3830E003
:100480002093093830930A38907E81E0903C09F43B
:1004900080E08093083810920738DACF80910B38CB
:1004A0008111D6CF80910738E82FF0E0EB5FF74C51
:1004B00090838F5F9091083889238093073881114A
:1004C000C7CF4091093850910A3880910638209161
:1004D00005384039510539F5882309F44AC040915F
:1004E0000C3850910D384630510541F420930E38A8
:1004F00010920C3810920D387092060490910E38BC
:10050000291B263008F0A4CF30E0F901EE0FFF1FC1
:10051000E20FF31FEE5EF74C10821182880F828388
:100520007092050495CF4038510519F1403B5105B3
:1005300009F08ECF40910C3850910D38463051055E
:1005400041F420930F3810920C3810920D387092AD
:10055000060490910F38291B213009F198F02230C0
:1005600009F076CF82958F7009F481E0809300388E
:100570006FCF80910E38281B263008F069CF70921B
:10058000060466CF82958F709E0102C0220F331F32
:100590008A95E2F7C90180648093023859CF869525
:1005A00086958F5F8093013853CF811130CF809231
:1005B0000C3890920D38109210381092113827CFC5
:1005C000811143C080911038909111380B9708F435
:1005D0001ECF7092050482E090E080930C389093D7
:1005E0000D3815CF882369F080911038909111381B
:1005F0008135910508F40BCFA0920C38B0920D38DC
:1006000006CF8091103890911138813A9F4008F4BC
:10061000FECEC0920C38D0920D38F9CEE0920C3854
:10062000F0920D38F4CE8091103890911138813AC3
:100630009F4008F4ECCE7092060442E050E070E077
:1006400060E08EE098E30E943C0310920C38109218
:100650000D38DDCE42E050E070E060E08EE098E3DF
:100660000E9440037092060400930C3810930D38DA
:10067000CECE8111EACFCBCE60507C4E0C94770366
:10068000DC01A40FB51F4150504048F0CB01840F4E
:10069000951F2E910E94510341505040D0F708956C
:1006A000262F0E9473030080021619F00E945C033B
:1006B000019701970895262FAF93BF93E0E0F0E1F3
:1006C000328131FDFDCFDC01A050BC4E2C932DE9D1
:1006D00024BF23E020830196BF91AF91089503D0FA
:1006E000808199270895FC01E050FC4E0895FB019C
:1006F000DC0102C001900D9241505040D8F708959E
:10070000EE0FFF1F0590F491E02D0994F894FFCFB0
:100710007F8893989B9C9D9C9B9996938F8B8782B7
:100720007D78726C675E4C3D3329221C16110D0AD0
:1007300007050301010000010102030506080A0C78
:100740000F1214171A1D202326292D3033373A3D56
:100750004044474A4D505356595C5F6164686A6D26
:100760006F7275777A7C7F8385878B8D909496994D
:100770009C9FA3A6A9ACAFB3B6B9BDC0C3C6C9CC34
:10078000D0D3D6D9DBDEE1E4E6E7EAECEEF0F2F432
:10079000F5F6F8FAFAFCFCFDFEFEFFFFFFFFFFFF97
:1007A000FFFFFFFFFEFEFDFDFCFCFBFBFAF9F9F885
:1007B000F8F7F6F6F5F4F3F2F1F1F0EFEEEDECEB1D
:1007C000E9E8E7E5E4E2E1DFDDDBD9D7D5D4D1CF55
:1007D000CDCAC8C5C3C1BEBCB9B7B4B2AFACA9A776
:1007E000A4A29F9D9A9794928F8D8B898684817FF6
:1007F0007D7A79767473706F6D6B6967656462601A
:100800005E5C5B5957565452514F4D4C4A484745D0
:100810004442413F3E3C3B39383735343332302F48
:100820002E2D2C2B2B2A292828272727262626263B
:10083000252525252626262626272727282829294F
:100840002A2A2B2B2C2D2D2D2E2F303031313233C7
:1008500034353536373838393A3B3C3D3E3F4041F8
:10086000424344454647494A4B4D4E4F50515355DC
:100870005657595A5B5D5E606163646567686A6B71
:100880006C6E6F70717374757678797A7B7C7D7E0F
:100890007F818182838485868788898A8B8C8D8DF0
:1008A0008E8F909192929394959696979898999A04
:1008B0009B9B9C9C9D9E9E9F9FA0A0A1A1A1A2A24C
:1008C000A2A3A3A3A3A4A4A4A4A4A4A4A4A4A4A4EE
:1008D000A4A4A4A3A3A3A3A3A2A2A2A2A1A1A1A1F1
:1008E000A0A0A09F9F9F9E9E9E9D9D9C9C9B9B9B2E
:1008F0009A9A99999998989797969695949493938C
:1009000092929190908F8F8E8D8D8C8B8B8A89880F
:1009100088878786858584848382828180807F7FA3
:100920007E7D7D7C7C7B7B7A7A7979787877777726
:100930007676757575747473737372727271717182
:10094000707070706F6F6F6E6E6E6E6D6D6D6D6DC1
:100950006C6C6C6C6C6C6B6B6B6B6B6B6B6B6B6BE1
:100960006B6B6B6B6B6B6B6B6C6C6C6C6C6C6C6CCF
:100970006D6D6D6D6D6E6E6E6E6E6F6F6F6F707094
:100980007070707171717172727273737373747449
:1009900074757575757676767777777878787979EE
:1009A000797A7A7A7B7B7B7C7C7C7D7D7D7E7E7E8A
:1009B0007F7F7F8080808181818182828283838327
:1009C00083848484848585858585868686868687D6
:1009D0008787878787888888888888888989898998
:1009E000898989898A8A8A8A8A8A8A8A8A8A8A8A6B
:1009F0008A8A8A8A8A8A8A8A8A8A8A8A8A8A8A8A57
:100A00008A8A8A8A8A8A8989898989898989898950
:100A1000888888888888888887878787878787865F
:100A20008686868686868585858585858584848473
:100A3000848484838383838383828282828282828A
:100A40008181818181808080808080807F7F7F7FA5
:100A50007F7F7F7E7E7E7E7E7E7E7E7D7D7D7D7DB8
:100A60007D7D7D7D7D7C7C7C7C7C7C7C7C7C7C7CC1
:100A70007C7B7B7B7B7B7B7B7B7B7B7B7B7B7B7BC5
:100A80007B7B7B7B7B7B7B7B7B7B7B7B7B7B7B7BB6
:100A90007B7B7B7B7B7B7B7B7B7B7B7B7B7B7B7BA6
:100AA0007B7B7B7C7C7C7C7C7C7C7C7C7C7C7C7C89
:100AB0007C7C7C7D7D7D7D7D7D7D7D7D7D7D7D7E68
:100AC0007E7E7E7E7E7E7E7E7E7E7E7F7F7F7F7F41
:100AD0007F7F7F7F7F7F7F7F80808080808080801E
:100AE00080808080808181818181818181818181FB
:100AF00081818181818182828282828282828282DC
:100B000082828282828282828282828282828282C5
:100B100082828282828282828282828282828282B5
:100B200082828282828282828282828282828282A5
:100B30008282828282828282828282828282828295
:100B4000828282828282818181818181818181818F
:100B50008181818181818181818181818181808087
:100B60008080808080808080808080808080808085
:100B70008080808080808080807F7F7F7F7F7F7F7C
:100B80007F7F7F7F7F7F7F7F7F7F7F7F7F7F7F7F75
:100B90007F7F7F7F7F7F7F7F7F7F7F7F7F7F7F7F65
:100BA0007F7E7E7F7E7E7E7E7E7E7E7E7E7E7E7E63
:100BB0007E7E7E7E7E7E7E7E7E7E7E7E7E7E7E7E55
:100BC0007E7E7E7E7E7F7E7F7F7F7F7F7F7F7F7F3B
:100BD0007F7F7F7F7F7F7F7F7F7F7F7F7F7F7F7F25
:100BE0007F7F7F7F7F7F7F7F7F7F7F7F7F7F7F7F15
:100BF0007F7F7F7F7F7F7F7F7F7F7F7F7F7F7F7F05
:100C000080808080808080808080808080808080E4
:100C100080808080808080808080808080808080D4
:100C200080808080808080808080808080808080C4
:100C300080808080808080808080808080808080B4
:100C400080808080808080808080808080808080A4
:100C50008080808080808080808080808080808094
:100C60008080808080808080808080808080808084
:100C70008080808080808080808080808080808074
:100C80008080808080808080808080808080808064
:100C9000808080808080808080808080807F7F8056
:100CA0007F7F7F7F7F7F7F7F7F7F7F7F7F7F7F7F54
:100CB0007F7F7F7F7F7F7F7F7F7F7F7F7F7F7F7F44
:100CC0007F7F7F7F7F7F7F7F7F7F7F7F7F7F7F7F34
:100CD0007F7F7F7F7F7F7F7F7F7F7F7F7F7F7F7F24
:100CE0007F90B1C7DCD4A6755C4E3F2608144E71C8
:100CF00084BED2B5979C77485C6B898A767F97BD16
:100D0000B57E6B605E47437C8681807C7B8EA68C43
:100D1000849D8474787579696A74819B9B94827CC4
:100D200077757E7A867E76726C7C81878B8F8981DF
:100D3000807573737F87817E7C7C7778858A8682D5
:100D40007F7A7B7E8083847F7D7D7C7A7A7E8182C0
:100D50008484827F7F7D7B7C7D7E7E7E7F7F8181A0
:100D600080808180807F7E7E7E7E7F7F7F807F7F90
:100D70007F7F7F7F7F7F7F7F7F7F7F7F7F7F7F7F83
:100D80007F7F7F7F7F7F7F7F7F7F7F7F7F7F807F72
:100D90008086A1AFA8B9C3B3746D964B0F12063706
:100DA0006887D3E3B4B1A07B5D414F515B888E94DB
:100DB000977F6E5877AFC0A998744F5D63666C706B
:100DC000849A958987908E88847A797C797E8380CD
:100DD000776C7B99947D7F746A71728090928D8E0E
:100DE000907E7270686F787A7F838B8F8A87827E1D
:100DF0007C807F7774788286808082807F7E7F800F
:100E000083818187817D7D7B7B7B7B7D80838382EA
:100E1000828180807F7D7D7D80807F7F7E7E7E7EE3
:100E20007F80817F7F7F7E7E7E7E7F7F7F7F7F80D2
:100E30008080807F7F7F7E7E7F7F7F7F7F807E81BF
:100E400081A9C5CFDD8E716353563021307EBFA698
:100E5000798576596F84745F75AFBCB393614957D8
:100E6000816D6C88837C76799EB28A756F6B7A7B94
:100E70007FA4AC958B6A5147598184818A94988666
:100E80009192857C6C696F8486818A8682857F7960
:100E900081776C6D7283847E8B8C8785807C7D7D71
:100EA0007B7B7B7F86847C7B7B8284808287827C49
:100EB0007B7878797D85858381807D7D7D7C7C7D57
:100EC00080808081828282807E7F7E7B7C7C7D7D33
:100ED0007D7E7F81838281807F7E7E7D7D7E7E7F21
:100EE0008080808080807F7F7F7F7F7F7F7F7F800B
:100EF000858E959C9C948C7F95AF9572725C3D4CD1
:100F00004859766D8090A0BEA07E766E8B979F9993
:100F10005C5D6F72594F6C6A89B0B9AC9C876A6C22
:100F20005150608CB67F726F6A8987869FA48685D0
:100F30006B46668EA79075666C9090828C807A90D6
:100F40007667767983817089B9956B715D70776CFE
:100F50008AA8A28195754F6E6C7072708AA9AD9F38
:100F60007B7C6C56878C706A7E82938D5F5865940B
:100F7000AA98A2A3896A5A6F866867957F6E767071
:100F80006A71849193ACC4A476758373604D565D89
:100F900079988892957A7A75697C82789B9D7B8016
:100FA0007F786D5C72A8BA9A8D76586C7F75646B89
:100FB00073839A8677929B998B6B585B748F9B9502
:100FC000ADA46F5E64716157617B98938B818EB520
:100FD000AC84776356696F6C868E8A8D817B768848
:100FE0009593866F755B6992877479787F999287FC
:100FF00075777A87988C7B7C8F8B766662576B8649
:1010000076758FA7A496806F6E89A38B74716362C7
:10101000626283939092A8AF9C8B6A51515E7083F9
:1010200088938C8A8678837574766A8DA299897E76
:10103000746F7A7178868C897F8C8F8B9A8A6B62B9
:1010400070806B677A6E69707287A1A4A092989184
:101050007E7B6C6A76856D677670827F757987A3F3
:10106000A298967E7F86847D5F55527190878A8B89
:1010700084787C82888E949F886E687F86716E6B80
:101080006C7D8782859B9D8C88736168789298843B
:101090007F84847E696B7D7F7B849797867A717964
:1010A0009698867C7565666E656C7B82868FA4B229
:1010B000A1998361576777736E7785807F8A969E43
:1010C00095847C7678706B848B7D86806B666E8A67
:1010D000A1959A9D82726C77756E6A6D7A818D90FA
:1010E000919089948679715E6473808F8E817C7C07
:1010F00086797580848D8C86828F937F736D7174F1
:101100006E6F71808B858590A295857B6D67647A03
:1011100096958B84756A7279899289857C777675C4
:101120008AA59080846B605D68797C8687919D96A6
:10113000917F72727F85787370797D788194998CB4
:1011400087776B717B8D8E7F7D7F847D727B7C77D3
:101150007B8483878E89817F7F7B7B7C7B767677A0
:10116000747B8E9A998A80716B7B827D747C767693
:10117000817E7C7D848C92958B868A807C736B6665
:1011800063767F868D847F808D9A9386807A6A6667
:101190007283877E8384817E7C82818186867C784F
:1011A000767B888E8B817D7D7E78757774757C8A61
:1011B00096928B898373757A7176726F7481989D1C
:1011C000989B8A766D6F7A7570737C83858483882B
:1011D0008A929389807573736D6F8081777D7E7F2E
:1011E0008383889299958F8F7A6C68626B6F73771F
:1011F0007B898F918F8C8A83817E7371717C8686C7
:10120000939789817A75706F6F6F79838C8F8E8CCD
:101210008C93867674736E6A707A888C8583858EDB
:10122000988E827C6D6B71737B828081898A8584C4
:10123000818680797E807F7B7D7E7F807C7E8389B6
:101240008584858381817F7B817D73747377777AD1
:1012500080818A8D8D8988867974767E827E7B8076
:1012600084828286857F7D7A7A7E7C7E8487828175
:10127000847A7776797F80878D8F8C837E7874737C
:101280006D727A80888B8C8686807B82817B787D6C
:101290007F807E77767A838A88888D867C777A7B52
:1012A0007674757B878A8785878684827973717562
:1012B0007D83858A8D858079767E83807D7C7B7C2D
:1012C000817F8186827E807F7E7D7E827F7D838519
:1012D000817D7D7D80807C7F82868786817D7E7713
:1012E000757C7C7A7A7F8284868582838585827FFD
:1012F000827D7675767C7D7C7D86929289867C75F2
:1013000076767C7E7D7E858B85818079777A7D80FF
:1013100083858889837D7B7C7F7D79797F848480C8
:101320007F7C7C80848889837E7E7A7777797B7CDA
:101330007F84888C8B87837C7A7C7D7D7D7D7F7E9E
:101340007B7A7E87898685817B787B7D7E7F82859F
:10135000827E7E8384817E7C7B7E7F7D808483838E
:101360008481807F7E81807E80807B7A7D7D7A7A99
:101370007D8287888B8F8B837F7974747373747A83
:101380008283878986848280817F7F807D7D7D7E48
:1013900082838184867E7B79787A7A7C80878A884A
:1013A00088827B79777A7C7B7C7F8383828384824B
:1013B000807E808180827F79797A7E7C7C8080804B
:1013C00081848584817E7E7B7C8082807E7C7C7F24
:1013D000828381807F7E7F7D7C7F81818183828308
:1013E00082817E7D807E7B7A7A7C7D7E7D7E838716
:1013F0008684838080817D7A7A7C7F81807F7F7EF6
:101400007E818383828180817F7C7C79797C7F83EC
:1014100085858383837F7E7E7D7D7D7D7D7E8081CE
:1014200082848483807D7C7E7E8082817F7D7D7FBF
:1014300080828684807F7D7B797A7D7F82868988A1
:1014400084817E7C7B7C7C7C7C7B7B7E82848684AE
:10145000848280807E7F7E7D7D808181817E7C7C98
:101460007E7F7F818183838281807F7F817F7D7C7E
:101470007B7C7F818383848383807D7C7E82828169
:1014800080807F7F7E7E7F7E7E80838583807E7C62
:101490007C7D7E80818181807F7F83888883827D3F
:1014A0007877787A7A7B7E8389898889857F7C7B47
:1014B0007A78787A7D828686848280807E7C7D7E42
:1014C0007F8081828282807E7F807E7C7E7E807F24
:1014D0007D7D80868A8584817A78787A7C7C7D811E
:1014E00086868382807F7F7F8082817E807F7B7AF9
:1014F0007B7C7B7D7E8286878583817F7E7E7B7BF6
:101500007B7D7F7F808282828181808080807F7FDF
:101510007D7D7E7E7E7F80808080808080808080D8
:10152000808181807F7E7C7A7B7D808182818080CA
:1015300081807E7E7E7F807F7F7F808080818281B0
:10154000817F7E7D7D7F80807F80807F7F808183A3
:1015500082807F7E7F7F7F7E7E7D7E7F8081838590
:1015600081807F7E7D7B7C7C7D8183838482817F83
:101570007F7E7E7E7D7E7F80807F8182828281826F
:10158000818182807F7E7D7B7D7D7D7E808181816A
:1015900082818081808080808181807F8182808043
:1015A0007E7C7C7D80808080808181808181818142
:1015B000807E7E807E7E7F8182817F7F7F807F8034
:1015C0007F807F7E7E808181828281817F7F807F1C
:1015D0007E7E7F7E7E7E7F8182858484807F7F7E0B
:1015E0007C7C7E7F7F8080818280818181828281FC
:1015F0007E7C7C7F807E7F7F7F807F8083848383EF
:1016000083807E7D7D7C7C7C7D7F818482828180E5
:10161000807E7E7D7F7F7E80818280807F808181D1
:1016200081807F7F7F7F7E7D7E7F808180808080C4
:10163000807F80808282807F7F7E7F7D7F81817FAF
:101640007F807E7E7D7E7E80808181808281807FA2
:101650007E7F7F7E7E7E7E7F7F7F7F818382828191
:10166000807E7D7D7D7E7F80807F80808080818088
:101670008080807F7F7F7E7E7F808181807F7E7E75
:10168000807F7F807E7E7E7F7F8182828383808059
:101690007F7E7D7D7C7D7F81838283817F7E7E7F57
:1016A0007F7F7F8081818181807F7F7F808081803B
:1016B000808180807E7E7E7E7F8081828282817F2B
:1016C0007E7D7D7E7E7F8082848282817F7E7D8022
:1016D000807F7F8081818080808080808183838003
:1016E0007F7E7F7E7E7E7D7D7E8082828282828101
:1016F000807E7E7F7E7F81818180807F7F7F7F7EF5
:101700008080808181828080807F808081818080D4
:101710007F7E7F7E7F7F7F7F7F7F818282818080CF
:101720007F7E7E7F7F7F7F80808080808180807FC2
:101730007F7F8080807F7F7F7F7F7F807F808181B0
:1017400081807F7F7F807F7F7F7F7F7F808182819D
:10175000818080807F80808181807F7F7F80818089
:1017600080807E7F7F7E7F80808081818281807F7C
:101770007F7F7F7F7E7E7E7F7F8080818182818070
:1017800080807F7E7F80808080807F7E7F807F8062
:10179000807F7F808081818080807F7F7E8080804D
:1017A0008081808080807E7E7E7F8080808181813C
:1017B00080807F807F7F808081808081807F7E7E2F
:1017C0007F818181817F807F7F7F7F7F808081811A
:1017D00081817F7F7F807F7F7F7F8080808080810D
:1017E000828081807F7F7F80818180807F7F7F80FA
:1017F000808080818180807F80808080807F7F80EA
:10180000808181808080807F7F7F7F7F7F7F8080DD
:1018100081818180818080807F7E7F7E7F7F8080CC
:101820008181818080807F807F8080807F7F7F7FBB
:101830007F8081818080807F7F7F7F7E7F818181AB
:1018400081808080807F7F808080807F808080809A
:101850008080808080818180807F7F7F7F7F80808B
:101860008080808080818080807F80818080818175
:101870007F7F8080807F7F7F7E808080808080806F
:10188000807F80807F808081808080807F8080805A
:101890008080818181807F807F7F7F7F7F8080804B
:1018A000808080808080808080808080807F7F7F3B
:1018B0007F8080808080808080807F7E7F7F7F802F
:1018C000808080818180808080807F7F7F80808019
:1018D000818080807F7F7F7F7E7F7F81808181800C
:1018E0008080808081808080807F7F7F807F8080FB
:1018F0008181818080818080807F7F7F7F7F7F7FEB
:1019000080808081818181807F80808080807F7FD6
:101910007F807F80808080808081808080808080C8
:101920008080808080807F807F7F808081808080B9
:101930007F807F808080807F807F807F80808181AA
:101940008080808080807F7F7F7F80807F8081809B
:10195000808180807F8080807F8080808080808088
:10196000808080807F7F8080808080808081808078
:10197000808080807F7F8080808080817F807F806A
:101980008080808080808080808080808080808057
:1019900080808080808080808080807F8080808048
:1019A0007F80808080808081808080807F807F8039
:1019B000808080808081808080807F7F8080808028
:1019C0008080807F8080818080808080807F808018
:1019D000808080807F7F8080808080808080808108
:1019E0008080807F8080808080807F8080808080F9
:1019F00080808080808080808080808080808080E7
:101A0000808080807F8081808080808080808080D6
:101A100080807F80808181808080808080808080C5
:101A200080808080808080808080808081808080B5
:101A3000808080807F7F80808080808080808080A8
:101A40008080808080808080808080808080808096
:101A50008080808080808080808080808080808086
:101A60008080808080808080808080808080808076
:101A70008080808080808080808080808080808066
:101A80008080808080808080808080808080808056
:101A90008080808080808080808080807B80886F54
:101AA000917D778E72887C827C867A6CA563957630
:101AB0006FA74EAA6A7B946F8D64A65D987C66A51D
:101AC0005F956D8A847D6D99746FAE41AD75699C2B
:101AD000708A669F618D876C9663A0657C956D8822
:101AE0007D7E78955E8C8E6A98638E846895885D1D
:101AF0008E9358AA657A9A61907888768C689279E4
:101B000070A94CA4727792629B6F8F6885906C8EDF
:101B100074877A7F896A9A6888807594689C5C94D7
:101B2000806B9B698E777B848D5E9A8164A65994C5
:101B300083777D7D9064A1608E8C5EA65D928075BA
:101B40008D74857B90648F8475887F7F6F8F837F92
:101B500068987C6E9E5D987C738C72976A87798793
:101B60008074985E9A777889817B7F8769A1668384
:101B70008D6F9566937B739177866E967180925F79
:101B80009B737C8D73877F7A867C7C8D669A767357
:101B900096698E7A88708C80749562997A6D9C694A
:101BA0008E7E748981836D9474887A79906F888928
:101BB0006A869163937A7F87728A748F708B777B42
:101BC000946395787D8D66947D758F7676917B7222
:101BD000956C8F7A7498658B8378847989758A7708
:101BE0007C8F6992777D9062957D6F976C838D6D08
:101BF00087817A7B8B7A75956B8681798E688F7FEA
:101C0000759070828384747F8979837A807E7F82E5
:101C100081728D7E748F6E8C7C7C817F7B82876AE3
:101C2000966F828A68977180877780837F738F77BA
:101C300080827A867789777D897785758C7A7A8AAA
:101C4000718E767D8C6D9079759273827D828374AE
:101C50008C738B777C91698F7C778F6B8E7B768F83
:101C6000718581817687836F92757E89728A787B90
:101C70009070808B708C797D877881798C74867E6A
:101C800077916C8D7582876F9072897A8081788B5D
:101C900075867A867B798D708A7A817E7E8572924E
:101CA000708387718D7C768B7C788D71887F778D42
:101CB0007580837D7A897C788B77847E7C89738735
:101CC0007F7B847D817A8B74847F8084758A788021
:101CD000867A7B897B7D87738C7B7D847A89758806
:101CE000778680778E6F8C7A7E8678857A877686FF
:101CF000807B8579867983807A87798577867E7BF4
:101D000089748A7A81807C857C7F808377897685D7
:101D10008178877A847989788086768977877C79D3
:101D20008A75877B817D7F8673887C817F7C867DB9
:101D30007C857E7B8976867C7E837D81798A7584AD
:101D400083758C758680788B75867D7E837B807DA0
:101D50008777857D7E87748A7882827C827B87788C
:101D6000867B7F8676887B80827B7F837E7B867B7B
:101D700081807C837E7D808478867B7F8378897771
:101D8000847F7C827E8179877A7E8577867A7F855B
:101D900077838278857E7B877782827A847B837E55
:101DA0007E7E837F7A8777838278867B80807E7D44
:101DB000837F7B8578857B7E8577877A837E7E832C
:101DC000798778837F7D847A847C80827E7E817F20
:101DD0007E847B827E807F7E817C857A837D7E850A
:101DE00079867C81817F7F7F8379857D81817B84FA
:101DF0007D7D847D7E847B81807D837F7E80827DEE
:101E00007F817D847B81807C847A857C80817D80DC
:101E10007E827B847B828279867B80827C817E83CA
:101E20007E7E817D847C80817D827D7F827D7F82BC
:101E30007C82817D80817D81807C837E7D827D82AC
:101E40007E7E847A847E7F817E827C837D817F7F9B
:101E5000837C81817C81817D847C82817D817F8284
:101E60007C827E80827B847D7E837C827F7F807F7C
:101E70007F81807E817E807F80807F807F807E806A
:101E8000807E817D827F7C847C80817B847E7E825B
:101E90007C81817D807F7F7E827C80817C837C8150
:101EA000817B837E7E827E7F7F817D81807D817E3E
:101EB0007F807E807F7D827E7F817D827D807E802F
:101EC000807E817C837D80817B837D7F817C817F1F
:101ED0007E80817D827E80817C837D7F817E7F800C
:101EE000817D827E7F827C807F7E807F7F817E81FC
:101EF0007F7F827D817F807F7F817D827E7F817CED
:101F0000837D80807E817D817E81807D827F8080D7
:101F10007E817E80817D827F7D827E81807F807FC9
:101F2000817E817F7E827D827E7F817D827E807FB9
:101F30007F7F80807E827D817E7F827D827E807FAA
:101F400080807D827D817F7F817D817E807F807F9B
:101F500080807F817F7F80807E817F7F817E817E88
:101F60007F817D817F7F807F807E827D80807E817A
:101F70007E80807E81807E817E80807E827E807F6A
:101F80007F807E817E817F7F817D817F7F817E8159
:101F90007F7F7F807F7F807E827E80807E807F7F4C
:101FA0007F817E817F7E827D817F7F817F807F8038
:101FB0007E807F7F807F807F7F7F807E807F80802C
:101FC0007E827E80807E817E807F80807D817E801B
:101FD000807E817E80807F80807F807F80807F8008
:101FE0007F807F807F7F817E817F7F817E817F80F8
:101FF0007F7F807F817E7F7F7F807E807F7F807FED
:102000007F80807E807E80807E817E807F7F7F7FDC
:10201000807F807F807F7F817F7F807F7F807E80C9
:102020007F7F817E807F7F7F7F807E817E80807EBC
:10203000817E80807E807F7F807F807F7F7F7F7FAB
:102040007F807F7F807E817F7F807E817F7F817E9A
:10205000807F7F7F807F7F807E817F7F817E807F8A
:102060007F7F7F7F7F807F807F7F807F807F807F7B
:102070007F80807F7F807F80807F80807F80807F67
:10208000807E80807F807F807F7F7F7F807F807F5A
:10209000807F7F807F7F807F80807F807F7F808048
:1020A0008080807F80807F807F808080817F807F34
:1020B00080807F7F7F807F807F80807E807F7F8029
:1020C0007F807F80807F807F807F80808080808015
:1020D000807F807F80807F7F80807F80807F807F07
:1020E00080807F807F80807F8080807F807F7F80F6
:1020F0007F807F80807F7F807F80807F807F8080E7
:102100007F807F807F807F80807F807E807F7F80D8
:102110007F807F807F807F7F807F807F7F807F7FC9
:102120007F7F7F807F7F807F807F7F80807F7F80B9
:1021300080807F807F7F807F7F7F7F7F7F7F7F80AA
:102140007F807F7F807E807F7F807F7F7F7F7F809B
:102150007F80807F807F7F807F7F807F7F807F8088
:102160007F7F7F807F7F807F807F7F7F7F807F807A
:102170007F7F807F807F807F807F7F807F807F7F69
:102180007F7F807F807F807F7F807F807F807F7F59
:102190007F807F7F807F807F7F7F7F7F7F807F804A
:1021A0007F7F807F807F7F7F7F7F7F807F80807F3A
:1021B000807F80807F7F7F807F8080807F807F7F27
:1021C000807F8080807F807F7F807F807F80807F16
:1021D000807F807F807F80807F807F80807F807F06
:1021E000807F807F80807F807F807F80807F807FF6
:1021F0007F807F7F807F80808080808080808080E3
:102200008080807F7F807F807F7F8080807F807FD5
:1022100080807F807F807F7F807F808080808080C3
:102220007F8080808080808080808080807F807FB1
:102230007F7F7F807F807F807F80807F807F8080A6
:102240007F807F8080807F807F7F807F807F7F7F97
:102250007F7F7F807F807F7F807F7C87798284758E
:1022600095648A8C718B768B6B987965A16E936778
:1022700081995BA47659B26680935AA96E65A3755D
:102280007E7E8474887C7D9256A76F69AC627F9C49
:102290005A7CA266956978A655A36E7399639E567B
:1022A0009E7F74994CB25E87925C9E776E95778024
:1022B0008462A370847790746CAB4BA081679F5D40
:1022C0009D7E54B069857D82806BA74DA3797991FD
:1022D00056AB7663AC56829A688E7385818B628327
:1022E0009D5F95805E9E7A878061AC549F757598DE
:1022F00069867398728674898175897B876C976803
:102300008296619F6777AC4F8E95609C6E789D5AE0
:10231000997E63AA677196865A988B5AA2718184B6
:102320007498647F966E86867778867D7D897099AD
:10233000618A8D609B865F8C89759551AA797086BC
:1023400079995FA0599B855AB945A28557A6757B97
:1023500084895E9287728973906F887B887C729A79
:102360005AA56C8B8450BF56879060A0756C98748A
:1023700071A0608F7D7C7F818958AE5E8491699F5A
:102380004DA978689C698F709564879A50A2777977
:10239000916A7B91778A7B71916D90717C9C68804A
:1023A0006CA5706CA34FAD5F8D885BB24F9C757947
:1023B0008D758269A3648E797B9160A461878A7828
:1023C000816AA656A66573A9549581826E936B9215
:1023D0007777995BA5658C71868765AB4BA6747121
:1023E0009B59AC5B848F798466A555A17E60A569F5
:1023F000956A7D9A6189984E9E8C58A76C7F8A82D7
:10240000668E8B63A65A879B5BAA5D829C56A173DE
:102410007D8982668B8F6A926998736E9F5D9B76C9
:1024200086718688719D4BAD746E9C67966E7F81B8
:102430009061A06A79A5509D7884699D756CAA4BBE
:10244000A4737E9157A46D867D877277AA45AB6E83
:102450007A9757A6687B9B7262A76C81895FAF6091
:1024600085787C986496678F7E749E51A66D7A9964
:102470005CA16F7A7C9868878A67A74DA2786BA069
:10248000679559A9677C9D54A961878C6E8C806F74
:10249000907B6C9E7276926D7B9A6A75A15895833B
:1024A0006C9961A2637D9C55A0728A698F8858A639
:1024B00069946B7C96658C90607FA1599D6D7D942D
:1024C00068837B946697687DA743AB7863B152902D
:1024D0008969947C698B8D6C8B78857F7794609407
:1024E0007E7A79888763AB50968E54B1598A8D680D
:1024F00093797A887A7C95638A8B6D8197667DA3C0
:102500004FAB6678A74CA4747C877D8562AD6472FE
:102510009F6C8B77818572908658A4767B8D63A1A2
:102520006F866A9C72779C51B25D889851AE637ECB
:102530009D617DA06378A15F947775A05D8D8B5FB1
:10254000998B5D879A5C9A7D61AC5D8F8272936D89
:102550007D8F73887B749A7082827F777B9D5A937C
:10256000886998679D677D95699B5B9D6B84984F93
:10257000AC668C7F66B0508B9F52918D6C8F757A54
:10258000917671859D57977F66A56096717F906162
:10259000977484798A7278986E877A82817B847B3B
:1025A000817B8D678B8E60A85A967E69A35E957C31
:1025B000738392658B8A62A36F68A27B5DA677673F
:1025C000A168887F77985B957D7C83828064AE5517
:1025D000938665A45A947D76888966868D7289650E
:1025E0009E777A7B8387788C5D9F78749756A66BED
:1025F00079946A8C7B896790847489758B728C7BE3
:1026000078877889709862908A5CA5678A7F7A82D9
:102610007F7F7A93619E708090658E8770799D60D0
:1026200092797A9555AC716D996D8D748E6991889A
:102630005BA56A927276986D848B786D9D6A8D7AAF
:1026400072A360828B88648E8B5FAB57977B6FA180
:1026500057A2688E797896609C73837D7F8574918C
:102660006E887C8A7479966B96628A8B797F7B8977
:102670007884709D67878D5FAB667A947678868E56
:1026800060A06A848A69A2618488867676995DA74B
:1026900069769B679B60947C7096768665A06A835A
:1026A0008E64A06B7993767A906392866B9E599430
:1026B00086669972847F8569918372965E9C777035
:1026C0009C63917D7F7390777F9058A86F778F7907
:1026D0007C7D828285689D6C8588708B7E817094FC
:1026E000738185768A6E8B8668996E83877C7788FE
:1026F000806AA85A8B896A98688790716BA26A7DF4
:10270000945C9D83638B87807C76818F69957B69E0
:10271000A65B967680866F906B986D8583749462C5
:102720009A7279945E9E7480807C88689D6789889F
:10273000689A6F779866888E609776887B7B8475B9
:1027400096609878788F689776749073897D767E96
:10275000986C74996C8D7979837F8E757094817083
:102760008C7B7B8A7C6F91826F926C8F7F68A5686F
:102770007B93649B6F8488747E828A708B7781855B
:10278000758E727F8E767593797D886A8D88768551
:102790007E7B8D6E868C679B6E8098618C8B6F7F45
:1027A0009267908764A1649183659C6F877E86722F
:1027B0008A8665A06B8D7E6D986C81946E71A16622
:1027C000838C74868184689973868068A65F928200
:1027D00067A16395747697787579967284807698F8
:1027E000618F846B9C71748C8A6B96736EA3608C02
:1027F00085748C6F7F98697F945EA26F76927383E5
:10280000769564907F7988709A6193767A926C93CA
:10281000639D7867A364907682836F90846F7D94C4
:102820006B9173818E717D7C956E8A7679956B91B3
:102830006F858969927C7C83876690856A957386AB
:102840007C7C8C6A8E7C856F8A846E9E5A98777A9F
:102850008F68947777868C69957577946E9072857A
:1028600078897E709C6394767A975C9C77788C7C70
:10287000777D965F937E7A88728D797E8784659561
:102880008765996D8C7B7A7E877D75965BA36D7964
:102890009A5F9F658D83718F75876D927B7D85763D
:1028A0008D718B7F6E9280767E8C708F77709E6339
:1028B0008F7D7D847A7F7F9067976D8B8070937614
:1028C0007F7D8B6C8C87708E718C7B7394718C7711
:1028D00086728D84679D6C916E829165947C7C80FC
:1028E00080817D817A8F7477936F8B82767D9469F6
:1028F000917A7597619D6988867B826F96758380D2
:102900007F827C8875848284787A937184817A8CC2
:102910006B90826C976C80985E9B7573A15A947EC5
:102920007D7F7E8B6A9773818872956B80956590A9
:102930007F72849368868B709367937B73937C72AA
:102940007E996887837B87757B898172906D888A81
:10295000729365908073916D927286748F7E6F977B
:102960006B956E7E9169917886738B7D7A8F649872
:1029700075759A66859262937E71956B8E7F728D66
:10298000797D7D8F6D858876896E957770986C8955
:1029900081787C868577857A877A7B8A76828B7444
:1029A000749A6D828A66A06B78976D8883767B9027
:1029B0006E8E797499658A86797B8971828D708A29
:1029C00078838471956B848A77886C9474877D6F23
:1029D0009B63917E74946B858E6896717D966197EA
:1029E000728A73858B659E688A8275946886867DF7
:1029F0007D867A739D6A7E8E797F798780827392D5
:102A00006D8689728F6E8E7D7C79898571936D86D6
:102A100085798B7289826F966F848A737D8D7982B6
:102A2000826D9E648D836F976B8F6F8E84669E69B7
:102A30008B8A629D737E8F63987975976394836B9D
:102A400091798572927677936E8F718C7D70947187
:102A50008A7C817C8086709473868072956E848E69
:102A600071759575838271947089768A7C7A8D6789
:102A70009A7086856B996E7E91757990707E926F53
:102A8000897A8086709270897F7A8770966B8E7D46
:102A9000719768917E6B9C727595698A85738D7646
:102AA00086788A737D9263987283876B9C6687872A
:102AB00073897C856F9376798D719072847F7B8822
:102AC0008271828B718D738B7C768F6F91728A7617
:102AD0007B92689A678C8270936D8E7883768A7EFB
:102AE000788E6D927385836F91718B708B81709AE4
:102AF00061927D758F758482798483758D6E907EE9
:102B0000788D6C90718C7A7790708E728786699AC6
:102B10006C8B7F788C6C99678A817B886C92767FCE
:102B20008A7A7094787497698E7F7A7D8B7B78909F
:102B300068927D7A89728F71848677897B81778E9E
:102B40007981817C88709073808679847790718D8B
:102B5000777699668E806F9B6880936A8D7E739678
:102B600075769079738D8769977773966D90747C7D
:102B70008E72897C856E917F6B9C698C7C78916E5E
:102B80008A807C7E857E7C847A8A77807E81877E3F
:102B900076828F6896727F906694797E858373853E
:102BA00088738F6D917978936B8E7C83778683732E
:102BB00095698A876C95737F8E6E858C6F87847913
:102BC00087797C8C7877927380897787708A8A6816
:102BD0008E836D918070868E688D82758F6C9374F4
:102BE0007B92757A87807C84768D7C7C7E83886FEF
:102BF0008F718A856B986C8B7F768D728A7B8078DB
:102C000088827A847C847A857F7C82837B779173C7
:102C10008A7D71976E818C7284886D907C759270BC
:102C20008784708C8371878A6C8E7F778C718F79A3
:102C30007690787C8683718B876B8A847A87728A98
:102C40007C7B906988896E9270848C737E7E8E7393
:102C50008380769568907C7396688E836D8D866E82
:102C60008589748A7884856D94777C8883757F8C58
:102C70006D95717F8F6C8F7B8085758487748B7663
:102C8000818977857A8A6F8E7F73956D8D78808F35
:102C900066927A81817E8274966B86837C8A708A42
:102CA000837486896D8F7E778C728C7B7E7F808B20
:102CB0006F9471808B70946A917A7A8E6F8D75861D
:102CC00077887F7D847391738782728D7B85708B0B
:102CD0008471916E9175808C6F8E7C7887817888F5
:102CE000778586767E8C7A749470818876877A84EC
:102CF0007F7D857C847B89747E9168907B7F8572E3
:102D000091747D8E75798D7889747E8C77857191BB
:102D10007680886C986D88856C996C8487798480BE
:102D20007E768D79827F7E86738E73857D7F8475B6
:102D3000906C927579906B8E7C7E808279838274A0
:102D400090738682748B7E738B836E93748481728E
:102D5000966C86827A847F837095727E8D6E927077
:102D60008485768585767F8B748A7489817C7C8165
:102D70008D6894757D8F6A956E87866F9271897B59
:102D8000837E7A8979857392747E8E6C907A807A4C
:102D9000897D7A8D6A9478798C7486807E7A897937
:102DA000837F7693737C8F777990747E8C748A7529
:102DB00087837091718C777F8870946C88817C8612
:102DC000758A7A7D8A787C8974897B7A8C79807916
:102DD0008E777C8F6B9278808A6A95757D8A7587ED
:102DE000807C7A8A7B7D85768B777E8B708B7D7DF0
:102DF000808182807D7A9071868278897587817FD3
:102E0000798A7981876F907A7B8A7C7C89738781C4
:102E100072976E828B728B7A83768D797A916993B1
:102E2000777E8A718B8572838B6F8F7978907879B2
:102E3000828A74867A80896F937086886F92728690
:102E40008576808483798876887E768F72887F778E
:102E50008E797C857F79878178897A80837686846C
:102E6000768781798680778A7B768E7A7A89798669
:102E7000798186748C7584827B817C8F6B8B817861
:102E80008B718C787F8A767B8B7E788A7585837A46
:102E90007E877D7D8475907087876C96708582793A
:102EA00086788A75887E7D857A847D837D7F808221
:102EB00080768D778284728C8374867F7D83768D15
:102EC000787B8F6E8C81768C7A7D8282768B7A7F0E
:102ED00085738F79778B7E7B8480758F757C8C75FD
:102EE0008A77828478858575808C6F8E797E867AE4
:102EF000837A8A748C74818A6E94708485758D71DE
:102F00008B7B807D8087758D708C7E788D718A7FBC
:102F10007D7D847F7C8776868178897884837784B9
:102F200089718A7F7790708A7D807C8681758F73A6
:102F3000897B8184748C74897982817A8876877C94
:102F40008084758A7A7D897F7787837889738C7E80
:102F50007B80808B7387788582788D708D7B7B8971
:102F600077867D81778B7B7A8A758C728682778B68
:102F7000738C7684827B88768977867F788A7D7960
:102F8000887E7A8D7089817B8678837C8C75818937
:102F9000738D75877E798B76877C85778487718A38
:102FA0007C818276877F7C87787B8C7A7D85778928
:102FB0007D7C82837A8280798E708C7D788E708918
:102FC0007F7D81837B7C8A79847E8182788B768108
:102FD000857D817A8A74897A7D8A72887B808180F6
:102FE0007A867F7B8A75887D7A887D79897B7C88E3
:102FF0007C8379818871887F7A877884798C7482E0
:1030000087758C7486817B847E7D857B80857885C1
:10301000807D7C88788087728E797B8E6D8D7D79BE
:103020008D728A7D7D7E8185798678887B7C8B73A5
:10303000897D7E7E83847B8577897C7E837E817C8F
:10304000838181788977828A7089817A8087778481
:1030500084758D738980778B79847B827C8387707C
:103060008D798084768B778287778181847B7F835B
:103070007B8777808B74897D798B758C787F8A725A
:10308000887E817D827E7E887884817C887585813A
:103090007A877F7D7F8677897B7C8B748584788730
:1030A0007C7B8C76838771898178887E7A86807B29
:1030B000857C847B80887583837E7E817F7C8A7417
:1030C000887E7C89758581798682758980788A7603
:1030D0008585787D897C7E87728D7A7A8E6F8B7EEE
:1030E0007A867E837988778581798977877B7D89E0
:1030F000738A7F788A7880857D7B867E7B867984DB
:1031000080788780788A7584827A867B807F8479CC
:1031100086807B8774897E7B837E86768A788288A8
:10312000708B7B827E7E847B847D8378887D7F82AA
:103130007C867C7E7E8878857E7B8B728C7B7D898D
:10314000768976887E7E83778C74887B7D8A728C84
:103150007A7F847F7F7B897885817A867E7C838174
:103160007C8578897B7F86748E7781827C83798A5F
:103170007783837B8678867E7B8A7784807D7F8554
:10318000798286778A768482798780797F8B738942
:103190007C7D8778867B867A85798186758E738734
:1031A000817B87778A78847B828476897B827F7F24
:1031B000837B8679857D8184778C748583778A7912
:1031C0008287748586738B7C7E8877877B827D83FC
:1031D00081788C73897F798A75877E7C877A7C86F3
:1031E0008376867F80817B857A83828178877F7CE6
:1031F00087758C7B7E8579897B807D877C7D8972D4
:103200008D78808479857D817A8A788086798877BF
:10321000877D7C877A8678877C8084758B7A8083AB
:103220007C82807C857D7D86788A7882827B847BA7
:103230008777867E7B88768B787F88748B7B7F7F91
:103240008181768D78808676897981877680897686
:10325000818579877B817F827E8181798C75838668
:10326000758B78838379877E7A83827B857B837F66
:103270007B897584817F7D8183768C768384788851
:1032800078828675838576887B7D887883817F7E4A
:10329000867B7F8579837C82847785807D837E8130
:1032A0007B8A7880857C847A857E7C887C7A887D20
:1032B0007D847C82817C81817C867E79887C7E860F
:1032C000758A7C7C897683857A7D887B80827B8801
:1032D00076858178897A827B8581778A7A837E7FF9
:1032E0008379877E7C877C808478887C7D837E7FE1
:1032F0007F887784837A857B857D7B897B7C887DCD
:103300007B887C7A897A837F7D87798285798085BD
:103310007B847D827F7D867A867C847D7C887687AF
:103320007A8185768A7A81837C807F847C827D84A1
:103330007D7C897784807F7E8085778A7980867698
:10334000887D798A7B7E867B827E81837D7D848079
:103350007A86807A877C80827C867883827C818171
:10336000817A887B7E857D837C81817C8381788660
:10337000807B8579877C7F827D8679867A84807B55
:103380008876877C7E847E7F7F8578857F7D837C41
:10339000847C80857B80847F7A867C808576897B2F
:1033A00080847A857E7C84807B877784827A86801D
:1033B0007C7F887883827A8777857F798879837F15
:1033C000817C808577887C827E7E847C8180827B04
:1033D000867D80827E847C817C867D7E8677897AEC
:1033E00083817B8878867E7F81817F7D857B857ADE
:1033F0008382798978847F7E837C857E83798284C9
:1034000077887C7F867981867982827A887C7E85BE
:103410007E7D82827A867D807F7E887783817C84B0
:103420007C857B867D7E867A867A837F7F82817F9C
:103430007B8978847E7E8579877B847D807F7F858C
:10344000798879848279867D817F807D82837D827F
:103450007E817F81817C847B837D81837A87798370
:103460008279887D7E857C83807C867A838379845B
:103470007F7E7F857C7F8578877B7F867885807D52
:10348000808379838377887D7F8578877D7E877A3F
:103490007F857E7E827C847F7C847D827C827E822E
:1034A000807F8479887A83817D857C7F81827C831B
:1034B0007D808577877E7E847D807F837C857C7E12
:1034C0008779837F7D837D80837B837E7E83807EFF
:1034D0007E8579848378887C808379887A80837BF1
:1034E000867A837E81827A857E837C7F85788680DA
:1034F00079877C7F837A857F7E7F81837A847F7CD6
:103500008679867E7C8778847F7D837F7C83817DBE
:10351000837C82807E827C82817F7F80847A857CAE
:1035200080827B867B83807A85807C847E7F837D9E
:103530007F82817B857E7E847A867D808379867C8E
:1035400081827E837C877A808479877C8184798577
:103550008279857E7E827D8180807C857E80827A74
:10356000877B818478867E7D857C82817C81827D5B
:10357000817F7F837B847E7E837E807F837A857E4E
:103580007D867884807D837F7E83807D847B847F3D
:103590007E827F807F847A847F7F837A877A83802C
:1035A0007D857A857B828378877C81807D857B831E
:1035B000837A82827C847A83827E817E847B857D0D
:1035C0007E8678877C7E857A857C81807F807E84FC
:1035D0007A857D81807D867A847F7F8080827B85ED
:1035E0007B82817E837C847D817F81817F807D84DD
:1035F0007D7F837D7F827F7F847D817F7F837B83CF
:103600007F817E7F817D867A82827C847C82807CC1
:1036100083817A84807C857B847E818080827C86A5
:103620007A83807D8579857D7F837C847E817E829F
:10363000807E837C847D80837B837E817E837F7E8E
:10364000857A847D80827C83807D82827B857C817B
:10365000837A857F7F7F827E80827D837D847E7E6C
:10366000857C837E817E80837B857B837F7E857B5B
:1036700082827D7F847D80837B847F7F81817F7F49
:10368000807E837D837E7E857B847D81827D827D3D
:10369000857C81807E827C847D7F827E827E827E2C
:1036A000817F81817C837D80817F80827D82807C1F
:1036B000867B81837C8082817C82807F817E847C0A
:1036C00081817E837D827D847D7F847C837D8180FA
:1036D0007F82807F7F837E817F7F837E80817F80EA
:1036E000827D837F7E857B83817D837E827E827ED9
:1036F00080827D837E827E7F837C837F807F8180CA
:103700007D847B84807D847D82807E81817D827EBC
:1037100080827C82807F80827E7F827F7F7F8380A9
:103720007C82807D837F7D82817C847D80827B859D
:103730007D80837F7E837F7F837B847F7E837F7E8C
:10374000827F7E857B82817B857C82817E827E807A
:103750007F827F817D7F837B847D7F827F807F826C
:103760007F817D81837C837E7F827D82807D827F5D
:103770007E82807E83807C84807C847D80827C8449
:103780007E7F82807E81817E827E80827F827E813A
:10379000827D83807D827F7F827C82817E807F8428
:1037A0007C81807F827E837C82807D847C82807F1E
:1037B0008082807F837C847E7F847D8180827E8105
:1037C000807F827C83807F81817E81807F827D83F8
:1037D0007D8181807F7F827D847D80817D837D82EC
:1037E000817D847E8180807F80817D827E81817DDC
:1037F00081817E827F7E847D81827D82807E8082C7
:103800007F80817D847D81827C847D80807F807FBC
:10381000827E827F808180827E827F80817F807FA6
:10382000817E837D7F827C837F80817F7F827F7F9B
:10383000827C847F7F827E8081817F827E81807E88
:10384000847C827F80817E837D837F7E837D837E77
:1038500080817E837F7F828080817E81817F7F8265
:10386000807E827D82807D847D81817D837C827F5C
:103870007F8080817D837D82807E837D827F7F804B
:1038800080807E827D827F80817F827D818080803A
:1038900080807F827D8180807F81807E827D837E2B
:1038A00080817D827E81807F7F80827D837E80811A
:1038B0007E827F7F817F7E82807E837E80827E7F0C
:1038C000837E80827D827F80827D847F81817E82F3
:1038D0007E817E81807F827E827F81817E837E81E8
:1038E0007F80817F817E837F7F817F8180808180D7
:1038F0007E837F7F817D82808080817E81817D83C8
:103900007E81807F827E8181807F827F80827E83B4
:103910007E80817E81817F7F827E82807F827E80A9
:10392000808081807E82807E837E81817E827E8295
:1039300080807F80817E817F80807F827E81807F8A
:10394000817F827E827F7F817E827F80817F808275
:103950007E817F7F827E81807F817F808081808069
:103960007F80827D82807F82807E81817D827F7F59
:10397000817E817F8081807F828080808080817F46
:103980007F827E81807E837E80817F817F80808137
:10399000817F827E817F80817F817F80817E828026
:1039A000807F817F7F827E81807F827E81807E8218
:1039B000807F827E81807F81807F80817E80807F0A
:1039C000808081807F817F7F817F7F81807F8280F7
:1039D000817F7F817F80817F7F827E81807F827FE8
:1039E0008180807F817F7F817D827F7F827E827FD9
:1039F0008080817E81817E817F808080817F8080C8
:103A000080807F817F808080817F817F80817E80B8
:103A1000817E827F7F827E827F808080817F827FA5
:103A200081807F817F80817E81807F80807F808197
:103A30007F817F80807F80807F81817E827F818087
:103A40007F817E817F817F81817F827F82807F8174
:103A50007F8180807F81807F817F817E81807F8167
:103A60007F817F81807F817E817F7F827F7F817F59
:103A700080807F817F8180808080807F827F808145
:103A80007F818080817F827F8080807F7F817E8137
:103A90007F80807F81807F817F80817F817F808127
:103AA0007F817F808080807F817F80817F817F8018
:103AB00080808080807F817F8080808080817F8106
:103AC0008080807F817F817F80817F817F80807FF8
:103AD00080818080807F817F80807F8080817F81E6
:103AE00080808080817F81817F807F817F818080D5
:103AF000817F817F80807F817F80808080817F81C6
:103B000080807F80817F818080817E817F80807FB7
:103B1000827F817F808080817F807F81807F817FA5
:103B20008080807F80807F807F8180808180817F96
:103B300080808080817F80807F80808080807F8087
:103B4000807F817F80807F807F817F808080807F79
:103B50008080808080818080808080818080817F63
:103B6000807F80808080808080817F80807F817F57
:103B700080807F8180808080808080808080808045
:103B800080817F8180808080808081808080808132
:103B90007F808080808080808080817F7F80807F28
:103BA000808080807F808080817F8080807F808017
:103BB00080807F808080807F80808080817F808007
:103BC00080807F808080808080808080807F8081F6
:103BD0007F808080808080808080808080808080E6
:103BE0007F80808080808080807F808080808080D7
:103BF0008080808080808080817F808080808180C4
:103C0000808080807F80807F817F808080808080B6
:103C1000808080808180818080818080807F8080A2
:103C20008080808080817F80818080808080808192
:103C30008081808080808180808080808080808082
:103C40008080808080808080808080808080808074
:103C5000808080807F808080808080808080808065
:103C60008080808080808080808080808080808054
:103C70008080808080808080808080808080808044
:103C80008080808080808080808080808080808034
:103C9000807E9BB1B6C0BCD1C4CDDEC4DFC196ADC1
:103CA000B2B09C9C7A77804D332F40291326141391
:103CB000312915081D361725453843492A3D5262DA
:103CC00065527F7683978C89A5CEA6BEC1B7E5D70E
:103CD000CCB3B4D7C1CDD0AAB5AEC5C5B8A575987B
:103CE0009884868B80616453524047645B37244FCD
:103CF00053404F40364E573F38605D5F816C655C86
:103D00005F8B977F878FA8B29099B0AD9B9FB7BC10
:103D1000B9B29394AFADA3A9AC92A0A68C8A8F83BD
:103D20006F596F7363817858485A69634B56685569
:103D30004B48516864615D6079605481796E9596F5
:103D4000877C6A8D9A7EA1A9A19391A5A8AA989D26
:103D50009C969D92A08C8A9E8A9E94797B7675898A
:103D6000827B6770826265625F6A6A5E516A726CAA
:103D7000676172757571647C8077647592848F8DCC
:103D80008F876F849A979AA5958D8F839C9A969C1E
:103D90009196886E8AA37C8E98888670827E797DC3
:103DA000637573768071665D787773706779736217
:103DB000647B79798976726E708C887F7E81978535
:103DC00082938D838B90838D948F898C8C8A898E3E
:103DD0008E898C8877757B878882896D6E798676E7
:103DE00074826B777B76726B6E6C737A677479749E
:103DF000817B8573728177878A827B6F818D8683D1
:103E00008E907F7B7E938A828C888B808587807E54
:103E10008988838173777D848179777B80777B7CC8
:103E2000776F6A767C7673807C6B807A79847B7915
:103E30006C6F83767D8E828073828B85817D848694
:103E40008881817E7B898687867F8689797B8F833F
:103E50007E847D7E7E7472787F727F8877807877AB
:103E60007F7B7F75747C7A7D777B7E7683807C7A9E
:103E70007481797187867F8284848287807E7E7F49
:103E800085828378819081808289827D7A7A898512
:103E90007E79717C887B8383767D7C777F81787760
:103EA000807B7C7978857A787C7F7E7A7F7D828042
:103EB0007C7980847C81807F7F847E7E8D818484F8
:103EC00081867F847E7C8282837A84867D7A7982F1
:103ED000857D787F7F7C79817E7D7F787E7F797913
:103EE0007F827681837D7E797E7D777B7D84817EF6
:103EF000847E86837B817D807F84827E887A7D85B7
:103F0000847E7C827F8684807A798081787C8481BB
:103F10007D7982827E7E757A80807B7A7F7B8182CA
:103F20007F7D7A7B7E7D7882837F847A78818381AE
:103F300080807C80817C81847F7F8180807C808583
:103F40007B7C82827F7F7E7D827E7C7C7B7F7F818B
:103F50007B8083787E81817C7B7F7D7E817E7B7D83
:103F60007D807A7E857F807C7E82817B767B867F6A
:103F700080857C7F7E7D82817B7A82847D82837D49
:103F80007E7E7E7E7D7C80837F7F7B7D82817C794F
:103F90007F817F807F7D7B7B7D80827C7F817E7F38
:103FA0007E7F7F7D7D7C7D817F81817D7C7F808028
:103FB0007F7F818180797C827E8082817E7D80800E
:103FC0007E7C7F83817C7D8180817F7F7D807F7B04
:103FD0007F807D7F7F7D7F7D7D837E7E82817E7EF3
:103FE00082807F7E7B807E7B7F837F7F817E8081DE
:103FF000817F7D82807D81817F817E7E807C8180CA
:104000007F7F7D7F807E7B82817E807F7F7F7D7CC6
:104010007E817D808380807E7D817F7F7D7E807EAE
:104020007E8080807D7E807E7E82807F7E80827E9C
:104030008080807F7F8080827E807F7C7F80808088
:10404000807E7F7F80807F807E80817E7E80807E7C
:104050007F7F7F8080807E7F817F807F8080808067
:104060007E7E80817F807F7D80817F7E7F7F80805C
:104070007F80807E7F7F7F80807F7F817E80807F4A
:104080007F7E7F7F807F7F80807E807F7F7F80803C
:104090007F80807F7F808080807F7F7F7E80818027
:1040A0007F7E80807E808180808080807F7F807F17
:1040B0007F808180807F7F7F7F807F8080807F7F07
:1040C0007F807F7F807F80807F80807F7F807F80F8
:1040D00080807F7F807F7F7F7F80807F7F807F80E9
:1040E0008080807F807F80807F807F80807F7F7FD7
:1040F0007F808080808080808080807F7F7F8080C4
:1041000080807F7F807F7F807F8080807F7F8080B6
:104110007F8080808080808080807F80807F8080A2
:104120007F807F808080807F7F8080808080808093
:104130008080807F807F808080807F7F8080808083
:10414000807F80807F7F7F80807F81808080808073
:1041500080808080807F80808080808080807F8061
:1041600080807F8080808080808080808080808050
:10417000807F7F80808080807F8080808080808042
:10418000807F80807F80807F808080808080808032
:10419000808080808080808080808080808080801F
:1041A000808080808080808080808080808080800F
:1041B00080808080808080808080837E7E837D86FA
:1041C000728785798578877B7F86748B7787777C04
:1041D00093679E6280A647989264986D7F925CA4D4
:1041E0006782946884818F58A2776AA26193777DF1
:1041F000905E968175877F78857E6E9D6B86895FE0
:10420000A36B73A5666DA26B868C58A17E70808DA2
:1042100073868461A864878F5CA06F817C897785B1
:1042200081699E688981798676897787797F8B64B1
:104230009D6C878962A162927F70976D7E906E827D
:104240008D72867C827E807F7C8971887F7A8C6784
:104250009973759A688E797E837F866A927B84765D
:104260008383758A83747A96688E7B7C8D6E8C6F5F
:10427000996F789468956B94727B966197767F833B
:104280007F7789826E9275837D80827888788C7141
:1042900083896D98678A876B94797B8975808A6A30
:1042A000986F808E6C8E71907183886E9270887B0F
:1042B0007F8A6A96738184758E6F926C868A708D00
:1042C00073887F748E7D70967475966C8B788082FF
:1042D0007B837A87718E777B90698C81748A7E7EEE
:1042E0007F8175897B7D857B8477897C7A857C85D8
:1042F000758C71868C6A91708686738A76828974D1
:104300007C8F70858079867E7A808D6A8D7E7291B1
:1043100070897A7D8B73847C897481876E947181B6
:1043200088748E708488718B7E77857E8182798493
:104330007E7B857C7D82866F8C7B798F6D8F7A7A90
:104340008976818180798779848075907186807E75
:104350007F7D8A6C93777B86768B75887E7C808167
:104360007A80887585807C86797B897C778A78815C
:10437000847986748C7E768877897A84787F897749
:104380008677888175887D7B89777E827E827C8432
:104390007A85797C8C74867D7590748383788F712F
:1043A00082807F807E7E7C857D817D837F7B867D14
:1043B000837A85787F8C7089778389728977818504
:1043C0007E78897F7885778B7E7782847A857E7800
:1043D000887C837B7D8B797C81837C837D7B8978E2
:1043E0007F817F827D7E857C7F8674867E7D8579D8
:1043F000867D7F7A84807F8474897D7A8B738984BB
:1044000075857D7D827F79838180807A867C7C86BC
:104410007E7D85797B867E807F788A7F78857B83A9
:10442000807687817A837985807B8281857486789E
:1044300082847689748C7C77837F85778576858680
:10444000738779888075857F7D857D78867D857B7E
:104450007F857D7B7C887A867B7988768A7980895E
:1044600076827A877D7D7E7C877C7F7C82827A845F
:104470007E857C807981867985758C7D7D7F7E8443
:104480007A81798D787D83798B7B7B8083787E863A
:104490007B847E81817A8C797A8182807F82758B20
:1044A0007A7B837D8B787B867E81817B7D867E7C1B
:1044B000807F83807885827D8475897D7B8B738AFC
:1044C0007F79817E857D807A8182807F7E827E82F7
:1044D0007E847F77847888817784778B7E7B7F7FEB
:1044E00082817B7B8C7883798487797F80847686D0
:1044F000798187758776848A718381847B7F7D7FCC
:104500008874857B878275848280808077877F7EB0
:10451000827A877E7B7C84817C83778879818575AC
:104520008D79807C7F837C80778A7C827A808A7494
:10453000837E837A7E7D7E8A76847B7D897B7E7D89
:1045400084807C7B878279827A8A7D7A7F86807775
:104550008479887F7C807B8C777E7E848372877A67
:10456000877F7A827C8A767D847C867F7A7F837F50
:104570007D7F80847E7983837F807783877983784A
:104580008386787F7D877C7E7D7F837D827D828030
:104590007C837E837F8178838579837687837B7E26
:1045A0007F857B7A838679817C8089797D84817817
:1045B000857A7D8978847A8388757F80857D817A04
:1045C000808D7281807C8A777F867C857A7A8482EE
:1045D0007F7D827E867A78897D837D7989788382E2
:1045E00079887D817F7D7E7F7C7D867C837E7B88D4
:1045F0007982817F827D7B848477837983887780C9
:104600007F857F7D7B868675827E8088787D8779B1
:10461000808178867F7E807A8C7C788380847C80A1
:1046200078898076867A8B7A78887B857E78857D96
:1046300082827C8082827682847E8277848478887B
:104640007A848477807F857E7D7C82837E7D7D8376
:10465000807E827F81827C7A85827D7E7D8085805E
:10466000788180837F7F8479827B83867A7F818152
:104670007A807C7F867C807C8188777F7F877D7E47
:104680007E7D8B75827D82877283827F837D798335
:10469000837E7B82837C80778A80798278887B8125
:1046A000827A857D87777F837C807A8381807E7E16
:1046B000847E82837B7E817B7D87807E7E7C887FFB
:1046C0007C7E83807E7A868574857B8484787C84F6
:1046D0008676827B84807C827A8B7A7B8084817AE6
:1046E0008378887F78837E88777E8381817F7D7BD6
:1046F000857F817A81847E7C7C887D7F7C80847BC1
:10470000857C81827C827C867E7F7C7D887B807DAF
:1047100082817C837F857D7F7986827D7E78897B9F
:10472000847B81857C7E7A8C7A7E807A8D7B807E8C
:104730007E7D7F8A78817C837E7D8D767F7E84827C
:104740007B8179897D7E827D89777F837F837B8072
:104750007987817B817D887A7C8282817F79848060
:104760007C857A867C7E7F858177817C83817D8054
:104770007E847C8084807F7D807887817C8079893D
:10478000827C7E817C837A7C8A7C817983867A8034
:104790007E8578827D7C8D77807C828874817E871F
:1047A0007C7F7C818876837C887C78858081827B15
:1047B0007A877E807E7C89787B8283807B7F7B8901
:1047C0007884807B8B77807E837F7C7E7D837F82F5
:1047D0007D80817C827D82817E7E7B897C7E7D7EE8
:1047E000897A7D8080847A798C7A7E7F7A8C7A7DD2
:1047F0007D887F78837A887A81817A8C777C8580BE
:104800008175867F827C7B857D88787C84808180B1
:104810007B7C847E817F7D877C798184807D7C80A8
:10482000817C8679828579817E82817C7B82817E92
:104830008379847F7F80808775837A868476847885
:1048400085837887817C8079878476827E81857B69
:104850007D837E77878378817E847C8188777F7E65
:10486000887B7D807B8C777F807E8B7280857C8847
:10487000787B857F807F7F8183787E867D837B7C4C
:10488000887983827A887C7B83867B7D7F7D877B2A
:10489000827F7D8678847F81837C7B7F817E877920
:1048A0007B887F7F7C7F867D78867F837E778A7F0B
:1048B0007F7C837E7C83778A7D7D817A8B7C7B8005
:1048C00082847A8279888178847C877D7B838180E9
:1048D0007F7986827A807E84807E7A82847F7F78E8
:1048E00084817B867B81857B7F7F81807D7B817FCF
:1048F00081827A857E7F847B84807F7783867B81BB
:104900007986817B7C85837B7E7C8A797F7E8086AD
:104910007B7C808A787E7F7E8879817B8485777EA8
:104920008088787E81818078857E82837881827D8F
:10493000857C77867E81827C80877B78857F827D7F
:1049400077887B7F8478897D7E7B81857A7F7B8475
:104950007F80817B867C7F7F848179817B8A7C7D5F
:104960007F7B8B7A7B8181817C7C877C79887C864C
:104970007E7E7F80817A857785807C87788A7D7A44
:104980008080847A8377897F79827A8B7B7C80812F
:1049900082817C7B867C837E7D88797F7D82867820
:1049A0007D838478867D7F89758180837E7E7B7F11
:1049B000857B847B837F7D857D857D817B7C847EFB
:1049C00088797C887E807E7D867B7E867A827C81EB
:1049D000857A817A87837A807A897D7E7E7F8B74DF
:1049E000827E84827983798C787E817F87778080CC
:1049F000867C817A848574867C877F7B7F7F8879BB
:104A0000817A828479867E7F857D7B82817F7D7BB2
:104A1000857F807F7B887D807D80857C7F79898094
:104A20007B82798B7C78857C877C7986837C807C93
:104A300085847780848278827C838176877D868076
:104A40007782828479817B858078847F867A7A8573
:104A50008081817B7C84807F7D7C887D7C7F7F8260
:104A6000827A7D8678857E7C877A80807F847E7856
:104A700082847D807C82837A837E837E7D7D7F8934
:104A800074807F8187778081828079828478817F3A
:104A9000867F7C7E80867780827C857C7F7E7E8B15
:104AA000767D80808779807C897B7B827D8A757D1D
:104AB000867B85807682827F817C82837D7C7E8BF3
:104AC000787E817D8778857B8483768282827C7EF6
:104AD0007C847E817F7F837C837D847F807D7989D8
:104AE0007D7F7F798A7F7A827A83847585837C80D3
:104AF0007D84807F7982837F847880847E827A85BA
:104B00008576817F867C7F7D828675847E858077B1
:104B100084817F837C79887C837E808877817C8593
:104B2000817D7F7C867C81817987827B7E817F818C
:104B30007B7E847F817C81847B81817F818277857C
:104B40008579827884857A7F7F827F7B7E897B7E70
:104B50007E7E877E7C7C8A7C7D807C8677847E7E60
:104B600089777E7F867F7B817A8C777D837D8A764D
:104B70007E847E83827682837E817A84817E7A7F40
:104B8000867C837881837A887885847A817E827C2A
:104B90007F7C85817D8079877C7F827E847B807924
:104BA000868379817C877F7E7B83827D7B8187770B
:104BB000827B84857980828176847F80827B8579FF
:104BC00086807A807B897C807C808775827D8482E8
:104BD00076828280817D7A83837C7F7F847F7C7DE7
:104BE00083827F7D7B88798282788C797D7E8283C7
:104BF0007A807B867E7F7F7E847B857F817C7E82C0
:104C00007C887B807C7E897A7F7E7F827F7D887CAA
:104C100079837C897D7A83847D7B837B877D7D809E
:104C2000798A7E7B7E83837C7F7C89787E847A8B85
:104C3000787C8480827F7C7C887D7F7E81847B7E83
:104C40007F84807F7A828479887A83837A837B8861
:104C50007B7F7D7F8977837A85827A867E817B8060
:104C60007D84857A817A82857B7E8281807B7F8A42
:104C7000797E817D887F7F7E827C827D7C887B813E
:104C80007B838776827E867B7C817E8975827E842B
:104C90008376827E81837C7E8381807C7F847F7D1E
:104CA0007B84837D7F7B84817C857B837F7C847E0A
:104CB000807F7C7D83807F807E83807D817E827FFC
:104CC000797F84807E7F7985827D817E817A7E84F2
:104CD000837A7F808382797E877E79837A8A7D78E2
:104CE000847A8A7B7A82818479817B868275857CCD
:104CF000868077837F8083787D867B8080818081BA
:104D0000797E877D827881837A877A8286797F80AF
:104D100081817D7B82817F817E81807D81807D819B
:104D2000807C84807C817B83857880818080798190
:104D3000847F7C7D837F837B818478847C7D887A7B
:104D4000827C80887C817984807F7D7C8B777F7F6B
:104D500081887580847F837C7C83807F827D848151
:104D60007B7F7F82807F7A867E7E8578887F7A824D
:104D700081827D7D7E8280817D81827C8281847B37
:104D80007F7F7D8879817E7D85808379808480772F
:104D900085817F8079877D827D80817B827B828314
:104DA0007F807B88807980818579827B8583778409
:104DB0007C887D7A838181827B7E847E83798681F3
:104DC0007C7F7C897C807D7D8779847E7F837C86E7
:104DD0007B827E7D7E7E857F807B83817D827E81DE
:104DE000807F7A7F84807E7B81857D7D7E857E7ECF
:104DF0007C868079817D887D7A82867B7E7E7D85BA
:104E00007D827B8286777F7F867D7E7E7D8A7482AF
:104E1000807D867985807F827E7B7E84807D7D8299
:104E2000827E7983847D807B83807E857985817C89
:104E30007F7E847D7F7C82837D7F7C867C817F7F7B
:104E4000857B807A867E7F7F8085758181837C7E6D
:104E50007E828675837C82847785817C7A847D825C
:104E6000817A847C877D798480827A82798286794E
:104E7000837B877F78837F837E7F7D7E877C7D8039
:104E800082827C7C84817E7D7D8779857E7F87752B
:104E90008180857D7D7E7D897A7F7E7F8579848115
:104EA000817C7D7F7E8879817C8286797F7E847F0C
:104EB00082798182807F7B887D7E7E817E7E807B01
:104EC0008282817B7F887A7D7F84817D7F7A887CE6
:104ED0007F817E86797F8281817E7B82827D817ED9
:104EE00082827C7C897E7A827B84807C867A8780C1
:104EF00079837F827D7F7D81827F837A85807D85B6
:104F00007884817C807C877D7E7C838678827E82AB
:104F1000837781867A817C8285797F7F877B7F7F9B
:104F20007E867A837C8384797F838279827B858283
:104F300077847D877A7B838082817C7C827E837F7D
:104F40007F83817C7B8580817B7F837C88787E8664
:104F50007D7F7A84817E7C7F837E827D7F847A815F
:104F60008081827C7F7E867C7D807E857F7A858045
:104F70007D7F7B897C7E807D887C7D7E857C7F8437
:104F80007A817A84817A8A7B7E7F80827C807A872C
:104F90007E7F7E7E88797E8081817F7D7C847F7F1D
:104FA000817D847F7883817F827983807C857B810A
:104FB00081807C838577817D81817E817D827E7EFB
:104FC0008181827F7D7E827F827F7A84857A8080E4
:104FD0007A867D7E847B887980847C807D837B83D8
:104FE0007B7E877C817C8385797F80847E807C80CA
:104FF0008877837C848377847F837F7E7B84807EB5
:10500000827B877C7B8081837D7F7C867C7F8479AB
:10501000867E7D8180817F7C7F847B857D7E857A95
:10502000857C82827D7E7B887E7E7E7F847F7C7E87
:1050300084807F7B86817C7F7C867F7E7C83867874
:10504000827A85817B837A8A7B7D8080867A847D63
:10505000827C7D837D857B808181817F7E7B857E57
:105060007F827E847C7D7E83817E7D7E847B857D48
:1050700080867B7F7C847F7E7C80827D827C827F39
:105080007F827C88797F7E808579837B83847A7E2A
:105090008182807D7D89777F817F87788180807A1A
:1050A00081847C827D837E7F87797F7F847D7E7E05
:1050B0007C89778080808777808082817F7B8084F5
:1050C0007C837D81837B7F7F83807D7B847F7E85E6
:1050D00079877E7A8282817B8179867F7D827B86D9
:1050E0007B828080817D7F7A848081827786827ACC
:1050F000817C848078877F7D817A86807D807D80B9
:1051000080837983827D8179878277837E83807EA5
:105110007C828676837D858176877C83817A818295
:105120007F7A838280807A80857E7F7D7D857D7F8A
:10513000827D857B7F847D7F7F7D7F837E837D8075
:10514000837C837C81827E7D7D857E807B80877A67
:105150007F817F84797E867F7F7E7E867F7A7F8651
:105160007D7C817C877C7D817E877C7C80877C7D4B
:10517000807F8679817F83827882818180807B8035
:10518000867B80807E877A7B857E82807984807C26
:10519000867A848479808082807E7C81817F817C14
:1051A000847F7D8280847B7F7E84807A817D877E00
:1051B0007A8280827F7984817C857A8681798082F7
:1051C000827A827B81857B807C8583797F82817EE8
:1051D000817985807B817C877F7B808180837D7BDB
:1051E0008480817D7F83807C7D83807F7D7F837EC3
:1051F000807C80877A7E7F83807E7D7D847D827CBB
:1052000082837A847D847F7B817A86807E7E7D879F
:105210007D7E7F7C82807C877C7E7F7E867B7E7F9E
:10522000847E7D837B83807D7E7F877D7C7F848180
:105230007D7E7D867C7F7D80867B7E80847E807C7B
:105240007E867C807C84817B807D867D7F7D808363
:105250007A857D7F867C7B83817E7F7C81827F7F58
:105260007E837E7F817E827F827880847D827A8544
:10527000817A818380807B828679827B81857C7D37
:105280007E877C807C80847B857B838577817F851E
:105290007E7D7F80857A817F84817A7F85807E8014
:1052A0007B877F7E7F7C857F7E7B83817F80798605
:1052B0007C81827A877E7F7D81807F7D7D887C81F5
:1052C0007C7F857C837C84807D7E7C877D7F7E7EE9
:1052D000897A7E818085797F837E827E7F83807FCD
:1052E0007D837F79857C847F7D847A897A7D8080C7
:1052F0008776827E837E7A837E867A7D83817F81B4
:105300007B7D887B817C81857B807B887C7D807DAB
:10531000857A857D7E87797F80827F7D7D7F837E94
:10532000817E81807E827E847A7F7E808778817C88
:10533000848478827E827F79887F7B807F82808070
:105340007982877A807D7E867C7F7E7F877A7D806A
:10535000847F7D7F7D867982827D88777E837D854F
:105360007C7B8480807D7E857E7F7B83837B807C4D
:10537000847E7E837B84807C7F82807F7D7E857E31
:10538000807D7E867C7F837E7F7F7C83847A817E26
:105390007B86807D7E81827E7B84827B807F808312
:1053A0008179857F7E827A837D81817C877E7B8106
:1053B00081817C7F7D848079847D867D7A857D83F3
:1053C000817982847D807D82827D7E7E857F7F7DE6
:1053D0007F847B847E7E837E817E827D7F7E7F84D0
:1053E0007E807E82807F817D81817F7A83837E7FC4
:1053F0007D8182817C7F83817A80837F7F7E8084B0
:105400007F7A83847A817D828679817E82837A81A4
:105410007D84807D7F7D877B7D837F827C80827F92
:10542000827F7A81827E81808180807982837E8181
:1054300079857F7F837B867F7D7F81817D7E7E8175
:1054400080807F7F817E818080807F807C877D7E61
:105450007F7C887C7C82817F7F7B87807B807E874E
:10546000798081817F7A867B81807E817B877E7E49
:105470007D80837C817B867C7D837D877B7B838035
:1054800081807C7E827F817E7F847E7D7F81817F23
:105490007D7D857B827F7D877A7F8181807D7D8018
:1054A000817F817C837F7C857E827B7E807F857906
:1054B000837D80827F837B807F7E80847A817D7FF5
:1054C000867D817C817E807F7B8381807D80857DE0
:1054D0007D7E857F7D807C887A7E808085798081D5
:1054E0008081807A82817F817B877D7E7E80857BC3
:1054F000817B81827C847C82807D877D7D807F7BB7
:1055000083827E807C867E7F807F817D807B84829B
:105510007D817B85807E7F7F837D7F7D867D7C8096
:1055200080847B7E83807B827B848479827C857E81
:105530007B8180857B807F828279827E847E7B8472
:10554000817E837E7B867B7F7F81837C807C877F5F
:105550007E807B857C82807D857C808180817F7D53
:105560007E83807F7D7F837C837E81817D7D7F853F
:105570007D817C8383788280807F7C7F847F7D8136
:105580007C857F7A85837A80807D847C807F7E881D
:105590007A818080807C827A857F7D817F857B7C1B
:1055A000827F827F7C8080837E7B83807F7C7E8401
:1055B0007E817C81817C867A8383788080837D7EF6
:1055C0007D81817F807F80807D81847B7F7F7F85DF
:1055D0007D7F807C857E7D817F817F7D7F81827ED6
:1055E0007F7F81817C827E7E847C7F8181807A84C2
:1055F000837A807F847D807C818677827F828179B7
:1056000082817F827D7D847F7F807F81807C7D869B
:105610007E7F7E7C867B81817E857A7F81827F7E94
:105620007E7E827F827E7F827C81807F81827B7F83
:105630008280817B7E857F7C7F81827D7C857F7D72
:105640007F7F82807C7D867E7E7F7E837E807F7E64
:10565000857C7E7E867F7C817C887B7D827C857B51
:105660007F847D83807B817D81817E81817F7B8141
:10567000837F807B82817D857983837D807B84802D
:105680007E7D80827E817D83827C7E81827F7F7B26
:1056900084807F7F7D867D7D7E857F7E7D80857A0F
:1056A000817D82837C7E83837A837D7F807D847D00
:1056B000857F7A8280827B817D7F837A837E8281EF
:1056C0007A807F81807E7E7F847E7D8080817D7DEB
:1056D00082817F7F7C857C80827C847D817E8282CA
:1056E0007B807C847F7E817D847C818081817D7EC6
:1056F0007F857C827B80847D7F7D8280827B817FB1
:105700007F847A827F7F7F80817C837A83817C81A2
:105710007D877C7D7F81837D807B84807D817C858E
:105720007C7F817F827D7E7E827F7F7F7F837F7B88
:1057300082837D807B81847A857C82827A82808369
:105740007C7F7D80817E827C81807E837A81827F66
:105750007C80837E817A84817E7E7E83807E7D864E
:105760007D807E7E8779807F84807D7F7D867C8141
:105770007C828578817E847E7D7F7F847981808232
:105780007F7B8280827F7E7E80817D81827F807D23
:105790007C85807F7E7D847D827F7B877E7E7E7E12
:1057A00083807D7D847E827E7D857B83807F837CFC
:1057B0007F7D867E7D817D877C7D8280817E7D84EC
:1057C0008179837E84827A8082817C847E80807DE0
:1057D000837E857D7B8181827C817D847F7A847ECE
:1057E000867D7C817E827F7F7C83807F817D857EBC
:1057F0007C817F81817A80837C837E7F827E7E80B4
:10580000837D807C81847A807E81817C837F847D9E
:105810007F7E7F857A828180837B81817B827D8090
:10582000837B817E80847D7E807E7D847E7C827F82
:10583000827C7F867B7E8081817F7E7C877B7E8170
:105840007F85797F827F827E7C82827E7E7F837F5E
:105850007D7F80837C807D827F7F837C867B7E8052
:1058600081817D7E7D8280817D7E838080817D7E41
:10587000847C7C847F807F7C86807B827E82827930
:1058800084817D817B84817E7C82827C807C84801B
:105890007D817B877F7B827D867B7F8180807B8211
:1058A0007E857D7C838081817E7B85807E7F7F83FA
:1058B0007F7C80837F817D7D837D827F7D857D7EF2
:1058C0007F8180807D7E827F807E817F817E8083DC
:1058D0007C817B82837C817C82847C7E8081817DD3
:1058E0007D877D7F807E867B7E81827C7E837E83BA
:1058F0007D817F7F857C7F80837D7E827C857C7EB1
:10590000827F867B7E818181817C7E847E807D8298
:10591000807E7D80857D817B82827E827B85807B8F
:105920008081837D807D82817F817C857D7E818079
:10593000827B7F7D8380807F7B86807E7F807E7F71
:105940007E82837B817C84817C8080817A857F7E5E
:10595000827B827B85827B807D867C807D81847951
:10596000827C84817A827E83807F7D81827C807D3F
:10597000857E7D7E81837C807C847D81807D857D2C
:105980007E7F837E7D807D827F817F7F827D827D21
:10599000817F818179847D817D7E857E7E80827D0F
:1059A0007F7D867E7D817B867F7D7F83807C817C01
:1059B000857F7D817D867D7D7E83817C807C867BED
:1059C0007D817F857A8080827F7E807D877C7E82DC
:1059D0007E847E7C81827E7F7F7F827C837E8184C9
:1059E0007B7F80817E807C81837D817B82817C82C4
:1059F0007F837D7F7D81847A827C83847A817F81AD
:105A0000817B80837F817C7F867D7E80817D7F809E
:105A10007E857B817E818579827E83807B81818288
:105A20007B817E828379828180827D7C83827E807D
:105A30007E82827D7C82817F7F7D827F7F837C836B
:105A4000827C7E81817F7E7D83807E7F7D847D815F
:105A500081808279827D82827D807D857F7C80804D
:105A6000817D7F857C7D817E847E7E7F83817B823C
:105A70007D84827B817C85807B807F837C7F7E832D
:105A8000817A827F83807C7F827F817C7D8380801E
:105A90007E81827E7C80827F7F7D80837C82807C11
:105AA000867C7D8181807E7D81837C807C82827CFE
:105AB0008180817E7E7E80837D807D80847B7F81EE
:105AC00081807C80837F7E7D8280827F7B847C81DD
:105AD0007E7D847D837C7F857B7F7F827F7F7E7FD1
