:100000000C943E000C9450000C9450000C94500042
:100010000C9450000C9450000C9450000C94500020
:100020000C946F000C9450000C9450000C945000F1
:100030000C9450000C9450000C9450000C94500000
:100040000C9450000C9450000C9450000C945000F0
:100050000C94BD010C9450000C947C010C94500045
:100060000C9450000C9450000C9450000C945000D0
:100070000C9450000C9450000C94500011241FBE9E
:10008000CFEFCDBFDFE3DEBF28E3A0E0B8E301C0E0
:100090001D92A331B207E1F70E94FD010C94C20248
:1000A0000C9400009FB7F89480931708809115086E
:1000B00086FFFCCF82E080931408262FFB018191FC
:1000C000809318088091150886FFFCCF8E2F821B25
:1000D0008417A8F383E0809314089FBF08951F92AC
:1000E0000F920FB60F9211244F925F926F927F92F0
:1000F0009F92AF92BF92CF92DF92EF92FF920F93B7
:100100001F932F933F934F935F936F937F938F939F
:100110009F93AF93BF93EF93FF93CF93DF93CDB7AD
:10012000DEB72897CDBFDEBF20911138309112384D
:1001300040910F385091103880910D3890910E38C1
:1001400060910B3870910C38860F971F240F351F64
:10015000211540E1340710F02FEF3FE0220F331F4D
:10016000F901EB56FA47008111818115A0E19A0748
:1001700010F08FEF9FE0880F991FFC01EB56FA47B4
:10018000C080D18083E0E82E88E3F82EF0E0E0E044
:10019000912C8091280490E00E2E02C096958795B0
:1001A0000A94E2F7D7014D915D917D015C01B1E0C8
:1001B000AB22BB2480FF8EC09A0120953095D801D8
:1001C0000E94B3022C0166247724C201892B09F016
:1001D00052014F3F540741F0D70112974A0D5B1D62
:1001E0004D935C93992493943196E430F10589F60C
:1001F000992009F449C08091033890910438292F3F
:1002000022952F70298324E0969587952A95E1F70A
:100210008A838091053890910638292F22952F7076
:100220002B8334E0969587953A95E1F78C838091FE
:10023000073890910838292F22952F702D8344E09C
:10024000969587954A95E1F78E838091093890912C
:100250000A38292F22952F702F8354E09695879581
:100260005A95E1F7888748E0BE016F5F7F4F809124
:1002700002380E94520088E0898341E0BE016F5F2E
:100280007F4F80E00E94520081E080930B0A289605
:10029000CDBFDEBFDF91CF91FF91EF91BF91AF91C5
:1002A0009F918F917F916F915F914F913F912F918E
:1002B0001F910F91FF90EF90DF90CF90BF90AF9084
:1002C0009F907F906F905F904F900F900FBE0F9018
:1002D0001F9018959601DA010E94B302009749F029
:1002E0004115510509F480CFD7011297481B590BCE
:1002F00077CF81E090E0F4CF1F920F920FB60F926C
:1003000011242F938F939F93AF93BF93EF93FF93FA
:1003100081E080934B068091500690915106E091C8
:100320000138AE2FB0E0AF56BA472C912730D9F044
:100330002830F1F0EF5FE370E0930138F0E0EF5622
:10034000FA4780818093460681E080934806FF91BA
:10035000EF91BF91AF919F918F912F910F900FBE11
:100360000F901F90189580930F3890931038E2CF1C
:1003700080930B3890930C38DDCF1F920F920FB6FD
:100380000F9211242F938F939F93AF93BF93EF936B
:10039000FF9381E080930B068091100690911106E7
:1003A000E0910038AE2FB0E0A357BA472C9124302B
:1003B000F9F0253021F48093113890931238EF5FD3
:1003C000E370E0930038F0E0E357FA4780818093D0
:1003D000060681E080930806FF91EF91BF91AF91EF
:1003E0009F918F912F910F900FBE0F901F90189596
:1003F00080930D3890930E38E2CFCF93DF931F9206
:10040000CDB7DEB7F89411E088ED84BF109361009A
:1004100080EC8093023882E0F82EF092010494E0A0
:10042000E92EE092010400E100930102109213080A
:100430008CE08093100885E08093160810931308D1
:100440001093150842E06BE875E880EC0E945200BA
:1004500041E06AE875E880EC0E94520042E068E8FA
:1004600075E880EC0E94520080E8898341E0BE017B
:100470006F5F7F4F80EC0E9452001092000A8FE065
:100480008093050A8FE39FE18093260A9093270AC1
:1004900010930A0A1093000A88E080934104809127
:1004A0001404887F809314048091140484608093E2
:1004B000140480911404877F8093140480911504A0
:1004C000887F8093150480911504846080931504BF
:1004D00080911504877F8093150410920006F09296
:1004E000010697E590930206009303061092050615
:1004F00010930A06E0920606109300061093080671
:1005000080915104887F80935104809151048460CC
:100510008093510480915104877F8093510480918E
:100520005204887F809352048091520484608093A7
:10053000520480915204877F8093520410924006A7
:10054000F0924106909342060093430610924506AE
:1005500010934A0687E08093460610934006109356
:1005600048067894FFCFA29FB001B39FC001A39F1C
:10057000700D811D1124911DB29F700D811D1124DC
:08058000911D0895F894FFCFCE
:10058800A000CF0006041F051F071F081FFFFF68F4
:10059800FFD2FE3CFEA6FD11FD7CFCE7FB53FBBF32
:1005A800FA2BFA98F905F973F8E1F74FF7BDF62C2D
:1005B800F69BF50BF57AF4EAF35BF3CCF23DF2AE79
:1005C800F120F192F005F077EFEAEE5EEED1ED461C
:1005D800EDBAEC2FECA4EB19EB8FEA05EA7BE9F115
:1005E800E868E8E0E757E7CFE647E6C0E538E5B171
:1005F800E42BE4A5E31FE399E214E28FE10AE18525
:10060800E001E07DDFFADE77DEF4DD71DDEFDC6D41
:10061800DCEBDB6ADBE9DA68DAE7D967D9E7D867C0
:10062800D8E8D769D7EAD66CD6EED570D5F2D475A6
:10063800D4F8D37BD3FED282D206D28BD110D194F8
:10064800D01AD09FCF25CFABCE32CEB8CD3FCDC6B6
:10065800CC4ECCD6CB5ECBE6CA6FCAF7C981C90AE5
:10066800C994C81EC8A8C732C7BDC648C6D3C55F87
:10067800C5EBC477C403C490C31DC3AAC238C2C59E
:10068800C153C1E1C070C0FFBF8EBF1DBFADBE3C2E
:10069800BECCBD5DBDEDBC7EBC0FBCA0BB32BBC437
:1006A800BA56BAE8B97BB90EB9A1B834B8C8B75CBC
:1006B800B7F0B684B619B6ADB543B5D8B46DB403C2
:1006C800B499B330B3C6B25DB2F4B18BB123B1BB48
:1006D800B053B0EBAF83AF1CAFB5AE4EAEE8AD8153
:1006E800AD1BADB5AC50ACEAAB85AB20ABBBAA57E4
:1006F800AAF3A98FA92BA9C7A864A801A89EA73BFC
:10070800A7D9A677A615A6B3A551A5F0A48FA42EA0
:10071800A4CEA36DA30DA3ADA24DA2EEA18FA130CF
:10072800A1D1A072A014A0B59F579FFA9E9C9E3F8E
:100738009EE29D859D289DCB9C6F9C139CB79B5CDE
:100748009B009BA59A4A9AEF9995993A99E09886C1
:10075800982C98D39779972097C7966F961696BE38
:100768009566950E95B6945E940794B09359930246
:1007780093AC925692FF91AA915491FE90A99054ED
:1007880090FF8FAA8F568F018FAD8E598E058EB22E
:100798008D5E8D0B8DB88C658C138CC08B6E8B1C0D
:1007A8008BCA8A788A278AD68985893489E3889288
:1007B800884288F287A28752870287B386648614A4
:1007C80086C68577852885DA848C843E84F083A262
:1007D8008355830883BA826D822182D48188813CC3
:1007E80081EF80A48058800C80C17F767F2B7FE0CA
:1007F8007E957E4B7E007EB67D6C7D237DD97C8F79
:100808007C467CFD7BB47B6B7B237BDA7A927A4ACD
:100818007A027ABA7972792B79E3789C7855780FCD
:1008280078C87781773B77F576AF7669762376DE79
:1008380075987553750E75C97485744074FC73B7D3
:100848007373732F73EC72A87264722172DE719BDA
:100858007158711571D37090704E700C70CA6F8892
:100868006F476F056FC46E836E426E016EC06D7FF9
:100878006D3F6DFF6CBF6C7F6C3F6CFF6BBF6B8017
:100888006B416B026BC36A846A456A076AC8698AE6
:10089800694C690E69D068926855681768DA679D6F
:1008A8006760672367E766AA666E663166F565B9AD
:1008B800657D6542650665CB648F6454641964DEA2
:1008C80063A36369632E63F462BA627F6246620C53
:1008D80062D26198615F612661EC60B3607B6042BF
:1008E800600960D15F985F605F285FF05EB85E80E6
:1008F8005E495E115EDA5DA35D6B5D345DFE5CC7CB
:100908005C905C5A5C235CED5BB75B815B4B5B1670
:100918005BE05AAA5A755A405A0B5AD659A1596CD3
:100928005938590359CF589A5866583258FE57CBF8
:1009380057975763573057FD56C9569656635631E1
:1009480056FE55CB559955665534550255D0549E8B
:10095800546C543A540954D753A6537553445313FB
:1009680053E252B152805250521F52EF51BF518F31
:10097800515F512F51FF50CF50A05070504150122D
:1009880050E34FB44F854F564F274FF94ECA4E9CF0
:100998004E6E4E404E114EE44DB64D884D5A4D2D7B
:1009A8004DFF4CD24CA54C784C4B4C1E4CF14BC4D3
:1009B8004B984B6B4B3F4B134BE64ABA4A8E4A62F5
:1009C8004A374A0B4ADF49B44989495D49324907E0
:1009D80049DC48B14886485C4831480748DC47B29A
:1009E8004788475E4734470A47E046B6468D466320
:1009F800463A461046E745BE4595456C4543451A77
:100A080045F244C944A1447844504428440044D899
:100A180043B0438843604339431143EA42C2429B8F
:100A28004274424D422642FF41D841B1418A416455
:100A3800413D411741F140CA40A4407E40584032F0
:100A4800400D40E73FC13F9C3F763F513F2C3F0759
:100A58003FE13EBC3E983E733E4E3E293E053EE099
:100A68003DBC3D973D733D4F3D2B3D073DE33CBFAE
:100A78003C9B3C783C543C313C0D3CEA3BC73BA397
:100A88003B803B5D3B3A3B183BF53AD23AAF3A8D57
:100A98003A6B3A483A263A043AE139BF399D397CEB
:100AA800395A3938391639F538D338B23890386F59
:100AB800384E382D380C38EB37CA37A9378837679E
:100AC80037473726370637E536C536A536853665BE
:100AD80036453625360536E535C535A635863567B6
:100AE80035473528350935E934CA34AB348C346D8B
:100AF800344E3430341134F233D433B53397337839
:100B0800335A333C331E330033E232C432A63288C0
:100B1800326A324D322F321132F431D731B9319C29
:100B2800317F316231453128310B31EE30D130B46B
:100B38003098307B305F30423026300930ED2FD18D
:100B48002FB52F992F7D2F612F452F292F0D2FF28C
:100B58002ED62EBA2E9F2E832E682E4D2E312E166F
:100B68002EFB2DE02DC52DAA2D8F2D742D5A2D3F2E
:100B78002D242D0A2DEF2CD52CBA2CA02C862C6CCC
:100B88002C522C372C1D2C032CEA2BD02BB62B9C4B
:100B98002B832B692B4F2B362B1C2B032BEA2AD1AB
:100BA8002AB72A9E2A852A6C2A532A3A2A212A09F0
:100BB8002AF029D729BF29A6298D2975295D294415
:100BC800292C291429FC28E328CB28B3289B28841E
:100BD800286C2854283C2824280D28F527DE27C609
:100BE80027AF2798278027692752273B2724270DD7
:100BF80027F626DF26C826B1269A2683266D26568E
:100C080026402629261326FC25E625D025B925A326
:100C1800258D25772561254B2535251F250925F3A4
:100C280024DE24C824B2249D24872472245C24470B
:100C38002431241C240724F223DC23C723B2239D58
:100C480023882373235F234A23352320230C23F788
:100C580022E222CE22B922A52291227C22682254A5
:100C6800223F222B2217220322EF21DB21C721B3A7
:100C780021A0218C217821642151213D212921168F
:100C8800210221EF20DC20C820B520A2208F207B64
:100C9800206820552042202F201C200920F71FE41F
:100CA8001FD11FBE1FAC1F991F861F741F611F4FC6
:100CB8001F3C1F2A1F181F051FF31EE11ECF1EBD54
:100CC8001EAA1E981E861E741E631E511E3F1E2DD0
:100CD8001E1B1E0A1EF81DE61DD51DC31DB21DA034
:100CE8001D8F1D7D1D6C1D5B1D491D381D271D1683
:100CF8001D051DF31CE21CD11CC01CB01C9F1C8EC2
:100D08001C7D1C6C1C5C1C4B1C3A1C2A1C191C08E6
:100D18001CF81BE81BD71BC71BB61BA61B961B86FC
:100D28001B751B651B551B451B351B251B151B05FB
:100D38001BF51AE51AD51AC61AB61AA61A961A87EC
:100D48001A771A681A581A491A391A2A1A1A1A0BC3
:100D58001AFC19EC19DD19CE19BF19AF19A0199190
:100D68001982197319641955194619381929191A44
:100D7800190B19FC18EE18DF18D018C218B318A5EB
:100D8800189618881879186B185C184E184018327D
:100D980018231815180718F917EB17DD17CF17C1FF
:100DA80017B317A517971789177B176D175F175272
:100DB800174417361729171B170D170017F216E5D2
:100DC80016D716CA16BC16AF16A216941687167A28
:100DD800166D165F165216451638162B161E161166
:100DE800160416F715EA15DD15D015C315B615AA9C
:100DF800159D159015841577156A155E15511545BD
:100E08001538152C151F1513150615FA14EE14E1CF
:100E180014D514C914BC14B014A41498148C1480D8
:100E280014741468145C145014441438142C1420CA
:100E38001414140814FC13F113E513D913CE13C2B8
:100E480013B613AB139F13941388137D1371136692
:100E5800135A134F13431338132D13221316130B5E
:100E6800130013F512EA12DE12D312C812BD12B221
:100E780012A7129C12911286127B12701266125BD4
:100E880012501245123A12301225121A1210120577
:100E980012FA11F011E511DB11D011C611BB11B115
:100EA80011A6119C11921187117D11731169115EA0
:100EB8001154114A11401136112B11211117110D1E
:100EC800110311F910EF10E510DB10D110C710BD98
:100ED80010B410AA10A01096108C10831079106FFF
:100EE8001066105C10521049103F1036102C102359
:100EF80010191010100610FD0FF30FEA0FE10FD7AD
:100F08000FCE0FC50FBB0FB20FA90FA00F960F8DF5
:100F18000F840F7B0F720F690F600F570F4E0F452D
:100F28000F3C0F330F2A0F210F180F0F0F060FFD5D
:100F38000EF40EEC0EE30EDA0ED10EC90EC00EB78B
:100F48000EAF0EA60E9D0E950E8C0E840E7B0E72A5
:100F58000E6A0E610E590E510E480E400E370E2FB6
:100F68000E270E1E0E160E0E0E050EFD0DF50DEDBE
:100F78000DE50DDC0DD40DCC0DC40DBC0DB40DACC0
:100F88000DA40D9C0D940D8C0D840D7C0D740D6CB1
:100F98000D640D5C0D540D4C0D450D3D0D350D2D9D
:100FA8000D250D1E0D160D0E0D070DFF0CF70CF07F
:100FB8000CE80CE00CD90CD10CCA0CC20CBB0CB35D
:100FC8000CAC0CA40C9D0C950C8E0C870C7F0C782B
:100FD8000C710C690C620C5B0C530C4C0C450C3EF0
:100FE8000C360C2F0C280C210C1A0C130C0C0C04AE
:100FF8000CFD0BF60BEF0BE80BE10BDA0BD30BCC6C
:101008000BC50BBE0BB80BB10BAA0BA30B9C0B9516
:101018000B8E0B880B810B7A0B730B6D0B660B5FBA
:101028000B580B520B4B0B440B3E0B370B310B2A57
:101038000B230B1D0B160B100B090B030BFC0AF6ED
:101048000AEF0AE90AE30ADC0AD60ACF0AC90AC380
:101058000ABC0AB60AB00AA90AA30A9D0A970A9006
:101068000A8A0A840A7E0A780A710A6B0A650A5F84
:101078000A590A530A4D0A470A410A3B0A350A2FF8
:101088000A290A230A1D0A170A110A0B0A050AFF68
:1010980009F909F309ED09E809E209DC09D609D0DB
:1010A80009CB09C509BF09B909B409AE09A809A23C
:1010B800099D09970992098C09860981097B097597
:1010C8000970096A0965095F095A0954094F0949EC
:1010D8000944093E09390934092E09290923091E39
:1010E80009190913090E0909090309FE08F908F382
:1010F80008EE08E908E408DE08D908D408CF08CAC9
:1011080008C408BF08BA08B508B008AB08A608A004
:10111800089B08960891088C08870882087D08783B
:101128000873086E08690864085F085A0856085169
:10113800084C08470842083D08380833082F082A91
:1011480008250820081B08170812080D08080804B5
:1011580008FF07FA07F607F107EC07E707E307DEDA
:1011680007DA07D507D007CC07C707C307BE07B9F3
:1011780007B507B007AC07A707A3079E079A079507
:101188000791078C07880784077F077B0776077214
:10119800076E076907650760075C07580753074F1D
:1011A800074B07470742073E073A07350731072D20
:1011B800072907250720071C071807140710070B1E
:1011C8000707070307FF06FB06F706F306EF06EB1C
:1011D80006E706E206DE06DA06D606D206CE06CA16
:1011E80006C606C206BE06BA06B606B206AE06AB06
:1011F80006A706A3069F069B06970693068F068BEF
:10120800068806840680067C067806740671066DD4
:10121800066906650662065E065A06560653064FB6
:10122800064B064706440640063C06390635063195
:10123800062E062A06260623061F061C061806146E
:101248000611060D060A0606060306FF05FC05F844
:1012580005F505F105ED05EA05E705E305E005DC1B
:1012680005D905D505D205CE05CB05C805C405C1E8
:1012780005BD05BA05B705B305B005AD05A905A6B1
:1012880005A3059F059C059905950592058F058B76
:10129800058805850582057E057B05780575057237
:1012A800056E056B056805650562055E055B0558F5
:1012B80005550552054F054C054805450542053FAE
:1012C800053C0539053605330530052D052A052762
:1012D80005240521051E051B051805150512050F12
:1012E800050C050905060503050005FD04FA04F7C4
:1012F80004F404F104EE04EB04E804E604E304E077
:1013080004DD04DA04D704D404D104CF04CC04C91E
:1013180004C604C304C104BE04BB04B804B504B3C2
:1013280004B004AD04AA04A804A504A2049F049D63
:10133800049A049704950492048F048D048A048700
:1013480004840482047F047D047A0477047504729B
:10135800046F046D046A0468046504620460045D33
:10136800045B0458045604530450044E044B0449C7
:10137800044604440441043F043C043A0437043559
:1013880004320430042D042B0428042604240421E8
:10139800041F041C041A0417041504130410040E73
:1013A800040B0409040704040402040004FD03FBFD
:1013B80003F903F603F403F203EF03ED03EB03E889
:1013C80003E603E403E103DF03DD03DB03D803D60D
:1013D80003D403D203CF03CD03CB03C903C603C48D
:1013E80003C203C003BE03BB03B903B703B503B30A
:1013F80003B003AE03AC03AA03A803A603A303A187
:10140800039F039D039B03990397039503920390FE
:10141800038E038C038A0388038603840382038074
:10142800037E037C03790377037503730371036FEA
:10143800036D036B03690367036503630361035F5C
:10144800035D035B03590357035503530351034FCC
:10145800034E034C034A0348034603440342034034
:10146800033E033C033A03380337033503330331A0
:10147800032F032D032B0329032703260324032209
:101488000320031E031C031B03190317031503136F
:1014980003110310030E030C030A030803070305D3
:1014A80003030301030003FE02FC02FA02F902F738
:1014B80002F502F302F202F002EE02EC02EB02E99C
:1014C80002E702E602E402E202E002DF02DD02DBFA
:1014D80002DA02D802D602D502D302D102D002CE55
:1014E80002CC02CB02C902C702C602C402C302C1AF
:1014F80002BF02BE02BC02BA02B902B702B602B407
:1015080002B202B102AF02AE02AC02AB02A902A75C
:1015180002A602A402A302A102A0029E029D029BAF
:101528000299029802960295029302920290028F03
:10153800028D028C028A0289028702860284028353
:1015480002810280027E027D027B027A02790277A2
:1015580002760274027302710270026E026D026CEE
:10156800026A026902670266026502630262026039
:10157800025F025D025C025B025902580257025583
:101588000254025202510250024E024D024C024ACB
:101598000249024802460245024402420241024010
:1015A800023E023D023C023A023902380236023556
:1015B8000234023202310230022F022D022C022B99
:1015C80002290228022702260224022302220221DB
:1015D800021F021E021D021C021A0219021802171B
:1015E80002150214021302120211020F020E020D5A
:1015F800020C020A02090208020702060205020397
:1016080002020201020002FF01FD01FC01FB01FAD6
:1016180001F901F801F601F501F401F301F201F114
:1016280001F001EE01ED01EC01EB01EA01E901E84D
:1016380001E601E501E401E301E201E101E001DF86
:1016480001DE01DC01DB01DA01D901D801D701D6BD
:1016580001D501D401D301D201D101D001CE01CDF0
:1016680001CC01CB01CA01C901C801C701C601C526
:1016780001C401C301C201C101C001BF01BE01BD56
:1016880001BC01BB01BA01B901B801B701B601B586
:1016980001B401B301B201B101B001AF01AE01ADB6
:1016A80001AC01AB01AA01A901A801A701A601A5E6
:1016B80001A401A301A201A101A0019F019E019D16
:1016C800019C019B019A0199019801970196019645
:1016D800019501940193019201910190018F018E6E
:1016E800018D018C018B018A018A0189018801879A
:1016F80001860185018401830182018101810180C4
:10170800017F017E017D017C017B017A017A0179EB
:101718000178017701760175017401740173017212
:1017280001710170016F016E016E016D016C016B39
:10173800016A01690169016801670166016501645F
:10174800016401630162016101600160015F015E82
:10175800015D015C015C015B015A015901580158A6
:1017680001570156015501540154015301520151C9
:1017780001500150014F014E014D014D014C014BEB
:10178800014A014A0149014801470147014601450B
:101798000144014401430142014101410140013F2B
:1017A800013E013E013D013C013B013B013A01394B
:1017B8000139013801370136013601350134013468
:1017C80001330132013101310130012F012F012E86
:1017D800012D012D012C012B012A012A01290128A3
:1017E80001280127012601260125012401240123BE
:1017F80001220122012101200120011F011E011ED9
:10180800011D011C011C011B011A011A01190118F3
:10181800011801170117011601150115011401130B
:10182800011301120111011101100110010F010E24
:10183800010E010D010C010C010B010B010A01093C
:101848000109010801080107010601060105010552
:101858000104010301030102010201010100010069
:1018680001FF00FF00FE00FD00FD00FC00FC00FB86
:1018780000FA00FA00F900F900F800F800F700F69D
:1018880000F600F500F500F400F400F300F300F2B0
:1018980000F100F100F000F000EF00EF00EE00EEC4
:1018A80000ED00EC00EC00EB00EB00EA00EA00E9D8
:1018B80000E900E800E800E700E700E600E500E5E9
:1018C80000E400E400E300E300E200E200E100E1FC
:1018D80000E000E000DF00DF00DE00DE00DD00DD0C
:1018E80000DC00DC00DB00DB00DA00DA00D900D91C
:1018F80000D800D800D700D700D600D600D500D52C
:1019080000D400D400D300D300D200D200D100D13B
:1019180000D000D000CF00CF00CE00CE00CD00CD4B
:1019280000CC00CC00CC00CB00CB00CA00CA00C958
:1019380000C900C800C800C700C700C600C600C666
:1019480000C500C500C400C400C300C300C200C273
:1019580000C100C100C100C000C000BF00BF00BE80
:1019680000BE00BD00BD00BD00BC00BC00BB00BB8C
:1019780000BA00BA00BA00B900B900B800B800B798
:1019880000B700B700B600B600B500B500B500B4A2
:1019980000B400B300B300B200B200B200B100B1AD
:1019A80000B000B000B000AF00AF00AE00AE00AEB7
:1019B80000AD00AD00AC00AC00AC00AB00AB00AAC1
:1019C80000AA00AA00A900A900A800A800A800A7CA
:1019D80000A700A700A600A600A500A500A500A4D2
:1019E80000A400A300A300A300A200A200A200A1DB
:1019F80000A100A000A000A0009F009F009F009EE3
:101A0800009E009E009D009D009C009C009C009BE9
:101A1800009B009B009A009A009A009900990099EF
:101A280000980098009700970097009600960096F7
:101A380000950095009500940094009400930093FD
:101A48000093009200920092009100910091009002
:101A580000900090008F008F008F008E008E008E07
:101A6800008D008D008D008C008C008C008B008B0D
:101A7800008B008A008A008A008900890089008911
:101A88000088008800880087008700870086008615
:101A98000086008500850085008400840084008419
:101AA800008300830083008200820082008100811D
:101AB80000810081008000800080007F007F007F1F
:101AC800007E007E007E007E007D007D007D007C23
:101AD800007C007C007C007B007B007B007A007A25
:101AE800007A007A00790079007900790078007826
:101AF8000078007700770077007700760076007628
:101B08000075007500750075007400740074007429
:101B1800007300730073007300720072007200712A
:101B28000071007100710070007000700070006F2B
:101B3800006F006F006F006E006E006E006E006D2B
:101B4800006D006D006D006C006C006C006C006B2B
:101B5800006B006B006B006A006A006A006A00692B
:101B6800006900690069006800680068006800672B
:101B78000067006700670067006600660066006629
:101B88000065006500650065006400640064006429
:101B98000063006300630063006300620062006228
:101BA8000062006100610061006100610060006026
:101BB80000600060005F005F005F005F005F005E24
:101BC800005E005E005E005D005D005D005D005D22
:101BD800005C005C005C005C005C005B005B005B20
:101BE800005B005A005A005A005A005A005900591E
:101BF800005900590059005800580058005800581A
:101C08000057005700570057005700560056005617
:101C18000056005600550055005500550055005413
:101C28000054005400540054005300530053005310
:101C3800005300520052005200520052005200510C
:101C48000051005100510051005000500050005008
:101C58000050004F004F004F004F004F004F004E04
:101C6800004E004E004E004E004D004D004D004D00
:101C7800004D004D004C004C004C004C004C004CFA
:101C8800004B004B004B004B004B004A004A004AF7
:101C9800004A004A004A00490049004900490049F1
:101CA80000490048004800480048004800480047EC
:101CB80000470047004700470047004600460046E7
:101CC80000460046004600450045004500450045E1
:101CD80000450045004400440044004400440044DA
:101CE80000430043004300430043004300420042D6
:101CF80000420042004200420042004100410041CF
:101D080000410041004100410040004000400040C7
:101D180000400040003F003F003F003F003F003FC1
:101D2800003F003E003E003E003E003E003E003EBA
:101D3800003D003D003D003D003D003D003D003CB4
:101D4800003C003C003C003C003C003C003B003BAD
:101D5800003B003B003B003B003B003B003A003AA5
:101D6800003A003A003A003A003A0039003900399E
:101D78000039003900390039003900380038003896
:101D8800003800380038003800370037003700378F
:101D98000037003700370037003600360036003687
:101DA800003600360036003600350035003500357F
:101DB8000035003500350035003400340034003477
:101DC800003400340034003400330033003300336F
:101DD8000033003300330033003300320032003266
:101DE800003200320032003200320032003100315D
:101DF8000031003100310031003100310030003055
:101E08000030003000300030003000300030002F4B
:101E1800002F002F002F002F002F002F002F002F42
:101E2800002E002E002E002E002E002E002E002E3A
:101E3800002E002E002D002D002D002D002D002D30
:101E4800002D002D002D002C002C002C002C002C27
:101E5800002C002C002C002C002C002B002B002B1D
:101E6800002B002B002B002B002B002B002B002A13
:101E7800002A002A002A002A002A002A002A002A0A
:101E8800002A002900290029002900290029002901
:101E980000290029002900290028002800280028F6
:101EA80000280028002800280028002800270027EC
:101EB80000270027002700270027002700270027E2
:101EC80000270026002600260026002600260026D9
:101ED80000260026002600260026002500250025CD
:101EE80000250025002500250025002500250025C2
:101EF80000240024002400240024002400240024BA
:101F080000240024002400240023002300230023AD
:101F180000230023002300230023002300230023A1
:101F28000023002200220022002200220022002298
:101F3800002200220022002200220021002100218C
:101F48000021002100210021002100210021002181
:101F58000021002100200020002000200020002077
:101F68000020002000200020002000200020001F6A
:101F7800001F001F001F001F001F001F001F001F61
:101F8800001F001F001F001F001F001E001E001E54
:101F9800001E001E001E001E001E001E001E001E49
:101FA800001E001E001E001D001D001D001D001D3E
:101FB800001D001D001D001D001D001D001D001D31
:101FC800001D001D001C001C001C001C001C001C27
:101FD800001C001C001C001C001C001C001C001C19
:101FE800001C001B001B001B001B001B001B001B10
:101FF800001B001B001B001B001B001B001B001B01
:10200800001B001A001A001A001A001A001A001AF7
:10201800001A001A001A001A001A001A001A001AE8
:10202800001A001A001900190019001900190019DE
:1020380000190019001900190019001900190019D0
:1020480000190019001900180018001800180018C5
:1020580000180018001800180018001800180018B8
:1020680000180018001800180017001700170017AC
:1020780000170017001700170017001700170017A0
:102088000017001700170017001700170017001691
:102098000016001600160016001600160016001688
:1020A8000016001600160016001600160016001678
:1020B800001600160015001500150015001500156E
:1020C8000015001500150015001500150015001560
:1020D8000015001500150015001500150014001452
:1020E8000014001400140014001400140014001448
:1020F8000014001400140014001400140014001438
:10210800001400140014001400130013001300132B
:10211800001300130013001300130013001300131F
:10212800001300130013001300130013001300130F
:102138000013001300120012001200120012001205
:1021480000120012001200120012001200120012F7
:1021580000120012001200120012001200120012E7
:1021680000120011001100110011001100110011DE
:1021780000110011001100110011001100110011CF
:1021880000110011001100110011001100110011BF
:1021980000110011001000100010001000100010B5
:1021A80000100010001000100010001000100010A7
:1021B8000010001000100010001000100010001097
:1021C80000100010001000100010000F000F000F8A
:1021D800000F000F000F000F000F000F000F000F7F
:1021E800000F000F000F000F000F000F000F000F6F
:1021F800000F000F000F000F000F000F000F000F5F
:10220800000F000E000E000E000E000E000E000E55
:10221800000E000E000E000E000E000E000E000E46
:10222800000E000E000E000E000E000E000E000E36
:10223800000E000E000E000E000E000E000E000D27
:10224800000D000D000D000D000D000D000D000D1E
:10225800000D000D000D000D000D000D000D000D0E
:10226800000D000D000D000D000D000D000D000DFE
:10227800000D000D000D000D000D000D000D000CEF
:10228800000C000C000C000C000C000C000C000CE6
:10229800000C000C000C000C000C000C000C000CD6
:1022A800000C000C000C000C000C000C000C000CC6
:1022B800000C000C000C000C000C000C000C000CB6
:1022C800000C000C000B000B000B000B000B000BAC
:1022D800000B000B000B000B000B000B000B000B9E
:1022E800000B000B000B000B000B000B000B000B8E
:1022F800000B000B000B000B000B000B000B000B7E
:10230800000B000B000B000B000B000B000B000A6E
:10231800000A000A000A000A000A000A000A000A65
:10232800000A000A000A000A000A000A000A000A55
:10233800000A000A000A000A000A000A000A000A45
:10234800000A000A000A000A000A000A000A000A35
:10235800000A000A000A000A000A000A000A000A25
:10236800000A00090009000900090009000900091C
:10237800000900090009000900090009000900090D
:1023880000090009000900090009000900090009FD
:1023980000090009000900090009000900090009ED
:1023A80000090009000900090009000900090009DD
:1023B80000090009000900090009000900090008CE
:1023C80000080008000800080008000800080008C5
:1023D80000080008000800080008000800080008B5
:1023E80000080008000800080008000800080008A5
:1023F8000008000800080008000800080008000895
:102408000008000800080008000800080008000884
:102418000008000800080008000800080008000874
:10242800000800080007000700070007000700076A
:10243800000700070007000700070007000700075C
:10244800000700070007000700070007000700074C
:10245800000700070007000700070007000700073C
:10246800000700070007000700070007000700072C
:10247800000700070007000700070007000700071C
:10248800000700070007000700070007000700070C
:102498000007000700070007000600060006000600
:1024A80000060006000600060006000600060006F4
:1024B80000060006000600060006000600060006E4
:1024C80000060006000600060006000600060006D4
:1024D80000060006000600060006000600060006C4
:1024E80000060006000600060006000600060006B4
:1024F80000060006000600060006000600060006A4
:102508000006000600060006000600060006000693
:102518000006000600060006000600060006000584
:10252800000500050005000500050005000500057B
:10253800000500050005000500050005000500056B
:10254800000500050005000500050005000500055B
:10255800000500050005000500050005000500054B
:10256800000500050005000500050005000500053B
:10257800000500050005000500050005000500052B
:0D2588000005000500050005000500050028
:00000001FF
