:100000000C943E000C945B000C945B000C945B0021
:100010000C945B000C945B000C945B000C945B00F4
:100020000C947A000C945B000C945B000C945B00C5
:100030000C945B000C945B000C945B000C945B00D4
:100040000C945B000C945B000C945B000C945B00C4
:100050000C941C010C945B000C94EA000C945B0063
:100060000C945B000C945B000C945B000C945B00A4
:100070000C945B000C945B000C945B0011241FBE7D
:10008000CFEFCDBFDFE3DEBF18E3A0E0B8E3EDE7DD
:10009000F4E202C005900D92A230B107D9F728E32F
:1000A000A2E0B8E301C01D92AF31B207E1F70E94B0
:1000B0007D010C943A020C9400009FB7F894809351
:1000C00017088091150886FFFCCF82E08093140802
:1000D000262FFB018191809318088091150886FFD7
:1000E000FCCF8E2F821B8417A8F383E08093140823
:1000F0009FBF08951F920F920FB60F921124CF92B7
:10010000DF92EF92FF920F931F932F933F934F93A2
:100110005F936F937F938F939F93AF93BF93CF938F
:10012000DF93EF93FF93C0901338D0901438E09092
:100130001538F0901638E7E1F8E30BE018E3D0E06B
:10014000C0E0809128042081318190E00C2E02C013
:10015000969587950A94E2F780FF35C0C90180958E
:100160009095B7010E942602260F371F2083318306
:100170008191919124E0969587952A95E1F7D80190
:100180008D939D938D012196C430D105D1F681E0E8
:1001900080930B0AFF91EF91DF91CF91BF91AF91C7
:1001A0009F918F917F916F915F914F913F912F918F
:1001B0001F910F91FF90EF90DF90CF900F900FBEA7
:1001C0000F901F901895C901B6010E942602261BA8
:1001D000370BCCCF1F920F920FB60F9211242F9393
:1001E0008F939F9381E080930B06809150069091AE
:1001F000510620910138273089F02830B9F08091DC
:1002000001388093460681E0809348069F918F9144
:100210002F910F900FBE0F901F9018958093093863
:1002200090930A3888E080930138E9CF80930738AB
:100230009093083887E0F7CF1F920F920FB60F9276
:1002400011242F938F939F93EF93FF9381E08093DB
:100250000B068091100690911106209100382430F1
:10026000F1F1253009F443C0E0910538F0910638EA
:100270008091093890910A38E81BF90BEE0FFF1FA7
:10028000E358FB47808191810196809315389093C4
:100290001638E0910338F091043880910738909136
:1002A0000838E81BF90BEE0FFF1FE358FB4780816E
:1002B000918101968093133890931438809100387F
:1002C0008093060681E080930806FF91EF919F914D
:1002D0008F912F910F900FBE0F901F9018958093C4
:1002E00005389093063885E080930038BDCF809321
:1002F00003389093043884E0F7CFCF93DF93CDB7E2
:10030000DEB72897CDBFDEBFF89402E088ED84BF4A
:100310000093610080EC809302380093010484E034
:10032000E82EE092010490E1F92EF0920102109281
:1003300013088CE0809310088FEF8093160811E06B
:10034000109313081093150842E06BE774E880ECF3
:100350000E945D0041E06AE774E880EC0E945D0065
:1003600042E068E774E880EC0E945D0080E88983E1
:1003700041E0BE016F5F7F4F80EC0E945D001092F4
:10038000000A8FE08093050A8FE39CE98093260A98
:100390009093270A10930A0A1093000A88E080932A
:1003A0004104109200060093010683E58093020643
:1003B000F09203061092050610930A06E0920606D4
:1003C0001093000610930806109240060093410611
:1003D00080934206F09243061092450610934A0617
:1003E00087E0809346061093400610934806789461
:1003F00090910B3880910C388F7089839A839091FB
:100400000D3880910E388F708B839C8390910F38BC
:10041000809110388F708D839E83909111388091D8
:1004200012388F708F83988748E0BE016F5F7F4FCF
:10043000809102380E945D0088E0898341E0BE011E
:100440006F5F7F4F80E00E945D00D2CFAA1BBB1B75
:1004500051E107C0AA1FBB1FA617B70710F0A61BC4
:10046000B70B881F991F5A95A9F780959095BC01E5
:08047000CD010895F894FFCFBF
:10047800A000CF00060010AA0EE30D550DE70C8D65
:100488000C410C000CC60B920B630B380B100BECD9
:100498000ACA0AAA0A8C0A700A560A3C0A240A0DD1
:1004A8000AF809E309CE09BB09A90997098509755D
:1004B80009650955094609370929091B090D090064
:1004C80009F308E708DB08CF08C308B808AD08A295
:1004D8000898088D08830879086F0866085C08532F
:1004E800084A0841083908300828081F0817080F63
:1004F8000807080008F807F007E907E207DB07D351
:1005080007CC07C607BF07B807B107AB07A4079E04
:1005180007980792078C07860780077A0774076E83
:1005280007680763075D07580752074D07480742E2
:10053800073D07380733072E07290724071F071A1F
:1005480007150710070C0707070207FE06F906F547
:1005580006F006EC06E806E306DF06DB06D606D25A
:1005680006CE06CA06C606C206BE06BA06B606B253
:1005780006AE06AA06A606A3069F069B069706943D
:100588000690068C068906850682067E067B067717
:1005980006740670066D066906660663065F065CE5
:1005A800065906560652064F064C064906460643A5
:1005B800063F063C0639063606330630062D062A5F
:1005C800062706240621061F061C0619061606130A
:1005D8000610060D060B060806050602060006FDAF
:1005E80005FA05F805F505F205F005ED05EA05E853
:1005F80005E505E305E005DD05DB05D805D605D3EA
:1006080005D105CE05CC05CA05C705C505C205C077
:1006180005BE05BB05B905B605B405B205AF05AD00
:1006280005AB05A905A605A405A205A0059D059B82
:1006380005990597059405920590058E058C058A00
:100648000588058505830581057F057D057B057979
:100658000577057505730571056F056D056B0569EA
:100668000567056505630561055F055D055B05595A
:100678000557055505530551054F054D054B054AC9
:1006880005480546054405420540053E053D053B30
:10069800053905370535053305320530052E052C96
:1006A800052B052905270525052405220520051EF6
:1006B800051D051B05190518051605140512051154
:1006C800050F050D050C050A0508050705050504B0
:1006D8000502050005FF04FD04FB04FA04F804F70D
:1006E80004F504F304F204F004EF04ED04EC04EA66
:1006F80004E904E704E504E404E204E104DF04DEB9
:1007080004DC04DB04D904D804D604D504D304D209
:1007180004D004CF04CE04CC04CB04C904C804C656
:1007280004C504C304C204C104BF04BE04BC04BBA2
:1007380004B904B804B704B504B404B304B104B0EC
:1007480004AE04AD04AC04AA04A904A804A604A534
:1007580004A404A204A104A0049E049D049C049A79
:1007680004990498049604950494049204910490BE
:10077800048F048D048C048B048904880487048600
:100788000484048304820481047F047E047D047C41
:10079800047A047904780477047504740473047281
:1007A8000471046F046E046D046C046B04690468BE
:1007B8000467046604650463046204610460045FFA
:1007C800045E045C045B045A045904580457045634
:1007D80004540453045204510450044F044E044C6E
:1007E800044B044A044904480447044604450444A5
:1007F800044204410440043F043E043D043C043BDD
:10080800043A043904380436043504340433043211
:1008180004310430042F042E042D042C042B042A44
:100828000429042804270426042504230422042177
:100838000420041F041E041D041C041B041A0419AC
:1008480004180417041604150414041304120411DC
:100858000410040F040E040D040C040B040A04090C
:10086800040804070406040504040403040204023B
:100878000401040004FF03FE03FD03FC03FB03FA69
:1008880003F903F803F703F603F503F403F303F29C
:1008980003F103F003F003EF03EE03ED03EC03EBC6
:1008A80003EA03E903E803E703E603E503E403E4F3
:1008B80003E303E203E103E003DF03DE03DD03DC1C
:1008C80003DB03DB03DA03D903D803D703D603D545
:1008D80003D403D303D303D203D103D003CF03CE6E
:1008E80003CD03CC03CC03CB03CA03C903C803C796
:1008F80003C603C603C503C403C303C203C103C0BD
:1009080003C003BF03BE03BD03BC03BB03BB03BAE1
:1009180003B903B803B703B603B603B503B403B307
:1009280003B203B103B103B003AF03AE03AD03AD2C
:1009380003AC03AB03AA03A903A903A803A703A64F
:1009480003A503A503A403A303A203A103A103A072
:10095800039F039E039D039D039C039B039A039996
:1009680003990398039703960396039503940393B7
:100978000392039203910390038F038F038E038DD9
:10098800038C038C038B038A0389038903880387F9
:100998000386038603850384038303830382038119
:1009A80003800380037F037E037D037D037C037B39
:1009B800037A037A03790378037703770376037559
:1009C8000375037403730372037203710370037076
:1009D800036F036E036D036D036C036B036B036A94
:1009E80003690368036803670366036603650364B2
:1009F800036303630362036103610360035F035FCF
:100A0800035E035D035D035C035B035A035A0359EA
:100A18000358035803570356035603550354035406
:100A2800035303520352035103500350034F034E21
:100A3800034E034D034C034C034B034A034A03493B
:100A48000348034803470346034603450344034456
:100A5800034303420342034103400340033F033E71
:100A6800033E033D033C033C033B033B033A03398A
:100A780003390338033703370336033503350334A3
:100A88000333033303320332033103300330032FBC
:100A9800032E032E032D032D032C032B032B032AD4
:100AA80003290329032803280327032603260325EC
:100AB8000324032403230323032203210321032004
:100AC8000320031F031E031E031D031C031C031B1B
:100AD800031B031A03190319031803180317031632
:100AE8000316031503150314031303130312031248
:100AF800031103110310030F030F030E030E030D5D
:100B0800030C030C030B030B030A03090309030873
:100B18000308030703070306030503050304030487
:100B2800030303030302030103010300030003FF9C
:100B380002FE02FE02FD02FD02FC02FC02FB02FBB9
:100B480002FA02F902F902F802F802F702F702F6CD
:100B580002F502F502F402F402F302F302F202F2E1
:100B680002F102F002F002EF02EF02EE02EE02EDF5
:100B780002ED02EC02EB02EB02EA02EA02E902E908
:100B880002E802E802E702E702E602E502E502E41B
:100B980002E402E302E302E202E202E102E102E02D
:100BA80002E002DF02DE02DE02DD02DD02DC02DC40
:100BB80002DB02DB02DA02DA02D902D902D802D851
:100BC80002D702D702D602D502D502D402D402D364
:100BD80002D302D202D202D102D102D002D002CF75
:100BE80002CF02CE02CE02CD02CD02CC02CC02CB85
:100BF80002CB02CA02CA02C902C902C802C702C796
:100C080002C602C602C502C502C402C402C302C3A8
:100C180002C202C202C102C102C002C002BF02BFB8
:100C280002BE02BE02BD02BD02BC02BC02BB02BBC8
:100C380002BA02BA02B902B902B802B802B702B7D8
:100C480002B602B602B502B502B402B402B302B3E8
:100C580002B302B202B202B102B102B002B002AFF4
:100C680002AF02AE02AE02AD02AD02AC02AC02AB04
:100C780002AB02AA02AA02A902A902A802A802A714
:100C880002A702A602A602A502A502A502A402A422
:100C980002A302A302A202A202A102A102A002A030
:100CA800029F029F029E029E029D029D029D029C3F
:100CB800029C029B029B029A029A0299029902984C
:100CC800029802970297029602960296029502955A
:100CD8000294029402930293029202920291029168
:100CE800029102900290028F028F028E028E028D74
:100CF800028D028C028C028C028B028B028A028A81
:100D0800028902890288028802870287028702868E
:100D1800028602850285028402840283028302839A
:100D2800028202820281028102800280027F027FA7
:100D3800027F027E027E027D027D027C027C027CB2
:100D4800027B027B027A027A0279027902780278BF
:100D580002780277027702760276027502750275CA
:100D680002740274027302730272027202720271D6
:100D7800027102700270026F026F026F026E026EE1
:100D8800026D026D026C026C026C026B026B026AED
:100D9800026A0269026902690268026802670267F8
:100DA8000267026602660265026502640264026402
:100DB800026302630262026202620261026102600D
:100DC8000260025F025F025F025E025E025D025D18
:100DD800025D025C025C025B025B025B025A025A21
:100DE800025902590258025802580257025702562D
:100DF8000256025602550255025402540254025336
:100E0800025302520252025202510251025002503F
:100E18000250024F024F024E024E024E024D024D48
:100E2800024C024C024C024B024B024A024A024A52
:100E3800024902490248024802480247024702465C
:100E48000246024602450245024502440244024364
:100E5800024302430242024202410241024102406D
:100E68000240023F023F023F023E023E023E023D76
:100E7800023D023C023C023C023B023B023A023A7F
:100E8800023A023902390239023802380237023787
:100E9800023702360236023602350235023402348F
:100EA8000234023302330232023202320231023198
:100EB800023102300230022F022F022F022E022EA0
:100EC800022E022D022D022C022C022C022B022BA8
:100ED800022B022A022A022A0229022902280228AF
:100EE80002280227022702270226022602250225B7
:100EF80002250224022402240223022302230222BE
:100F08000222022102210221022002200220021FC5
:100F1800021F021F021E021E021D021D021D021CCC
:100F2800021C021C021B021B021B021A021A0219D3
:100F380002190219021802180218021702170217DA
:100F480002160216021602150215021402140214E1
:100F580002130213021302120212021202110211E8
:100F68000211021002100210020F020F020F020EED
:100F7800020E020D020D020D020C020C020C020BF5
:100F8800020B020B020A020A020A020902090209FA
:100F98000208020802080207020702070206020600
:100FA8000205020502050204020402040203020308
:100FB800020302020202020202010201020102000D
:100FC8000200020002FF01FF01FF01FE01FE01FE17
:100FD80001FD01FD01FD01FC01FC01FC01FB01FB20
:100FE80001FB01FA01FA01FA01F901F901F901F825
:100FF80001F801F801F701F701F701F601F601F62A
:1010080001F501F501F501F401F401F401F301F32F
:1010180001F301F201F201F201F101F101F101F034
:1010280001F001F001EF01EF01EF01EE01EE01EE39
:1010380001ED01ED01ED01EC01EC01EC01EB01EB3F
:1010480001EB01EA01EA01EA01E901E901E901E844
:1010580001E801E801E701E701E701E601E601E649
:1010680001E501E501E501E501E401E401E401E34D
:1010780001E301E301E201E201E201E101E101E151
:1010880001E001E001E001DF01DF01DF01DE01DE57
:1010980001DE01DE01DD01DD01DD01DC01DC01DC59
:1010A80001DB01DB01DB01DA01DA01DA01D901D95F
:1010B80001D901D801D801D801D801D701D701D762
:1010C80001D601D601D601D501D501D501D401D467
:1010D80001D401D301D301D301D301D201D201D26A
:1010E80001D101D101D101D001D001D001CF01CF6F
:1010F80001CF01CF01CE01CE01CE01CD01CD01CD71
:1011080001CC01CC01CC01CB01CB01CB01CB01CA75
:1011180001CA01CA01C901C901C901C801C801C878
:1011280001C701C701C701C701C601C601C601C57C
:1011380001C501C501C401C401C401C401C301C37F
:1011480001C301C201C201C201C101C101C101C182
:1011580001C001C001C001BF01BF01BF01BE01BE86
:1011680001BE01BE01BD01BD01BD01BC01BC01BC88
:1011780001BB01BB01BB01BB01BA01BA01BA01B98C
:1011880001B901B901B901B801B801B801B701B78E
:1011980001B701B601B601B601B601B501B501B591
:1011A80001B401B401B401B401B301B301B301B294
:1011B80001B201B201B201B101B101B101B001B096
:1011C80001B001AF01AF01AF01AF01AE01AE01AE99
:1011D80001AD01AD01AD01AD01AC01AC01AC01AB9C
:1011E80001AB01AB01AB01AA01AA01AA01A901A99E
:1011F80001A901A901A801A801A801A701A701A7A0
:1012080001A701A601A601A601A501A501A501A5A1
:1012180001A401A401A401A401A301A301A301A2A3
:1012280001A201A201A201A101A101A101A001A0A5
:1012380001A001A0019F019F019F019E019E019EA7
:10124800019E019D019D019D019D019C019C019CA8
:10125800019B019B019B019B019A019A019A0199AB
:1012680001990199019901980198019801980197AC
:1012780001970197019601960196019601950195AE
:1012880001950195019401940194019301930193AF
:1012980001930192019201920192019101910191B0
:1012A8000190019001900190018F018F018F018FB2
:1012B800018E018E018E018D018D018D018D018CB4
:1012C800018C018C018C018B018B018B018A018AB5
:1012D800018A018A018901890189018901880188B6
:1012E80001880188018701870187018601860186B7
:1012F80001860185018501850185018401840184B8
:1013080001840183018301830183018201820182B7
:1013180001810181018101810180018001800180B9
:10132800017F017F017F017F017E017E017E017EB9
:10133800017D017D017D017C017C017C017C017BBB
:10134800017B017B017B017A017A017A017A0179BB
:1013580001790179017901780178017801780177BB
:1013680001770177017701760176017601750175BC
:1013780001750175017401740174017401730173BD
:1013880001730173017201720172017201710171BD
:10139800017101710170017001700170016F016FBD
:1013A800016F016F016E016E016E016E016D016DBD
:1013B800016D016D016C016C016C016C016B016BBD
:1013C800016B016B016A016A016A016A01690169BD
:1013D80001690169016801680168016801670167BD
:1013E80001670167016601660166016601650165BD
:1013F80001650165016401640164016401630163BD
:1014080001630163016201620162016201610161BC
:10141800016101610160016001600160015F015FBC
:10142800015F015F015E015E015E015E015D015DBC
:10143800015D015D015C015C015C015C015B015BBC
:10144800015B015B015B015A015A015A015A0159BA
:1014580001590159015901580158015801580157BA
:1014680001570157015701560156015601560155BA
:1014780001550155015501540154015401540154B9
:1014880001530153015301530152015201520152B8
:1014980001510151015101510150015001500150B8
:1014A800014F014F014F014F014E014E014E014EB8
:1014B800014E014D014D014D014D014C014C014CB6
:1014C800014C014B014B014B014B014A014A014AB6
:1014D800014A014A014901490149014901480148B4
:1014E80001480148014701470147014701460146B4
:1014F80001460146014601450145014501450144B2
:1015080001440144014401430143014301430143B0
:1015180001420142014201420141014101410141AF
:1015280001400140014001400140013F013F013FAE
:10153800013F013E013E013E013E013D013D013DAD
:10154800013D013D013C013C013C013C013B013BAB
:10155800013B013B013A013A013A013A013A0139AA
:1015680001390139013901380138013801380138A8
:1015780001370137013701370136013601360136A7
:1015880001360135013501350135013401340134A5
:1015980001340133013301330133013301320132A4
:1015A80001320132013101310131013101310130A2
:1015B800013001300130012F012F012F012F012FA0
:1015C800012E012E012E012E012D012D012D012D9F
:1015D800012D012C012C012C012C012B012B012B9D
:1015E800012B012B012A012A012A012A012901299B
:1015F8000129012901290128012801280128012799
:101608000127012701270127012601260126012696
:101618000126012501250125012501240124012494
:101628000124012401230123012301230122012292
:10163800012201220122012101210121012101218F
:101648000120012001200120011F011F011F011F8E
:10165800011F011E011E011E011E011E011D011D8B
:10166800011D011D011C011C011C011C011C011B89
:10167800011B011B011B011B011A011A011A011A86
:101688000119011901190119011901180118011885
:101698000118011801170117011701170116011682
:1016A800011601160116011501150115011501157F
:1016B800011401140114011401140113011301137D
:1016C800011301120112011201120112011101117B
:1016D8000111011101110110011001100110011077
:1016E800010F010F010F010F010E010E010E010E76
:1016F800010E010D010D010D010D010D010C010C73
:10170800010C010C010C010B010B010B010B010B6E
:10171800010A010A010A010A010A0109010901096C
:10172800010901080108010801080108010701076A
:101738000107010701070106010601060106010666
:101748000105010501050105010501040104010464
:101758000104010401030103010301030103010260
:10176800010201020102010201010101010101015D
:1017780001010100010001000100010001FF00FF5B
:1017880000FF00FF00FF00FE00FE00FE00FE00FD5F
:1017980000FD00FD00FD00FD00FC00FC00FC00FC5D
:1017A80000FC00FB00FB00FB00FB00FB00FA00FA5A
:1017B80000FA00FA00FA00F900F900F900F900F956
:1017C80000F800F800F800F800F800F700F700F754
:1017D80000F700F700F600F600F600F600F600F64F
:1017E80000F500F500F500F500F500F400F400F44C
:1017F80000F400F400F300F300F300F300F300F248
:1018080000F200F200F200F200F100F100F100F144
:1018180000F100F000F000F000F000F000EF00EF41
:1018280000EF00EF00EF00EE00EE00EE00EE00EE3D
:1018380000ED00ED00ED00ED00ED00EC00EC00EC3B
:1018480000EC00EC00EC00EB00EB00EB00EB00EB35
:1018580000EA00EA00EA00EA00EA00E900E900E933
:1018680000E900E900E800E800E800E800E800E72F
:1018780000E700E700E700E700E600E600E600E62C
:1018880000E600E600E500E500E500E500E500E427
:1018980000E400E400E400E400E300E300E300E324
:1018A80000E300E200E200E200E200E200E200E120
:1018B80000E100E100E100E100E000E000E000E01C
:1018C80000E000DF00DF00DF00DF00DF00DE00DE19
:1018D80000DE00DE00DE00DE00DD00DD00DD00DD14
:1018E80000DD00DC00DC00DC00DC00DC00DB00DB11
:1018F80000DB00DB00DB00DB00DA00DA00DA00DA0C
:1019080000DA00D900D900D900D900D900D800D808
:1019180000D800D800D800D800D700D700D700D703
:1019280000D700D600D600D600D600D600D500D500
:1019380000D500D500D500D500D400D400D400D4FB
:1019480000D400D300D300D300D300D300D300D2F7
:1019580000D200D200D200D200D100D100D100D1F3
:1019680000D100D100D000D000D000D000D000CFEE
:1019780000CF00CF00CF00CF00CE00CE00CE00CEEB
:1019880000CE00CE00CD00CD00CD00CD00CD00CCE6
:1019980000CC00CC00CC00CC00CC00CB00CB00CBE2
:1019A80000CB00CB00CA00CA00CA00CA00CA00CADD
:1019B80000C900C900C900C900C900C800C800C8DA
:1019C80000C800C800C800C700C700C700C700C7D4
:1019D80000C700C600C600C600C600C600C500C5D0
:1019E80000C500C500C500C500C400C400C400C4CB
:1019F80000C400C300C300C300C300C300C300C2C7
:101A080000C200C200C200C200C100C100C100C1C2
:101A180000C100C100C000C000C000C000C000C0BC
:101A280000BF00BF00BF00BF00BF00BE00BE00BEB9
:101A380000BE00BE00BE00BD00BD00BD00BD00BDB3
:101A480000BD00BC00BC00BC00BC00BC00BB00BBAF
:101A580000BB00BB00BB00BB00BA00BA00BA00BAAA
:101A680000BA00BA00B900B900B900B900B900B8A5
:101A780000B800B800B800B800B800B700B700B7A1
:101A880000B700B700B700B600B600B600B600B69B
:101A980000B600B500B500B500B500B500B400B497
:101AA80000B400B400B400B400B300B300B300B392
:101AB80000B300B300B200B200B200B200B200B28C
:101AC80000B100B100B100B100B100B000B000B089
:101AD80000B000B000B000AF00AF00AF00AF00AF83
:101AE80000AF00AE00AE00AE00AE00AE00AE00AD7E
:101AF80000AD00AD00AD00AD00AD00AC00AC00AC79
:101B080000AC00AC00AC00AB00AB00AB00AB00AB72
:101B180000AB00AA00AA00AA00AA00AA00A900A96E
:101B280000A900A900A900A900A800A800A800A869
:101B380000A800A800A700A700A700A700A700A763
:101B480000A600A600A600A600A600A600A500A55F
:101B580000A500A500A500A500A400A400A400A459
:101B680000A400A400A300A300A300A300A300A353
:101B780000A200A200A200A200A200A200A100A14F
:101B880000A100A100A100A100A000A000A000A049
:101B980000A000A0009F009F009F009F009F009F43
:101BA800009E009E009E009E009E009E009D009D3F
:101BB800009D009D009D009D009C009C009C009C39
:101BC800009C009C009B009B009B009B009B009B33
:101BD800009A009A009A009A009A009A009900992F
:101BE8000099009900990099009800980098009829
:101BF8000098009800970097009700970097009723
:101C0800009700960096009600960096009600951C
:101C18000095009500950095009500940094009417
:101C28000094009400940093009300930093009311
:101C3800009300920092009200920092009200910C
:101C48000091009100910091009100900090009007
:101C58000090009000900090008F008F008F008F00
:101C6800008F008F008E008E008E008E008E008EFA
:101C7800008D008D008D008D008D008D008C008CF6
:101C8800008C008C008C008C008C008B008B008BEF
:101C9800008B008B008B008A008A008A008A008AE9
:101CA800008A0089008900890089008900890088E4
:101CB80000880088008800880088008800870087DE
:101CC80000870087008700870086008600860086D8
:101CD80000860086008500850085008500850085D2
:101CE80000850084008400840084008400840083CC
:101CF80000830083008300830083008300820082C6
:101D080000820082008200820081008100810081BF
:101D180000810081008000800080008000800080B9
:101D28000080007F007F007F007F007F007F007EB3
:101D3800007E007E007E007E007E007E007D007DAD
:101D4800007D007D007D007D007C007C007C007CA7
:101D5800007C007C007B007B007B007B007B007BA1
:101D6800007B007A007A007A007A007A007A00799B
:101D78000079007900790079007900790078007895
:101D8800007800780078007800770077007700778F
:101D98000077007700770076007600760076007688
:101DA8000076007600750075007500750075007581
:101DB800007400740074007400740074007400737C
:101DC8000073007300730073007300720072007276
:101DD800007200720072007200710071007100716F
:101DE8000071007100700070007000700070007069
:101DF8000070006F006F006F006F006F006F006F62
:101E0800006E006E006E006E006E006E006D006D5C
:101E1800006D006D006D006D006D006C006C006C55
:101E2800006C006C006C006C006B006B006B006B4E
:101E3800006B006B006A006A006A006A006A006A48
:101E4800006A006900690069006900690069006941
:101E5800006800680068006800680068006700673C
:101E68000067006700670067006700660066006635
:101E7800006600660066006600650065006500652E
:101E88000065006500650064006400640064006427
:101E98000064006400630063006300630063006320
:101EA800006200620062006200620062006200611B
:101EB8000061006100610061006100610060006014
:101EC80000600060006000600060005F005F005F0D
:101ED800005F005F005F005F005E005E005E005E06
:101EE800005E005E005E005D005D005D005D005DFF
:101EF800005D005C005C005C005C005C005C005CF9
:101F0800005B005B005B005B005B005B005B005AF2
:101F1800005A005A005A005A005A005A00590059EB
:101F280000590059005900590059005800580058E4
:101F380000580058005800580057005700570057DD
:101F480000570057005700560056005600560056D6
:101F580000560056005500550055005500550055CF
:101F680000550054005400540054005400540054C8
:101F780000530053005300530053005300530052C2
:101F880000520052005200520052005200510051BB
:101F980000510051005100510051005000500050B4
:101FA8000050005000500050004F004F004F004FAD
:101FB800004F004F004F004E004E004E004E004EA6
:101FC800004E004E004D004D004D004D004D004D9F
:101FD800004D004C004C004C004C004C004C004C98
:101FE800004C004B004B004B004B004B004B004B90
:101FF800004A004A004A004A004A004A004A00498A
:102008000049004900490049004900490048004882
:10201800004800480048004800480047004700477B
:102028000047004700470047004600460046004674
:10203800004600460046004600450045004500456C
:102048000045004500450044004400440044004465
:10205800004400440043004300430043004300435E
:102068000043004200420042004200420042004257
:10207800004200410041004100410041004100414F
:102088000040004000400040004000400040003F49
:10209800003F003F003F003F003F003F003E003E42
:1020A800003E003E003E003E003E003E003D003D3A
:1020B800003D003D003D003D003D003C003C003C33
:1020C800003C003C003C003C003C003B003B003B2B
:1020D800003B003B003B003B003A003A003A003A24
:1020E800003A003A003A003900390039003900391D
:1020F8000039003900390038003800380038003815
:10210800003800380037003700370037003700370D
:102118000037003700360036003600360036003605
:1021280000360035003500350035003500350035FE
:1021380000340034003400340034003400340034F7
:1021480000330033003300330033003300330032F0
:1021580000320032003200320032003200320031E8
:1021680000310031003100310031003100300030E1
:10217800003000300030003000300030002F002FD9
:10218800002F002F002F002F002F002F002E002ED1
:10219800002E002E002E002E002E002D002D002DCA
:1021A800002D002D002D002D002D002C002C002CC2
:1021B800002C002C002C002C002B002B002B002BBB
:1021C800002B002B002B002B002A002A002A002AB3
:1021D800002A002A002A002A0029002900290029AB
:1021E80000290029002900280028002800280028A4
:1021F800002800280028002700270027002700279C
:102208000027002700270026002600260026002693
:10221800002600260025002500250025002500258C
:102228000025002500240024002400240024002484
:10223800002400240023002300230023002300237C
:102248000023002200220022002200220022002275
:10225800002200210021002100210021002100216D
:102268000021002000200020002000200020002065
:102278000020001F001F001F001F001F001F001F5D
:10228800001F001E001E001E001E001E001E001E55
:10229800001D001D001D001D001D001D001D001D4E
:1022A800001C001C001C001C001C001C001C001C46
:1022B800001B001B001B001B001B001B001B001B3E
:1022C800001A001A001A001A001A001A001A001A36
:1022D800001900190019001900190019001900192E
:1022E8000018001800180018001800180018001826
:1022F800001700170017001700170017001700171E
:102308000016001600160016001600160016001516
:10231800001500150015001500150015001500140E
:102328000014001400140014001400140014001306
:1023380000130013001300130013001300130012FE
:1023480000120012001200120012001200120011F6
:1023580000110011001100110011001100110010EE
:1023680000100010001000100010001000100010E5
:10237800000F000F000F000F000F000F000F000FDD
:10238800000E000E000E000E000E000E000E000ED5
:10239800000D000D000D000D000D000D000D000DCD
:1023A800000C000C000C000C000C000C000C000CC5
:1023B800000B000B000B000B000B000B000B000BBD
:1023C800000A000A000A000A000A000A000A000AB5
:1023D80000090009000900090009000900090009AD
:1023E80000080008000800080008000800080008A5
:1023F800000700070007000700070007000700079D
:102408000007000600060006000600060006000693
:10241800000600050005000500050005000500058B
:102428000005000400040004000400040004000483
:10243800000400030003000300030003000300037B
:102448000003000300020002000200020002000272
:10245800000200020001000100010001000100016A
:102468000001000100000000000000000000000062
:0524780000000000005F
:02247D00040752
:00000001FF
