:1000000019C033C032C031C030C02FC02EC02DC087
:100010002CC02BC02BC029C028C027C026C025C09B
:1000200024C023C022C021C020C01FC036C01DC0B4
:100030001CC01BC011241FBECFEFCDBFDFE3DEBF4E
:100040001FE3A0E0BFE3E5E5F4E002C005900D92F8
:10005000A230B107D9F72FE3A2E0BFE301C01D92A0
:10006000AD30B207E1F75BD1F0C1CACF1F920F925A
:100070000FB60F9211248F93EF93FF9380E180933B
:100080000604E0E0FAE083871286FF91EF918F91FA
:100090000F900FBE0F901F9018951F920F920FB6E2
:1000A0000F9211242F933F934F935F936F937F93FE
:1000B0008F939F93AF93BF93CF93EF93FF93C09191
:1000C000000880910C3F8823F1F080910B3F87302E
:1000D000A1F5C93268F1CB3210F0CF3749F5C093A2
:1000E0000A3F80910B3F873048F4E0910B3FF0E0EE
:1000F000E25BFB4780818C1310920C3F80910B3F99
:100100008F5F80930B3FC7FF3AC08C2F807F803B6F
:1001100039F080F5803921F0803A11F0803879F596
:100120008C2F8F708093240481E08093073F27C039
:1001300010920A3F10920C3FD4CF80910B3F893030
:1001400081F680910A3F8A3239F08F3741F0893247
:1001500089F7C093093FEECFC093083FEBCF609182
:10016000093F90E080E02BD16091083F81E090E072
:1001700026D1E0CF803DA1F2F0F4803C89F280915D
:10018000073F882331F08091040885FFFCCFC0939E
:100190000208FF91EF91CF91BF91AF919F918F9105
:1001A0007F916F915F914F913F912F910F900FBE73
:1001B0000F901F901895803E09F4B2CF803FF9F65A
:1001C0001092073FC83F69F140F4C03F09F4A1C055
:1001D000C73FA9F610920C3FD2CFCB3F09F482C0A3
:1001E000CC3F09F483C0CA3F51F61092200A109206
:1001F000210A1092033F8091083F8093053F82E0DF
:100200008093043F88E08093050480E48093050494
:1002100080E18093060481E08093063F1092023FC4
:10022000AECF8091063F882309F4A9CF80E4809364
:1002300006048091053F882331F08091053F81506D
:100240008093053F9CCF8091093F811129C080E1B7
:10025000809305048091043F81111CC08091200A85
:100260009091210A969587958093003F9093013F46
:100270008091003F9091013F8093280A9093290A32
:100280001092200A1092210A80E180930B0A809339
:100290000A0A75CF8091043F81508093043FE8CFD4
:1002A0006091093F8091033F90E070E06F5F7F4F66
:1002B000A5D08093033F8091033F882351F0209184
:1002C000033F8091093F869590E001962817190613
:1002D00019F480E1809307048091033F8F5F80933E
:1002E000033F4DCF88E08093050495CF88E080934D
:1002F00006041092063F8091023F8F5F8093023F79
:100300008091023F823009F03ACF80E18093060469
:1003100036CF81E080930C3F10920B3F30CF90E0BE
:1003200080E045D08093093F81E090E040D0809309
:10033000083F8091093F8F3F71F41092093F10925E
:10034000083F6091093F90E080E039D06091083F1C
:1003500081E090E034D08BEF809300048FE08093B5
:10036000200491E09093010220E034E020930808FB
:100370003093090890E89093050890EC9093060854
:1003800093E0909307081092000A8093050A8FEF7C
:100390009FEF8093260A9093270A80E898E1809344
:1003A000280A9093290A8DE08093000AFFCF03D09A
:1003B000808199270895FC01E050FC4E0895262F76
:1003C0000E94DB010080021619F00E94EB010197E8
:1003D00001970895262FAF93BF93E0E0F0E13281BB
:1003E00031FDFDCFDC01A050BC4E2C932DE924BF84
:1003F00023E020830196BF91AF91089597FB072ECC
:1004000016F4009406D077FD08D00BD007FC05D079
:100410003EF4909581959F4F0895709561957F4F1B
:100420000895AA1BBB1B51E107C0AA1FBB1FA6173B
:10043000B70710F0A61BB70B881F991F5A95A9F78D
:0E04400080959095BC01CD010895F894FFCFF2
:07044E000020131A0020003A
:0204550080180D
:00000001FF
