:1000000019C033C032C031C030C02FC02EC02DC087
:100010002CC02BC02BC029C028C027C026C025C09B
:1000200024C023C022C021C020C01FC036C01DC0B4
:100030001CC01BC011241FBECFEFCDBFDFE3DEBF4E
:100040001FE3A0E0BFE3EDE4F4E002C005900D92F1
:10005000A230B107D9F72FE3A2E0BFE301C01D92A0
:10006000AC30B207E1F750D1ECC1CACF1F920F926A
:100070000FB60F9211248F93EF93FF9380E180933B
:100080000604E0E0FAE083871286FF91EF918F91FA
:100090000F900FBE0F901F9018951F920F920FB6E2
:1000A0000F9211242F933F934F935F936F937F93FE
:1000B0008F939F93AF93BF93EF93FF93809100082B
:1000C000982F987F983F09F0A8C08A3F09F485C00F
:1000D00098F4883F31F1FF91EF91BF91AF919F91DB
:1000E0008F917F916F915F914F913F912F910F90E1
:1000F0000FBE0F901F9018958B3F09F48AC08C3F5C
:1001000051F788E0809306041092063F8091023FE9
:100110008F5F8093023F8230F1F680E18093060486
:10012000DACF8091063F8823B1F280E48093060401
:100130008091043F882321F081508093043FCBCFEE
:100140008091083F811127C080E180930504809150
:10015000033F81111CC08091200A9091210A96953D
:1001600087958093003F9093013F8091003F90914D
:10017000013F8093280A9093290A1092200A109236
:10018000210A80E180930B0A80930A0AA4CF815050
:100190008093033FEACF6091083F8091053F90E054
:1001A00070E06F5F7F4F26D18093053F8091053FC0
:1001B000882351F02091053F8091083F869590E07B
:1001C00001962817190619F480E18093070480919D
:1001D000053F8F5F8093053F7ECF1092200A1092DB
:1001E000210A1092053F8091073F8093043F82E0EF
:1001F0008093033F88E08093050480E480930504A6
:1002000080E18093060481E08093063F1092023FD4
:1002100062CF88E080930504F6CF20910B3F222324
:1002200009F442C090910A3F973058F4E92FF0E06A
:10023000EA5BFB473081381337C09F5F90930A3FDA
:100240004ACF973079F4893250F08B3210F08F37E3
:1002500031F48093093F88E080930A3F3CCF1092AD
:10026000093FF9CF983011F489E0F6CF9930E1F4E5
:100270009091093F9A3251F09F3759F0993211F419
:100280008093083F80910A3F8F5FE6CF8093073FBE
:10029000F9CF6091083F90E080E08DD06091073FFA
:1002A00081E090E088D0EECF87FF2BC0982F907F21
:1002B000903B41F0A0F4903929F0903A19F0903831
:1002C00009F009CF10920B3F982F9F709093240450
:1002D0009091040895FFFCCF80930208FCCE903DDE
:1002E00089F320F4903C09F0F6CEECCF903E51F328
:1002F000903F09F0F0CE81E080930B3F10920A3FCF
:10030000EACE222329F3E7CEF89488ED91E084BF6A
:100310009093610090E080E046D08093083F81E0B8
:1003200090E041D08093073F8091083F8F3F71F468
:100330001092083F1092073F6091083F90E080E0E4
:100340003AD06091073F81E090E035D08BEF809309
:1003500000048FE08093200491E09093010220E05C
:1003600034E0209308083093090890E8909305083A
:1003700090EC9093060893E0909307081092000A7F
:100380008093050A8FEF9FEF8093260A9093270AA8
:1003900080E898E18093280A9093290A8DE0809361
:1003A000000A7894FFCF03D0808199270895FC013B
:1003B000E050FC4E0895262F0E94D70100800216BF
:1003C00019F00E94E701019701970895262FAF9336
:1003D000BF93E0E0F0E1328131FDFDCFDC01A050C0
:1003E000BC4E2C932DE924BF23E020830196BF91BE
:1003F000AF91089597FB072E16F4009406D077FD71
:1004000008D00BD007FC05D03EF4909581959F4F06
:100410000895709561957F4F0895AA1BBB1B51E10C
:1004200007C0AA1FBB1FA617B70710F0A61BB70B64
:10043000881F991F5A95A9F780959095BC01CD0109
:060440000895F894FFCFBF
:070446000020131A00200042
:02044D00801815
:00000001FF
