:1000000019C028C027C06AC125C024C023C022C08F
:1000100098C120C01FC01EC01DC02CC11BC01AC06B
:1000200019C018C017C016C015C014C0D1C012C066
:1000300011C010C011241FBECFEFCDBFDFE3DEBF64
:100040002FE3A0E0BFE301C01D92A636B207E1F79F
:10005000B1D1F8C4D5CF9FB7F89480931708809199
:10006000150886FFFCCF82E080931408262FFB0141
:100070008191809318088091150886FFFCCF8E2F00
:10008000821B8417A8F383E0809314089FBF089510
:10009000CF93DF93CDB7DEB72897CDBFDEBFEDE5B9
:1000A000FFE3908181818F7089839A83928183811C
:1000B0008F708B839C83948185818F708D839E83C9
:1000C000968187818F708F83988748E0BE016F5F2C
:1000D0007F4F8091653FBFDF88E0898341E0BE01AB
:1000E0006F5F7F4F80E0B7DF2896CDBFDEBFDF9127
:1000F000CF91089580915B3F90915C3F019719F4F7
:1001000080915A3F0895E091593F84E0E89FF001C3
:100110001124E75CF04C8081089590E080E02FEF9F
:10012000FC01EE0FFF1FEE0FFF1FE75CF04C10828B
:1001300011822283138201968830910589F72093DA
:10014000593F1092143F0895CF93DF931F92CDB77C
:10015000DEB78068898341E0BE016F5F7F4F809189
:10016000653F79DF0F90DF91CF910895CF93DF93B3
:10017000382F4091123F5091133F2AE0249FC00135
:10018000259F900D112465E170E007D4EB01C85163
:10019000DC4F3851232F30E0A8EEB3E033D42CE00D
:1001A00030E040E050E00CD42C0F3D1F283E83E0AF
:1001B000380710F428EE33E0283E83E1380710F0CA
:1001C00027EE33E1C901885E9340DF91CF91089516
:1001D0001F920F920FB60F9211242F933F934F93BC
:1001E0005F936F937F938F939F93AF93BF93EF939F
:1001F000FF93809101082091000882FF22C08DDFCB
:1002000088E0809305048091163F803849F410926D
:100210005D3F10925E3F10925F3F1092603F38DF6B
:10022000FF91EF91BF91AF919F918F917F916F91CE
:100230005F914F913F912F910F900FBE0F901F90A4
:1002400018958091383F3091373F90E001963817EC
:10025000190631F3E091383F81E08E0F8093383FEB
:10026000F0E0E95EF04C20838091383F8F718093FD
:10027000383FD6CF1F920F920FB60F9211242F93B3
:100280003F934F935F936F937F938F939F93AF931E
:10029000BF93EF93FF931092400A81E08093460A48
:1002A0008091163F8038B1F410925F3F1092603F0A
:1002B000EFDEFF91EF91BF91AF919F918F917F9171
:1002C0006F915F914F913F912F910F900FBE0F90C3
:1002D0001F90189588E080930604EBCF1F920F9231
:1002E0000FB60F9211248F939F938091080486FD7F
:1002F0001AC01092103F1092113F10920F3F8FE0E2
:100300008093000A1092200A1092210A88E08093BC
:1003100005048FEF809309049F918F910F900FBE7A
:100320000F901F90189580910F3F811107C081E0B9
:1003300090E08093103F9093113FEBCF82E090E0EC
:10034000F8CF1F920F920FB60F9211242F933F9365
:100350004F935F936F937F938F939F93AF93BF93CD
:10036000EF93FF9381E080930B0A1092000A809331
:100370000F3F80910E3F882349F042E050E070E04B
:1003800060E085E19FE3C5D210920E3F88E0809344
:100390000604FF91EF91BF91AF919F918F917F9153
:1003A0006F915F914F913F912F910F900FBE0F90E2
:1003B0001F901895F894C1E088ED84BFC093610048
:1003C000ACDE10925B3F10925C3F8CE380935A3F0F
:1003D0001092063F1092053F10920102809117047F
:1003E000877F8093170480E094E0809308089093BF
:1003F000090880E8809305088093060883E08093CD
:1004000007081092373F1092383F80EC8093653F89
:1004100082E08093010484E0809301041092130829
:100420009CE09093100880931608C0931308C09323
:10043000150842E06BE47AE880EC0DDE41E06AE406
:100440007AE880EC08DE42E068E47AE880EC03DEDB
:1004500042E050E070E060E085E19FE35AD2809195
:10046000153F807F803F61F41092153F8AE08093B2
:10047000163F42E050E070E060E085E19FE34DD23E
:100480001092123F1092133F81E09091163F9038E6
:1004900009F080E059DE1092000A8FE08093050A8F
:1004A00080E19AE78093260A9093270A81E080935F
:1004B0000A0A20E030E520934C0A30934D0A20913F
:1004C0004C0A30914D0A20934A0A30934B0A96E029
:1004D0009093410A8093450A98E09093010490E438
:1004E00090930204809316047894C3E0BC2ED8E065
:1004F000FD2EAA24A394CFEFDFE0EE24E39410E8CE
:10050000912E9091373F8091383F9817D9F0E09124
:10051000373F81E08E0F8093373FF0E0E95EF04C8B
:1005200090818091373F8F718093373F892F887FEB
:10053000883F41F097FF29C0292F207F203FA1F459
:10054000E0920D3F8091103F9091113F81309105D5
:1005500009F4A9C10297A9F642E050E070E060E01A
:1005600085E19FE3DAD1A1C110920D3F30E02093E5
:100570000B3F30930C3F907E81E0903C09F480E08B
:1005800080930A3F1092093FDDCF80910D3F81118A
:10059000D9CF8091093FE82FF0E0E95FF04C9083DC
:1005A0008F5F90910A3F89238093093F8111CACFC1
:1005B00020910B3F30910C3F8090083F7090073F97
:1005C0002039310509F082C0882009F48BC088EEFB
:1005D000870D813308F0B6CF80910E3F882331F02C
:1005E00010920E3F9092163F81E0AEDD8091163F53
:1005F000803809F0A7CFC0905B3FD0905C3FC1141A
:10060000D10409F0B2C02091143F90E080E0222391
:10061000A1F0FC01EE0FFF1FEE0FFF1FE75CF04C97
:100620003381332321F03081731609F48BCF019687
:100630008830910571F790E080E0FC01EE0FFF1F1C
:10064000EE0FFF1FE75CF04CDF0113963381311191
:1006500086C02F5F2093143F70828182AC9290916C
:10066000593F92838093593F45DD80DD8093633FFE
:100670009093643FCA94CD2809F082C08091063FD0
:10068000E0E28E9FC00111248093613F9093623F0E
:10069000C0935D3FD0935E3FC0935F3FD093603F78
:1006A000F7DC8091163F803809F0FAC080915D3FF9
:1006B00090915E3F892B09F0F3C0F09206041092EE
:1006C0004A0A10924B0AB092400A3CCF203B3105B7
:1006D00009F4B9C0203E310509F489C0203831053C
:1006E00009F030CF8091163F803809F02BCF02DD22
:1006F000C0905B3FD0905C3FC114D10409F051C061
:1007000030E020E0922FA901440F551F440F551FE0
:10071000FA01E75CF04C6081761205C0DF011396A8
:1007200063816111C7C02F5F3F4F2830310551F7FA
:100730009091143F9923D9F1781609F453C0DADC6B
:1007400015DD8093633F9093643FE091593F24E02F
:10075000E29FF0011124E75CF04C818138C00196E2
:100760008830910509F069CFEDCE8091053F811168
:10077000E9CE70925A3F8092063FE092053F74CFD7
:10078000E091593F84E0E89FF0011124E75CF04CD0
:10079000818176CF2F5F3F4F2830310509F0A7C008
:1007A000C7CF90915A3F79121BC01092053F10920B
:1007B0005D3F10925E3F9EDCD9DC8093633F909357
:1007C000643FCA94CD2809F0C0CF8091063FE0E293
:1007D0008E9FC00111248093613F9093623F60CF50
:1007E0007812E9CFC0935F3FD093603FE4CF909100
:1007F0000E3F992339F01092163F10920E3F80E081
:10080000A3DC81E0072D000F182D980193E03695A9
:1008100027959A95E1F7A90158504093123F5093BC
:10082000133F9091163F903839F464DC9FDC80933D
:10083000633F9093643F34CF91112FC020935D3F6D
:1008400030935E3F2DCF772009F47CCE90910E3F00
:10085000992349F07092163F10920E3F80E074DCAD
:10086000F092060481E04091163F7416B0F050E01B
:10087000E72DF0E0BA016D5F7F4F6E177F076CF0D8
:10088000E41BF50BEE0FFF1FE35AF04C20E2829EB3
:10089000C00111248083918303CF811101CF52CEF7
:1008A000F09205040CCFE0920E3F1092103F109290
:1008B000113F27CE1C922091143F222319F0215082
:1008C0002093143F2091593F29130FC02091143FCA
:1008D000222359F0E091593F24E0E29FF0011124D6
:1008E000E75CF04C22812093593F30E020E0F90191
:1008F000EE0FFF1FEE0FFF1FE75CF04CDF011296BB
:100900006281691347CF475C504CFA0192819C93F6
:100910000FCF60507C4E0C94C404DC01A40FB51FB3
:100920004150504048F0CB01840F951F2E910E94FA
:100930009E0441505040D0F70895262F0E94C004D5
:100940000080021619F00E94A904019701970895EA
:10095000262FAF93BF93E0E0F0E1328131FDFDCF70
:10096000DC01A050BC4E2C932DE924BF23E0208352
:100970000196BF91AF91089503D080819927089582
:10098000FC01E050FC4E0895FB01DC0102C0019027
:100990000D9241505040D8F7089597FB072E16F45A
:1009A000009406D077FD08D039D007FC05D03EF47E
:1009B000909581959F4F0895709561957F4F08950B
:1009C000A1E21A2EAA1BBB1BFD010DC0AA1FBB1F53
:1009D000EE1FFF1FA217B307E407F50720F0A21BC5
:1009E000B30BE40BF50B661F771F881F991F1A9432
:1009F00069F760957095809590959B01AC01BD015C
:100A0000CF010895A29FB001B39FC001A39F01D061
:100A1000B29F700D811D1124911D0895AA1BBB1B4F
:100A200051E107C0AA1FBB1FA617B70710F0A61BEE
:100A3000B70B881F991F5A95A9F780959095BC010F
:080A4000CD010895F894FFCFE9
:050A4800A000CF000634
:00000001FF
