:1000000019C033C032C031C030C02FC02EC02DC087
:10001000B5C12BC02AC029C028C01BC226C025C01C
:1000200024C023C022C021C020C01FC084C01DC066
:100030001CC01BC011241FBECFEFCDBFDFE3DEBF4E
:100040001FE3A0E0BFE3ECE7FDE002C005900D92E6
:10005000A230B107D9F72FE3A2E0BFE301C01D92A0
:10006000A535B207E1F70DD287C2CACF90E080E094
:10007000FC01EE0FFF1FEB5BF04C1082118201962A
:1000800088309105A9F71092443F81E080930102E6
:1000900080911204877F8093120480E098E080931F
:1000A00008089093090880E8809305088093060863
:1000B00083E08093070808954091003F8091033FBB
:1000C000480F5527551F4056510930E020E067E0A2
:1000D0007CE7D901AA0FBB1FAB5BB04C8C9190E0C1
:1000E0000C96E3E0880F991FEA95E1F7629FF00113
:1000F000639FF00D1124EC5FF04C848395838C9109
:10010000811109C01082118273832F5F3F4F283005
:100110003105F9F60895A481B581A40FB51FAA0F82
:10012000BB1FA458BA478D919C9180839183809185
:10013000013F8683EACF1F920F920FB60F921124D0
:100140002F933F934F935F936F937F938F939F93DF
:10015000AF93BF93EF93FF939091010880910008B4
:1001600092FF15C088E08093060480DFFF91EF9135
:10017000BF91AF919F918F917F916F915F914F91BF
:100180003F912F910F900FBE0F901F901895982FB1
:10019000987F983F59F387FF24C0982F907F903F16
:1001A00029F390E0B4E096958795BA95E1F78770CA
:1001B00099278093423F9093433F8091423F909193
:1001C000433F049741F02091423F3091433F81E00B
:1001D0002530310509F480E08093413F1092403F83
:1001E000C5CFE091403F91E09E0F9093403FF0E0FB
:1001F000E25CF04C80839091413F8091403F8923A5
:100200008093403F8091403F8111B0CF2091423F89
:100210003091433F80913F3F90913E3F21303105E7
:1002200019F4882309F44DC02091423F3091433F97
:100230002130310561F008F444C02330310509F460
:1002400094C02630310509F496C036DF8FCF8BEE8F
:10025000890F8734D0F78091443F8830B0F7E09120
:10026000443FF0E0EE0FFF1FEB5BF04C9083E0911A
:10027000443FF0E0EE0FFF1FEB5BF04C9183809169
:10028000443F8F5F8093443FE091443FE150FF0B38
:10029000EE0FFF1FEB5BF04C8081E091443FE1509B
:1002A000FF0BEE0FFF1FEB5BF04C818188E8809322
:1002B000050410924A0A10924B0A83E08093400A88
:1002C000C4CF8BEE890F873408F0BFCF8091443FB5
:1002D000882309F4BACF80E02091443F821708F0C8
:1002E000B4CFE82FF0E0EE0FFF1FEB5BF04C208166
:1002F000921711F08F5FF0CF883009F4A6CF90915C
:10030000443F891790F4E82FF0E0DF01AA0FBB1FEC
:10031000A95BB04C9C91EE0FFF1FEB5BF04C908300
:1003200011969C9191838F5FEACF8091443F8150D9
:100330008093443F8091443F882399F0E091443F6B
:10034000E150FF0BEE0FFF1FEB5BF04C8081E09163
:10035000443FE150FF0BEE0FFF1FEB5BF04C818140
:1003600074CF88E08093060470CF913009F06DCF90
:100370008093013F6ACF8093003F67CF1F920F9217
:100380000FB60F9211242F933F934F935F936F9368
:100390008F939F93AF93BF93EF93FF9380913D3FD4
:1003A0008093810680913C3F8F5F80933C3F80919A
:1003B0003C3F8F7780933C3F30E020E090E080E04E
:1003C00067E040913C3F41110DC0629FF001639F87
:1003D000F00D1124EC5FF04C4681442319F0468166
:1003E00041504683629FF001639FF00D1124EC5F42
:1003F000F04CA081B181428153814A0F5B1F42833F
:100400005383438150E05595479555954795840F03
:10041000951F2F5F3F4F2830310599F6805891097D
:100420009595879580589F4F80933D3F81E08093BD
:100430000B0AFF91EF91BF91AF919F918F916F91B7
:100440005F914F913F912F910F900FBE0F901F9092
:1004500018951F920F920FB60F9211248F93EF935E
:10046000FF93E0E4FAE0108281E0868380E88093E5
:100470000604FF91EF918F910F900FBE0F901F9088
:100480001895F89488ED90E084BF90936100809176
:10049000A00083608093A0008091A1008160809380
:1004A000A10080911604887F809316048091160421
:1004B00084608093160480911604877F80931604CD
:1004C00081EC80938006D2DD1092000A8FE0809349
:1004D000050A8FE891E08093260A9093270A81E02D
:1004E00080930A0A8093000A20E030EA20934C0AA5
:1004F00030934D0A96E09093410A8093450A94E028
:10050000909300069093010692E5909302068093E3
:10051000060695E0909300068093080688E880938D
:10052000010490E080E037E020E8389FF001399F37
:10053000F00D1124EC5FF04C148215822383019698
:100540008830910591F77894C1E02091033FC093E2
:1005500008068091080680FDFCCF809110069091DE
:10056000110636E0969587953A95E1F7281779F3C5
:0C0570008093033FA1DDE9CFF894FFCF9A
:10057C00060006000600060006000600060007003E
:10058C000700070007000700070007000700070027
:10059C000700070007000700070007000700070017
:1005AC000700080008000800080008000800080000
:1005BC0008000800080008000800080008000800EF
:1005CC0008000900090009000900090009000900D8
:1005DC0009000900090009000900090009000900C7
:1005EC000A000A000A000A000A000A000A000A00AF
:1005FC000A000A000A000A000A000B000B000B009C
:10060C000B000B000B000B000B000B000B000B0086
:10061C000B000C000C000C000C000C000C000C006F
:10062C000C000C000C000C000D000D000D000D005A
:10063C000D000D000D000D000D000D000D000E0045
:10064C000E000E000E000E000E000E000E000E002E
:10065C000F000F000F000F000F000F000F000F0016
:10066C000F001000100010001000100010001000FF
:10067C0010001100110011001100110011001100E7
:10068C0011001200120012001200120012001200CF
:10069C0012001300130013001300130013001300B7
:1006AC00140014001400140014001400140015009D
:1006BC001500150015001500150016001600160083
:1006CC001600160016001700170017001700170069
:1006DC00170018001800180018001800180019004E
:1006EC0019001900190019001A001A001A001A0032
:1006FC001A001A001B001B001B001B001B001C0017
:10070C001C001C001C001D001D001D001D001D00F8
:10071C001E001E001E001E001E001F001F001F00DA
:10072C001F002000200020002000210021002100BB
:10073C00210022002200220022002300230023009B
:10074C00230024002400240024002500250025007B
:10075C00250026002600260027002700270027005A
:10076C0028002800280029002900290029002A0037
:10077C002A002A002B002B002B002C002C002C0014
:10078C002D002D002D002E002E002E002F002F00EE
:10079C002F003000300030003100310031003200C9
:1007AC0032003200330033003400340034003500A2
:1007BC00350035003600360037003700370038007A
:1007CC003800390039003A003A003A003B003B004F
:1007DC003C003C003D003D003D003E003E003F0023
:1007EC003F004000400041004100420042004300F5
:1007FC0043004400440045004500460046004700C5
:10080C00470048004800490049004A004A004B0094
:10081C004B004C004C004D004E004E004F004F0062
:10082C00500050005100520052005300530054002D
:10083C0055005500560056005700580058005900F6
:10084C005A005A005B005C005C005D005E005E00BC
:10085C005F00600060006100620063006300640080
:10086C0065006500660067006800680069006A0042
:10087C006B006B006C006D006E006F006F00700001
:10088C0071007200730074007400750076007700BC
:10089C00780079007A007A007B007C007D007E0075
:1008AC007F00800081008200830084008500860028
:1008BC008700880089008A008B008C008D008E00D8
:1008CC008F00900091009200930094009500960088
:1008DC009700980099009A009C009D009E009F0034
:1008EC00A000A100A200A400A500A600A700A800DB
:1008FC00AA00AB00AC00AD00AF00B000B100B3007B
:10090C00B400B500B600B800B900BA00BC00BD0018
:10091C00BF00C000C100C300C400C600C700C800AF
:10092C00CA00CB00CD00CE00D000D100D300D40043
:10093C00D600D700D900DB00DC00DE00DF00E100D0
:10094C00E300E400E600E800E900EB00ED00EE0057
:10095C00F000F200F400F500F700F900FB00FD00D8
:10096C00FF00000102010401060108010A010C014B
:10097C000E01100112011401160118011A011C01BB
:10098C001E01200122012401260128012A012D012A
:10099C002F0131013301350138013A013C013E018F
:1009AC0041014301450148014A014D014F015101EB
:1009BC005401560159015B015E016001630166013E
:1009CC0068016B016D0170017301750178017B0188
:1009DC007E0180018301860189018C018E019101C8
:1009EC00940197019A019D01A001A301A601A901FF
:1009FC00AC01AF01B301B601B901BC01BF01C30128
:100A0C00C601C901CC01D001D301D701DA01DD0146
:100A1C00E101E401E801EB01EF01F301F601FA0158
:100A2C00FE010102050209020C0210021402180256
:100A3C001C022002240228022C023002340238024A
:100A4C003C024002440249024D02510255025A0234
:100A5C005E02620267026B027002740279027D020E
:100A6C00820287028B02900295029A029F02A302D5
:100A7C00A802AD02B202B702BC02C102C602CC028D
:100A8C00D102D602DB02E102E602EB02F102F6022F
:100A9C00FC02010307030C03120318031D032303B9
:100AAC0029032F0335033B03410347034D03530332
:100ABC0059035F0366036C03720379037F03860398
:100ACC008C0393039903A003A703AE03B403BB03E6
:100ADC00C203C903D003D703DE03E603ED03F4031B
:100AEC00FC0303040A04120419042104290430042D
:100AFC00380440044804500458046004680470042A
:100B0C0078048104890492049A04A304AB04B40409
:100B1C00BD04C504CE04D704E004E904F204FB04CC
:100B2C0005050E05170521052A0534053E05470563
:100B3C0051055B0565056F05790583058D059805E0
:100B4C00A205AC05B705C205CC05D705E205ED0538
:100B5C00F80503060E061906250630063B06470661
:100B6C0053065E066A06760682068E069A06A70667
:100B7C00B306BF06CC06D906E506F206FF060C073F
:100B8C0019072607330741074E075C0769077707E4
:100B9C0085079307A107AF07BD07CC07DA07E9075D
:100BAC00F80706081508240833084308520861089A
:100BBC00710881089008A008B008C008D108E108A5
:100BCC00F10802091309240934094609570968096F
:100BDC007A098B099D09AF09C109D309E509F70900
:100BEC000A0A1C0A2F0A420A550A680A7C0A8F0A4A
:100BFC00A30AB60ACA0ADE0AF20A070B1B0B300B51
:100C0C00450B590B6F0B840B990BAF0BC40BDA0B09
:100C1C00F00B060C1D0C330C4A0C600C770C8F0C73
:100C2C00A60CBD0CD50CED0C050D1D0D350D4E0D8A
:100C3C00660D7F0D980DB20DCB0DE50DFE0D180E4A
:100C4C00320E4D0E670E820E9D0EB80ED30EEF0EA9
:100C5C000B0F270F430F5F0F7B0F980FB50FD20FA2
:100C6C00F00F0D102B10491067108610A410C31034
:100C7C00E21002112111411161118111A211C21155
:100C8C00E31104122612481269128C12AE12D11200
:100C9C00F41217133A135E138213A613CA13EF132D
:100CAC00141439145F148514AB14D114F8141F15D3
:100CBC0046156D159515BD15E5150E1637166016EE
:100CCC008A16B316DE16081733175E178917B51771
:100CDC00E1170D183A1867189418C118EF181E1957
:100CEC004C197B19AA19DA190A1A3A1A6B1A9C1A96
:100CFC00CD1AFF1A311B641B961BCA1BFD1B311C22
:100D0C00651C9A1CCF1C051D3A1D711DA71DDE1DEF
:100D1C00161E4E1E861EBE1EF71E311F6B1FA51FF4
:100D2C00E01F1B2056209220CF200C214921872127
:100D3C00C521042243228222C22203234423852379
:100D4C00C72309244C249024D32418255D25A225DF
:100D5C00E8252E267526BC2604274C279527DF2749
:100D6C0029287328BE280A295629A329F0293E2AA6
:020D7C00407FB6
:00000001FF
