:1000000019C033C032C031C030C02FC02EC02DC087
:1000100046C22BC02AC029C028C011C326C025C093
:1000200024C023C022C021C020C01FC0B3C01DC037
:100030001CC01BC011241FBECFEFCDBFDFE3DEBF4E
:100040001FE3A0E0BFE3E3EDFFE002C005900D92E7
:10005000A430B107D9F72FE3A4E0BFE301C01D929C
:10006000A733B207E1F703D3B0C3CACF90E080E073
:10007000FC01EE0FFF1FE95DF04C1082118201962A
:1000800088309105A9F71092263F81E08093010204
:1000900080911204877F8093120480E098E080931F
:1000A00008089093090880E8809305088093060863
:1000B00083E08093070808952091003F3091013F2D
:1000C000422F41709091053F892F8170481729F088
:1000D00030622093003F3093013F2091003F3091E8
:1000E000013F369527952093003F3093013F4423ED
:1000F00019F090629093053F2091053F30E03595CF
:1001000027952093053F089520911E3F30911F3F72
:100110008091023F20563109280F311D8091063F02
:10012000820F932F911DFC01EE0FFF1FE253F84742
:10013000208131812093113F3093123FE091193F8C
:10014000EE2381F0F0E0EE0FFF1FE80FF91FEE0F36
:10015000FF1FEE52FA478081918180930F3F909369
:10016000103F089590E080E0F8CF45E050E070E067
:1001700060E089E19FE3E5D28091193F87FF09C0E4
:1001800085E0EEECFFE8A9E1BFE301900D928A95CE
:10019000E1F708951F920F920FB60F9211240F935B
:1001A0001F932F933F934F935F936F937F938F93FF
:1001B0009F93AF93BF93CF93DF93EF93FF93909170
:1001C00001088091000892FF19C088E0809306041E
:1001D0004DDFFF91EF91DF91CF91BF91AF919F9153
:1001E0008F917F916F915F914F913F912F911F91CF
:1001F0000F910F900FBE0F901F901895982F987F1A
:10020000983F39F387FF24C0982F907F903F09F3E0
:1002100090E014E0969587951A95E1F787709927F5
:100220008093243F9093253F8091243F9091253FD8
:10023000049741F02091243F3091253F81E0253003
:10024000310509F480E08093233F1092223FC1CF13
:10025000E091223F91E09E0F9093223FF0E0E05E1C
:10026000F04C80839091233F8091223F892380939B
:10027000223F8091223F8111ACCF2091243F3091C9
:10028000253F9091213F8091203F2130310519F485
:10029000992309F467C02091243F3091253F2330F2
:1002A000310509F4B3C048F42115310509F45AC0E9
:1002B0002130310561F028DF8CCF2430310509F47D
:1002C000C5C026303105B9F79093023FF4CF9BEEBD
:1002D000980F9734C8F59091263F9830A8F5E09193
:1002E000263FF0E0EE0FFF1FE95DF04C8083E091C8
:1002F000263FF0E0EE0FFF1FE95DF04C8183809117
:10030000263F8F5F8093263FE091263FE150FF0B11
:10031000EE0FFF1FE95DF04C80818093163FE09166
:10032000263FE150FF0BEE0FFF1FE95DF04C81818E
:100330008093173F88E88093050410924A0A109230
:100340004B0A83E08093400A8091163F90E00C9620
:1003500023E0880F991F2A95E1F780931E3F909321
:100360001F3FA9CF9BEE980F973470F79091263FCF
:10037000992351F390E02091263F921728F7E92F17
:10038000F0E0EE0FFF1FE95DF04C2081281711F01F
:100390009F5FF1CF9830C1F28091263F981790F47B
:1003A000E92FF0E0DF01AA0FBB1FA75DB04C8C91D5
:1003B000EE0FFF1FE95DF04C808311968C918183D5
:1003C0009F5FEACF8091263F81508093263F8091A6
:1003D000263F8823B9F0E091263FE150FF0BEE0F56
:1003E000FF1FE95DF04C80818093163FE091263F2E
:1003F000E150FF0BEE0FFF1FE95DF04C8181809310
:10040000173FA2CF88E0809306049ECF8530C1F0CD
:1004100040F48130C1F0823009F04DCF90931D3F00
:100420004ACF873051F030F0883009F044CF9093B4
:100430001C3F41CF9093193F3ECF90931A3F3BCF43
:1004400090931B3F38CF9093183F35CF813081F088
:1004500068F08230B9F0873009F02DCF45E050E0E8
:1004600070E060E089E19FE370D125CF7EDE23CF8D
:1004700085E0EEECFFE8A9E1BFE301900D928A95DB
:10048000E1F719CFC9E1DFE30EE11FE315DE80914B
:10049000003F8F7789930C171D07C1F70CCF1F9270
:1004A0000F920FB60F9211242F933F934F935F93A8
:1004B0006F937F938F939F93AF93BF93CF93DF936C
:1004C000EF93FF938091153F809381062091133F16
:1004D0003091143F4091113F5091123F8091133F52
:1004E0009091143F840F951F8093133F9093143F76
:1004F00080910F3F9091103F40910D3F50910E3FE2
:10050000840F951F80930D3F90930E3F4091133FB2
:100510005091143F4217530758F420910C3F31E09B
:10052000232720930C3F992780930D3F90930E3FF4
:1005300080910B3F815080930B3F2091183F811198
:1005400015C08091093F90910A3F820F911D8093C1
:10055000093F90930A3F97FF02C080959095809342
:10056000073F9093083F80E280930B3F21110BC01F
:100570008091093F90910A3F009729F0019780935D
:10058000093F90930A3F4091143F20911A3F30E079
:1005900080911C3F90E080589F4F5091083F851BF1
:1005A0009109481719061CF4319521953109C0911C
:1005B0001B3FD0E080910C3F882319F0D195C19565
:1005C000D109C20FD31F78DD20911D3F30E080FF9D
:1005D00003C031952195310980910E3F90E02C0F99
:1005E0003D1F280F391F9091193F892F90E080956A
:1005F0009095820F931F9595879580589F4F8F3FB9
:10060000910509F0D4F497FD80E08093153F81E0D7
:1006100080930B0AFF91EF91DF91CF91BF91AF9142
:100620009F918F917F916F915F914F913F912F910A
:100630000F900FBE0F901F9018958FEFE6CF1F926F
:100640000F920FB60F9211248F93EF93FF93E0E474
:10065000FAE0108281E0868380E880930604FF91AF
:10066000EF918F910F900FBE0F901F901895F894F7
:1006700088ED90E084BF909361008091A00083603A
:100680008093A0008091A10081608093A10080915F
:100690001604887F809316048091160484608093EA
:1006A000160480911604877F8093160481EC809352
:1006B0008006DCDC1092000A8FE08093050A8FE848
:1006C00091E08093260A9093270A81E080930A0A9A
:1006D0008093000A20E030EA20934C0A30934D0AC0
:1006E00096E09093410A8093450A94E09093000627
:1006F0009093010692E5909302068093060695E09A
:10070000909300068093080688E8809301042DDD0D
:100710007894C1E02091063FC093080680910806B6
:1007200080FDFCCF809110069091110636E09695E1
:1007300087953A95E1F7281779F38093063FE4DC33
:10074000E9CF60507C4E0C94DC03DC01A40FB51F94
:100750004150504048F0CB01840F951F2E910E94CC
:10076000B60341505040D0F70895262F0E94D80379
:100770000080021619F00E94C103019701970895A5
:10078000262FAF93BF93E0E0F0E1328131FDFDCF42
:10079000DC01A050BC4E2C932DE924BF23E0208324
:1007A0000196BF91AF91089503D080819927089554
:1007B000FC01E050FC4E0895FB01DC0102C00190F9
:0E07C0000D9241505040D8F70895F894FFCFA5
:1007CE0006000600060006000600060006000700EA
:1007DE0007000700070007000700070007000700D3
:1007EE0007000700070007000700070007000700C3
:1007FE0007000800080008000800080008000800AC
:10080E00080008000800080008000800080008009A
:10081E000800090009000900090009000900090083
:10082E000900090009000900090009000900090072
:10083E000A000A000A000A000A000A000A000A005A
:10084E000A000A000A000A000A000B000B000B0047
:10085E000B000B000B000B000B000B000B000B0032
:10086E000B000C000C000C000C000C000C000C001B
:10087E000C000C000C000C000D000D000D000D0006
:10088E000D000D000D000D000D000D000D000E00F1
:10089E000E000E000E000E000E000E000E000E00DA
:1008AE000F000F000F000F000F000F000F000F00C2
:1008BE000F001000100010001000100010001000AB
:1008CE001000110011001100110011001100110093
:1008DE00110012001200120012001200120012007B
:1008EE001200130013001300130013001300130063
:1008FE001400140014001400140014001400150049
:10090E00150015001500150015001600160016002E
:10091E001600160016001700170017001700170014
:10092E0017001800180018001800180018001900F9
:10093E0019001900190019001A001A001A001A00DD
:10094E001A001A001B001B001B001B001B001C00C2
:10095E001C001C001C001D001D001D001D001D00A4
:10096E001E001E001E001E001E001F001F001F0086
:10097E001F00200020002000200021002100210067
:10098E002100220022002200220023002300230047
:10099E002300240024002400240025002500250027
:1009AE002500260026002600270027002700270006
:1009BE0028002800280029002900290029002A00E3
:1009CE002A002A002B002B002B002C002C002C00C0
:1009DE002D002D002D002E002E002E002F002F009A
:1009EE002F00300030003000310031003100320075
:1009FE00320032003300330034003400340035004E
:100A0E003500350036003600370037003700380025
:100A1E003800390039003A003A003A003B003B00FA
:100A2E003C003C003D003D003D003E003E003F00CE
:100A3E003F004000400041004100420042004300A0
:100A4E004300440044004500450046004600470070
:100A5E00470048004800490049004A004A004B0040
:100A6E004B004C004C004D004E004E004F004F000E
:100A7E0050005000510052005200530053005400D9
:100A8E0055005500560056005700580058005900A2
:100A9E005A005A005B005C005C005D005E005E0068
:100AAE005F0060006000610062006300630064002C
:100ABE0065006500660067006800680069006A00EE
:100ACE006B006B006C006D006E006F006F007000AD
:100ADE007100720073007400740075007600770068
:100AEE00780079007A007A007B007C007D007E0021
:100AFE007F008000810082008300840085008600D4
:100B0E008700880089008A008B008C008D008E0083
:100B1E008F00900091009200930094009500960033
:100B2E009700980099009A009C009D009E009F00DF
:100B3E00A000A100A200A400A500A600A700A80086
:100B4E00AA00AB00AC00AD00AF00B000B100B30026
:100B5E00B400B500B600B800B900BA00BC00BD00C4
:100B6E00BF00C000C100C300C400C600C700C8005B
:100B7E00CA00CB00CD00CE00D000D100D300D400EF
:100B8E00D600D700D900DB00DC00DE00DF00E1007C
:100B9E00E300E400E600E800E900EB00ED00EE0003
:100BAE00F000F200F400F500F700F900FB00FD0084
:100BBE00FF00000102010401060108010A010C01F7
:100BCE000E01100112011401160118011A011C0167
:100BDE001E01200122012401260128012A012D01D6
:100BEE002F0131013301350138013A013C013E013B
:100BFE0041014301450148014A014D014F01510197
:100C0E005401560159015B015E01600163016601E9
:100C1E0068016B016D0170017301750178017B0133
:100C2E007E0180018301860189018C018E01910173
:100C3E00940197019A019D01A001A301A601A901AA
:100C4E00AC01AF01B301B601B901BC01BF01C301D3
:100C5E00C601C901CC01D001D301D701DA01DD01F2
:100C6E00E101E401E801EB01EF01F301F601FA0104
:100C7E00FE010102050209020C0210021402180202
:100C8E001C022002240228022C02300234023802F6
:100C9E003C024002440249024D02510255025A02E0
:100CAE005E02620267026B027002740279027D02BA
:100CBE00820287028B02900295029A029F02A30281
:100CCE00A802AD02B202B702BC02C102C602CC0239
:100CDE00D102D602DB02E102E602EB02F102F602DB
:100CEE00FC02010307030C03120318031D03230365
:100CFE0029032F0335033B03410347034D035303DE
:100D0E0059035F0366036C03720379037F03860343
:100D1E008C0393039903A003A703AE03B403BB0391
:100D2E00C203C903D003D703DE03E603ED03F403C6
:100D3E00FC0303040A0412041904210429043004D8
:100D4E0038044004480450045804600468047004D5
:100D5E0078048104890492049A04A304AB04B404B5
:100D6E00BD04C504CE04D704E004E904F204FB0478
:100D7E0005050E05170521052A0534053E0547050F
:100D8E0051055B0565056F05790583058D0598058C
:100D9E00A205AC05B705C205CC05D705E205ED05E4
:100DAE00F80503060E061906250630063B0647060D
:100DBE0053065E066A06760682068E069A06A70613
:100DCE00B306BF06CC06D906E506F206FF060C07EB
:100DDE0019072607330741074E075C076907770790
:100DEE0085079307A107AF07BD07CC07DA07E90709
:100DFE00F807060815082408330843085208610846
:100E0E00710881089008A008B008C008D108E10850
:100E1E00F10802091309240934094609570968091A
:100E2E007A098B099D09AF09C109D309E509F709AB
:100E3E000A0A1C0A2F0A420A550A680A7C0A8F0AF5
:100E4E00A30AB60ACA0ADE0AF20A070B1B0B300BFC
:100E5E00450B590B6F0B840B990BAF0BC40BDA0BB5
:100E6E00F00B060C1D0C330C4A0C600C770C8F0C1F
:100E7E00A60CBD0CD50CED0C050D1D0D350D4E0D36
:100E8E00660D7F0D980DB20DCB0DE50DFE0D180EF6
:100E9E00320E4D0E670E820E9D0EB80ED30EEF0E55
:100EAE000B0F270F430F5F0F7B0F980FB50FD20F4E
:100EBE00F00F0D102B10491067108610A410C310E0
:100ECE00E21002112111411161118111A211C21101
:100EDE00E31104122612481269128C12AE12D112AC
:100EEE00F41217133A135E138213A613CA13EF13D9
:100EFE00141439145F148514AB14D114F8141F157F
:100F0E0046156D159515BD15E5150E163716601699
:100F1E008A16B316DE16081733175E178917B5171C
:100F2E00E1170D183A1867189418C118EF181E1902
:100F3E004C197B19AA19DA190A1A3A1A6B1A9C1A41
:100F4E00CD1AFF1A311B641B961BCA1BFD1B311CCD
:100F5E00651C9A1CCF1C051D3A1D711DA71DDE1D9B
:100F6E00161E4E1E861EBE1EF71E311F6B1FA51FA0
:100F7E00E01F1B2056209220CF200C2149218721D3
:100F8E00C521042243228222C22203234423852325
:100F9E00C72309244C249024D32418255D25A2258B
:100FAE00E8252E267526BC2604274C279527DF27F5
:100FBE0029287328BE280A295629A329F0293E2A52
:050FCE007F000000009F
:040FD30017004000C3
:00000001FF
