:1000000019C033C032C031C030C02FC05BC22DC058
:100010007DC12BC02AC029C028C03EC226C025C031
:1000200024C023C022C021C020C01FC0E4C01DC006
:100030001CC01BC011241FBECFEFCDBFDFE3DEBF4E
:100040001FE3A0E0BFE3E0E0FEE002C005900D92F8
:10005000A430B107D9F72FE3A4E0BFE301C01D929C
:10006000A737B207E1F7A9D205C5CACF30E020E033
:100070008FEFF901EE0FFF1FEE0FFF1FE95AF04C53
:1000800010821182828313822F5F3F4F2830310507
:1000900081F78093563F1092553F1092533F109234
:1000A000543F8093523F8093513F81E080930102FF
:1000B00080911204877F8093120482E08093010470
:1000C00080E098E0809308089093090880E8809386
:1000D000050880EC8093060883E08093070810925F
:1000E000503F10924F3F08958091533F9091543F5D
:1000F000019719F48091523F0895E091563F84E0B2
:10010000E89FF0011124E95AF04C80810895809114
:10011000223F2FE7281B4091533F5091543F4130DD
:10012000510559F49091513F989FC0011124880FB7
:10013000892F881F990B820F0895E091563F94E014
:10014000E99FF0011124E95AF04C9181EDCF8091A3
:10015000173F81110AC080E881B910924A0A1092B3
:100160004B0A83E08093400A089588E8F5CF809198
:10017000163FE82FEF7198E0E99FF0011124E85055
:10018000F44798E0ABE1BFE301900D929A95E1F757
:1001900080768093223F08958091063F9091073F9B
:1001A00040910F3F805591092091043F3091053FC8
:1001B000280F391F8091133F820F932F911D840FB9
:1001C000911D47FD9A9560EC70E040D4FC01EE0F64
:1001D000FF1FE858F5478081918129E030E0261B18
:1001E000310902C0969587952A95E2F78093253FBD
:1001F0009093263F08951F920F920FB60F921124ED
:100200002F933F934F935F936F937F938F939F931E
:10021000AF93BF93CF93EF93FF9380910108C09169
:10022000000882FF16C00B9821DFC0930208FF91DF
:10023000EF91CF91BF91AF919F918F917F916F91EE
:100240005F914F913F912F910F900FBE0F901F9094
:10025000189580914F3F2091503F90E001962817CC
:10026000190679F0E0914F3F81E08E0F80934F3F68
:10027000F0E0E55DF04CC08380914F3F8F7180933B
:100280004F3F8091533F9091543F019771F6C7FFC4
:1002900010C08C2F807F803F61F0803929F48093DB
:1002A0004E3F10924D3FC1CF8038C9F310924E3F60
:1002B000F8CFE0914D3F81E08E0FF0E0E55BF04C30
:1002C000C08390914E3F9039B1F49091023F8130BC
:1002D00041F49F3F11F4C093023F817080934D3FE2
:1002E000A4CF20914B3F2913F8CFC1110DC09FEF30
:1002F0009093023FF2CF903881F7813071F790915F
:10030000023F9C13EACFF3CFC0E0E7CF1F920F92DA
:100310000FB60F9211242F933F934F935F936F93D8
:100320007F938F939F93AF93BF93EF93FF938091AE
:100330002A3F809381062091253F3091263F80916E
:10034000273F9091283F820F931F8093273F9093E0
:10035000283F8091273F9091283F80589F4F2091C0
:10036000243F921730F42091233F31E0232720933C
:10037000233F9093243F692F70E090911A3F209182
:100380001C3F30E080911D3F8158891B990B6817F5
:1003900079071CF031952195310990911F3F892FE4
:1003A00090E04091233F411103C0919581959109BF
:1003B000280F391F9091193F892F8174E091003FD8
:1003C000F091013FAF01440F551F4093003F509300
:1003D000013FEF2FEE1FEE27EE1F990F9E2B9093FC
:1003E000193F813011F0803429F441604093003F7F
:1003F0005093013F9091203F892F90E04091003F22
:1004000040FF03C0919581959109280F391FE09114
:10041000293F40911B3F50E0440F551F80E890E07A
:10042000DC01A61BB70B4A9FC0014B9F900D5A9F42
:10043000900D1124892F990F990B820F931F81150D
:10044000BFEF9B0714F480E09FEF8F3F910519F0F9
:1004500014F08FEF90E0E89F9001E99F300D112498
:10046000832F992787FD9A9580589F4F80932A3F25
:1004700081E080930B0AFF91EF91BF91AF919F9123
:100480008F917F916F915F914F913F912F910F903D
:100490000FBE0F901F9018951F920F920FB60F92DC
:1004A00011248F931092400A81E08093460A0F989E
:1004B0008091183F81110B9A8F910F900FBE0F9072
:1004C0001F9018951F920F920FB60F9211242F9321
:1004D0003F934F935F936F937F938F939F93AF93CC
:1004E000BF93EF93FF938091143F9091153F019636
:1004F0008093143F9093153F8091143F9091153F46
:100500009F738093143F9093153F8091143F909177
:10051000153F892B39F442E050E070E060E086E15D
:100520009FE354D2809110069091110624E0969595
:1005300087952A95E1F78093133F2091113F3091E1
:10054000123FE32FFF27E050F347808140911E3F89
:10055000849FA001112450931A3F8058990B6091F9
:10056000103F689FA001699F500D112450930F3FC9
:100570008091213F44E0849FC0011124265F3F4FBA
:10058000820F931F8093113F9093123F05DE81E00D
:100590008093080680934301FF91EF91BF91AF9143
:1005A0009F918F917F916F915F914F913F912F918B
:1005B0000F900FBE0F901F901895F89488ED90E063
:1005C00084BF909361008091A00083608093A0001D
:1005D0008091A10081608093A10080911604887FA2
:1005E0008093160480911604846080931604809191
:1005F0001604877F8093160481EC8093800636DD95
:100600001092000A8FE08093050A89E091E08093C0
:10061000260A9093270A81E080930A0A8093000AB1
:1006200098E09093130120E030EA20934C0A309335
:100630004D0A96E09093410A8093450A1092470133
:10064000809141018111FCCF81E090E080934A01CB
:1006500090934B018091420181608093420189E92E
:100660008093400184E0809300068093010682E538
:100670008093020681E08093060695E09093000641
:100680008093080688E880B942E050E070E060E0BE
:1006900086E19FE397D18091173F807F803F59F497
:1006A0001092173F1092163F42E050E070E060E079
:1006B00086E19FE38BD15BDD7894FF24FA94D1E04F
:1006C0009091503F80914F3F9817D1F3E091503F68
:1006D00081E08E0F8093503FF0E0E55DF04C90811B
:1006E0008091503F8F718093503F892F887F883F42
:1006F00039F397FF18C0292F207F203F19F4D0939A
:100700000E3FDECF10920E3F30E020930C3F30932F
:100710000D3F907E81E0903C09F480E080930B3F98
:1007200010920A3FCDCF80910E3F8111C9CF8091A9
:100730000A3FE82FF0E0E85FF04C90838F5F9091E4
:100740000B3F892380930A3F8111BACF20910C3F40
:1007500030910D3F8091093FC091083F203931050C
:1007600009F045C0882309F44AC09FEF9C0F9936D1
:1007700008F0A6CF2091533F3091543F232B09F02E
:100780007FC09091553F30E020E09923A9F0F90116
:10079000EE0FFF1FEE0FFF1FE95AF04C4381442379
:1007A00021F040814C1709F45EC02F5F3F4F283085
:1007B000310569F730E020E0F901EE0FFF1FEE0F81
:1007C000FF1FE95AF04CDF0113964381411145C0E8
:1007D0009F5F9093553FC0838183DC938091563F08
:1007E00082832093563FD093183FB1DC3CC0203B1E
:1007F000310509F464C038F52038310561F574DC41
:100800002091533F3091543F232B09F049C030E0F1
:1008100020E0622FA901440F551F440F551FFA0114
:10082000E95AF04C9081C91305C0DF0113969381FA
:1008300091119AC02F5F3F4F2830310551F78C132B
:1008400038C085DC36C0203C310509F467C0203E45
:10085000310509F46BC0A0DC33CF2F5F3F4F283048
:10086000310509F0A9CF40DC20E1829FC0011124AD
:100870008093063F9093073F4ADC8093293FEBCF5C
:100880009091523F9F3F79F7C093523F8093513FE1
:10089000AACF2F5F3F4F2830310509F07EC08EC0B0
:1008A0009091523FC913CBCFF092523F1092183F14
:1008B0000B981ADCF0E18F9FC0011124D9CFE8EF2B
:1008C000FCE830E020E091919C130DC0255E304C97
:1008D000F9018083C434A1F060F4C13009F0BBCFCA
:1008E0008093103FB8CF2F5F3F4F2830310559F725
:1008F000F1CFC83781F0CB3709F0ADCF11B8ABCF0E
:1009000091E0813408F490E09093173F1092143FE7
:100910001092153FA0CF1092293F9DCFC093163F54
:100920001092143F1092153F22DC95CF0C2F000F30
:10093000182F9801305437FF02C02D5F3F4F359577
:10094000279535952795C901880F991F820F931F09
:1009500097FDCF9626E0959587952A95E1F78093A8
:10096000043F9093053F77CF1C929091553F915053
:100970009093553F2091563F26130DC0992359F06F
:10098000E091563F24E0E29FF0011124E95AF04C37
:1009900022812093563F30E020E0F901EE0FFF1F47
:1009A000EE0FFF1FE95AF04CDF01129672817613A9
:1009B00070CF495A504CFA0122812C93992309F4A3
:1009C00075CF3DCF60507C4E0C941D05DC01A40F0B
:1009D000B51F4150504048F0CB01840F951F2E9118
:1009E0000E94F70441505040D0F70895262F0E94EE
:1009F00019050080021619F00E940205019701975F
:100A00000895262FAF93BF93E0E0F0E1328131FDEE
:100A1000FDCFDC01A050BC4E2C932DE924BF23E078
:100A200020830196BF91AF91089503D080819927CB
:100A30000895FC01E050FC4E0895FB01DC0102C06A
:100A400001900D9241505040D8F70895AA1BBB1B4E
:100A500051E107C0AA1FBB1FA617B70710F0A61BBE
:100A6000B70B881F991F5A95A9F780959095BC01DF
:080A7000CD010895F894FFCFB9
:100A7800040F120F200F2E0F3C0F4A0F580F670F4D
:100A8800750F830F920FA00FAF0FBD0FCC0FDA0FAA
:100A9800E90FF80F061015102410331042105110EA
:100AA80060106F107F108E109D10AD10BC10CC1010
:100AB800DB10EB10FA100A111A112A113A114A1117
:100AC8005A116A117A118A119A11AA11BB11CB1104
:100AD800DC11EC11FD110E121E122F1240125112D0
:100AE8006212731284129512A612B712C912DA1280
:100AF800EC12FD120F13201332134413561368130C
:100B08007A138C139E13B013C213D413E713F9137B
:100B18000C141E1431144414561469147C148F14C4
:100B2800A214B514C814DC14EF14021516152915EF
:100B38003D155115641578158C15A015B415C815F3
:100B4800DC15F015051619162E16421657166B16D3
:100B580080169516AA16BF16D416E916FE1614178F
:100B680029173E1754176A177F179517AB17C11720
:100B7800D717ED17031819182F1846185C1873188B
:100B88008A18A018B718CE18E518FC1813192A19CE
:100B98004219591970198819A019B719CF19E719E5
:100BA800FF19171A2F1A481A601A781A911AA91ACF
:100BB800C21ADB1AF41A0D1B261B3F1B581B711B8C
:100BC8008B1BA41BBE1BD81BF11B0B1C251C3F1C1D
:100BD800591C741C8E1CA91CC31CDE1CF81C131D7C
:100BE8002E1D491D641D801D9B1DB61DD21DED1DAA
:100BF8007F00000000000000007F000000000000EF
:100C0800007F200000000000007F48000000000076
:100C1800007F700000000000000000007F0000005E
:100C280000000000007F00007F7F0000000000003F
:100C38007F7F2000000000007F7F48000000000048
:100C48007F7F7000000000007F0000007F00000030
:100C5800007F00007F000000007F20007F00000070
:100C6800007F48007F000000007F70007F000000C8
:100C78005555000055000000007F004000000800A6
:100C8800007F204000000800007F48400000080066
:100C9800007F7040000008007F7F004000000800CF
:100CA8007F7F2040000008007F7F48400000080048
:100CB8007F7F704000000800007F00407F00080030
:100CC800007F20407F000800007F48407F00080028
:100CD800007F70407F00080055550040550008000F
:100CE800007F40407F007F005555004055007F0041
:100CF8000405414243452524808386898C8F92953B
:100D0800989C9FA2A5A8ABAEB0B3B6B9BCBFC1C4EE
:100D1800C7C9CCCED1D3D5D8DADCDEE0E2E4E6E848
:100D2800EAECEDEFF0F2F3F5F6F7F8F9FAFBFCFC74
:100D3800FDFEFEFFFFFFFFFFFFFFFFFFFFFFFEFEC1
:100D4800FDFCFCFBFAF9F8F7F6F5F3F2F0EFEDEC41
:100D5800EAE8E6E4E2E0DEDCDAD8D5D3D1CECCC9E5
:100D6800C7C4C1BFBCB9B6B3B0AEABA8A5A29F9C5F
:100D78009895928F8C898683807D7A7774716E6B53
:100D88006864615E5B585552504D4A4744413F3C48
:100D9800393734322F2D2B28262422201E1C1A18CE
:100DA80016141311100E0D0B0A0908070605040482
:100DB8000302020101010101010101010101020215
:100DC80003040405060708090A0B0D0E1011131475
:100DD80016181A1C1E20222426282B2D2F323437B1
:100DE800393C3F4144474A4D505255585B5E616417
:080DF800686B6E7174777A7D5F
:040E00001700FF00D8
:00000001FF
