:100000000EC01BC01AC025C019C017C016C015C02D
:1000100014C013C012C011C010C00FC00EC01124F4
:100020001FBECFEDCDBF20E0A0E6B0E001C01D9225
:10003000A536B207E1F71AD094C0E2CF1F920F9213
:100040000FB60F921124C3980F900FBE0F901F9000
:1000500018951F920F920FB60F92112408B602FE48
:10006000C39A0F900FBE0F901F90189583E08ABD22
:1000700083BF789480E48CBD8FEF8DBD87EC80BF0B
:1000800087E886B987B5826087BD8BE891E00197E4
:10009000F1F707B400FEFDCF87B5846087BD8BE123
:1000A00087BB83EF8ABD91E093BF85EB80BF80E77C
:1000B0008CBD89B7846489BF84E084BB86E886B937
:1000C00097B9369ACCECD0E04FEF05E010E03699C6
:1000D000FECF94B185B1892798278927369ABE012A
:1000E0002CD09B01982F80E0BE0127D0F62E4093A4
:1000F000600040936100409362004093630040932E
:100100006400C9019927FC01E05AFF4F262F209572
:1001100020830496B80111D0FC01E05AFF4FF08211
:100120008091600089BD8091610088BD80916200EE
:100130008EBD809163008BBDCACFAA1BBB1B51E152
:1001400007C0AA1FBB1FA617B70710F0A61BB70B47
:10015000881F991F5A95A9F780959095BC01CD01EC
:060160000895F894FFCFA2
:00000001FF
