:1000000019C033C032C053C130C02FC02EC02DC064
:1000100081C12BC02AC029C028C027C026C025C046
:1000200024C023C022C021C020C01FC062C01DC088
:100030001CC01BC011241FBECFEFCDBFDFE3DEBF4E
:100040001FE3A0E0BFE3ECE6F4E002C005900D92F0
:10005000A230B107D9F72FE3A2E0BFE301C01D92A0
:10006000AF31B207E1F776D1FFC1CACF20E42093C8
:1000700017082091150826FFFCCF22E020931408D2
:10008000FC012081209318082091150826FFFCCF41
:10009000FC018181809318088091150886FFFCCFB0
:1000A00083E080931408089590E080E0FC01EE0F57
:1000B000FF1FE15FF04C108211820196883091059C
:1000C000A9F710920E3F1092010280911704877FCA
:1000D0008093170480E094E08093080890930908C7
:1000E00080E8809305088093060883E080930708E2
:1000F00008951F920F920FB60F9211242F933F93E2
:100100004F935F936F937F938F939F93AF93BF931F
:10011000EF93FF93909101088091000892FF15C022
:1001200088E080930504C0DFFF91EF91BF91AF910C
:100130009F918F917F916F915F914F913F912F91FF
:100140000F900FBE0F901F901895982F987F983F93
:1001500059F387FF24C0982F907F903F29F390E0B8
:1001600024E0969587952A95E1F7877099278093E3
:100170000C3F90930D3F80910C3F90910D3F049761
:1001800041F020910C3F30910D3F81E02530310549
:1001900009F480E080930B3F10920A3FC5CFE091B5
:1001A0000A3F91E09E0F90930A3FF0E0E85FF04C29
:1001B000808390910B3F80910A3F892380930A3F6F
:1001C00080910A3F8111B0CF80910C3F90910D3FFB
:1001D000019731F48091093F30E020E0882321F03D
:1001E00020910C3F30910D3F8091083F4091013F9D
:1001F00021153105D1F12130310541F59091073FAD
:10020000992339F09091063F98138093063F1092FE
:10021000073F9091063F8917C8F02091063F90E074
:1002200030E0295F3F4F2817390784F02091063FBF
:10023000821B910921E030E0B90102C0660F771FEF
:100240008A95E2F7CB01842B8093013F8091013F97
:10025000481719F080E09FE309DF8091013F811189
:1002600022C088E0809306045FCF9091063F8917F3
:1002700068F32091063F90E030E0295F3F4F281758
:10028000390724F32091063F821B910921E030E0D9
:10029000B90102C0660F771F8A95E2F7CB018095FE
:1002A00090958423D1CF88E0809305043DCF1F92A1
:1002B0000F920FB60F9211248F939F938091080491
:1002C00086FD1AC01092043F1092053F1092033F22
:1002D0008FE08093000A1092200A1092210A88E091
:1002E000809305048FEF809309049F918F910F9065
:1002F0000FBE0F901F9018958091033F811107C08A
:1003000081E090E08093043F9093053FEBCF82E043
:1003100090E0F8CF1F920F920FB60F9211248F9397
:1003200081E080930B0A1092000A8093033F809132
:10033000073F882331F01092073F8091023F80935E
:10034000063F88E0809306048F910F900FBE0F90B8
:100350001F901895CF93DF9300D0CDB7DEB71982E9
:100360001A82F89488ED91E084BF9093610090E048
:1003700080E053D08093023F8091023F87FF03C00B
:100380008CE38093023F8091023F8093063F10925E
:10039000000A8FE08093050A80E19AE78093260A9D
:1003A0009093270A11E010930A0A7EDE82E0809380
:1003B000010484E080930104109213089CE0909360
:1003C0001008809316081093130810931508CE0197
:1003D00001964CDE88E08093010480E4809302045F
:1003E0001093160478948091043F9091053F8130DA
:1003F000910561F00297B9F76091063F90E080E0C7
:1004000014D08091063F8093023F02C01093073FB3
:100410001092043F1092053FE6CF03D080819927C8
:100420000895FC01E050FC4E0895262F0E94110211
:100430000080021619F00E94210201970197089589
:10044000262FAF93BF93E0E0F0E1328131FDFDCF85
:10045000DC01A050BC4E2C932DE924BF23E0208367
:0C0460000196BF91AF910895F894FFCF72
:02046C00090085
:00000001FF
