:1000000019C033C032C0ADC030C02FC02EC02DC00B
:10001000DBC02BC02AC029C028C027C026C025C0ED
:1000200024C023C022C021C020C01FC055C01DC095
:100030001CC01BC011241FBECFEFCDBFDFE3DEBF4E
:100040001FE3A0E0BFE3EEEBF4E002C005900D92E9
:10005000A230B107D9F72FE3A2E0BFE301C01D92A0
:10006000A235B207E1F7D0D028C2CACF2FB7F89493
:1000700030E4309317083091150836FFFCCF32E09A
:1000800030931408FC013081309318083091150822
:1000900036FFFCCFFC018181809318088091150800
:1000A00086FFFCCF83E0809314082FBF089590E073
:1000B00080E02FEFFC01EE0FFF1FEE0FFF1FE05F50
:1000C000F04C1082118222831382019688309105B0
:1000D00089F720930F3F08951F920F920FB60F924A
:1000E00011242F933F934F935F936F937F938F933D
:1000F0009F93AF93BF93EF93FF938091010820915B
:10010000000882FF15C0D3DF88E080930504FF91CB
:10011000EF91BF91AF919F918F917F916F915F917F
:100120004F913F912F910F900FBE0F901F901895F8
:100130008091513F3091503F90E001963817190659
:1001400031F3E091513F81E08E0F8093513FF0E019
:10015000E05DF04C20838091513F8F718093513F3F
:10016000D6CF1F920F920FB60F9211248F939F93A9
:100170008091080486FD1AC010920D3F10920E3F28
:1001800010920C3F8FE08093000A1092200A109288
:10019000210A88E0809305048FEF809309049F91E2
:1001A0008F910F900FBE0F901F90189580910C3F6C
:1001B000811107C081E090E080930D3F90930E3F46
:1001C000EBCF82E090E0F8CF1F920F920FB60F9224
:1001D00011248F9381E080930B0A1092000A809380
:1001E0000C3F80910B3F882331F010920B3F8091A0
:1001F0000A3F8093093F88E0809306048F910F9017
:100200000FBE0F901F901895CF93DF9300D0CDB7FE
:10021000DEB719821A82F89488ED91E084BF90933A
:10022000610090E080E022D180930A3F80910A3FF4
:1002300087FF03C08CE380930A3F80910A3F80933D
:10024000093F1092000A8FE08093050A80E19AE747
:100250008093260A9093270A11E010930A0A27DF59
:100260001092010280911704877F8093170480E029
:1002700094E0809308089093090880E8809305082B
:100280008093060883E0809307081092503F1092F5
:10029000513F82E08093010484E080930104109236
:1002A00013089CE09093100880931608109313088D
:1002B00010931508CE010196D9DE88E080930104E1
:1002C00080E48093020410931604789488E0F82E5A
:1002D00001E010E0EE24E3949091503F8091513F73
:1002E0009817D9F0E091503F81E08E0F8093503FF6
:1002F000F0E0E05DF04C90818091503F8F718093F1
:10030000503F892F887F883F41F097FF2BC0292FCE
:10031000207F203FB1F4E092083F80910D3F909103
:100320000E3F8130910509F49AC00297A9F66091B9
:10033000093F90E080E0A2D08091093F80930A3F7E
:1003400090C01092083F30E02093063F3093073F63
:10035000907E81E0903C09F480E08093053F10920C
:10036000043FDBCF8091083F8111D7CF8091043FBC
:10037000E82FF0E0EE5FF04C90838F5F9091053FA7
:1003800089238093043F8111C8CF2091063F30918B
:10039000073F2039310531F48091033F811102C0BC
:1003A00020E830E08091023F4091013F2038310544
:1003B000B9F12039310531F590910B3F992339F08E
:1003C0009091093F98138093093F10920B3F9091B1
:1003D000093F8917B8F02091093F90E030E0295F8C
:1003E0003F4F2817390774F02091093F821B91096C
:1003F000980102C0220F331F8A95E2F7C901842BAE
:100400008093013F8091013F481719F080E09FE3FE
:100410002DDE8091013F81111FC0F09206047DCF37
:100420009091093F891770F32091093F90E030E0E7
:10043000295F3F4F281739072CF32091093F821B72
:100440009109980102C0220F331F8A95E2F7C90172
:10045000809590958423D4CFF09205045ECFE092EE
:100460000B3F10920D3F10920E3F36CF03D080818C
:1004700099270895FC01E050FC4E0895262F0E9414
:100480003A020080021619F00E944A020197019771
:100490000895262FAF93BF93E0E0F0E1328131FD64
:1004A000FDCFDC01A050BC4E2C932DE924BF23E0EE
:0E04B00020830196BF91AF910895F894FFCF7D
:0204BE00090033
:00000001FF
