:100000000C943E000C945B000C945B000C945B0021
:100010000C945B000C945B000C94D0000C945B007F
:100020000C945B000C945B000C945B000C945B00E4
:100030000C945B000C945B000C945B000C945B00D4
:100040000C945B000C945B000C945B000C945B00C4
:100050000C945B000C945B000C945B000C945B00B4
:100060000C945B000C945B000C945B000C94EA0015
:100070000C945B000C945B000C945B0011241FBE7D
:10008000CFEFCDBFDFE3DEBF18E3A0E0B8E3E6EFDC
:10009000F6E002C005900D92A230B107D9F728E32F
:1000A000A2E0B8E301C01D92A532B207E1F70E94B9
:1000B0001E020C9479030C94000095E0899FF001D6
:1000C0001124E65FF74C84E090E02191261711F0AF
:1000D000992329F09081DF0111979C9391E0815041
:1000E000A1F70895982F4AE058E380E030E020E03F
:1000F000FA01E20FF31F6081691759F02F5F3F4F3C
:1001000024303105A9F78F5F4B5F5F4F853071F762
:100110008FEF0895823019F140F4882379F081300F
:10012000A1F080E1809325040CC0833029F1843054
:10013000C1F780E38093260480EC28C080E180939F
:10014000260480E28093250406C080E18093250484
:1001500080E28093260480E88093050409C080E152
:100160008093250480E28093250480E88093060430
:1001700080E480930504089580E18093250480E263
:100180008093250480E88093050480E4809306042E
:1001900008959091040895FFFCCF8093020808957C
:1001A0001F920F920FB60F9211248F939F938091FD
:1001B00023389091243801968093233890932438E3
:1001C00081E0809343019F918F910F900FBE0F901C
:1001D0001F9018951F920F920FB60F921124EF9255
:1001E000FF920F931F932F933F934F935F936F93C0
:1001F0007F938F939F93AF93BF93CF93DF93EF93AF
:10020000FF9380910108D091000898E19093050434
:1002100082FF3FC084E00E948A008AE0E82E88E3E3
:10022000F82EC0E010E000E0F701E00FF11FD081F0
:10023000DF3F69F080E80E94C9008D2F0E94C9004D
:1002400080E00E94C9006D2F8C2F0E945D000F5F1F
:100250001F4F0430110541F7CF5F85E0E80EF11C18
:10026000C53001F7FF91EF91DF91CF91BF91AF9131
:100270009F918F917F916F915F914F913F912F91BE
:100280001F910F91FF90EF900F900FBE0F901F9056
:100290001895D7FF16C08D2F807F803F21F0809367
:1002A00009381092083884E00E948A008D2F0E943D
:1002B000C900809108388111D5CF88E18093060468
:1002C000D1CF80910938982F9F7E903811F0803AD5
:1002D00069F7C0910838EC2FF0E0EA5FF74CD08363
:1002E000803909F091C000910638802F0E94720079
:1002F000182FC11157C08F3F09F054C080910438A6
:1003000090910538892B09F45FC0509100385F5FE8
:1003100030E020E045E090E06091043870910538CD
:10032000852F6230710549F060910438709105386D
:10033000892F6330710511F4802F890F8370682F26
:1003400070E0469FF001479FF00D1124E65FF74CE7
:10035000E20FF31FE081EF3F49F09F5F9430E1F639
:100360002F5F3F4F24303105B1F61CC0849FA001A0
:10037000112430E020E0FA01E20FF31FE65FF74CB2
:1003800090819F3FD9F495E0969FA001979F500DD3
:100390001124465F574C240F351FF90100838093C9
:1003A0000038182F812F0E948A00C130C9F5D11161
:1003B00037C0602F812F0E945D0032C02F5F3F4FFA
:1003C00024303105C1F6EBCFAEE1B8E382E298E329
:1003D000FD0121912F3FA1F490E080E02D912F3F6E
:1003E00051F4865F974CFC01048B84E080930038C5
:1003F00010910038D7CF01968430910579F7F5CF69
:100400008E179F0731F7F4CF803879F400910638C2
:10041000802F0E947200182F0E948A00C13049F27A
:10042000CF5FC170C093083841CF803AC9F780913F
:1004300006380E9472000E948A00F2CFCF93DF93A9
:1004400000D000D0CDB7DEB7F89481E098ED94BF2E
:1004500080936100109200048093010280E094E098
:10046000809308089093090880E88093050880EC41
:100470008093060893E09093070890E390932104FB
:10048000909326049AED90930104809306041092B1
:100490004701809141018111FCCF81E090E0809380
:1004A0004A0190934B018091420181608093420107
:1004B00089E98093400142E050E070E060E0CE01C5
:1004C00003960E942F038B819C818F3F910511F42D
:1004D0001B821C828B819C81809304389093053809
:1004E0001092023810920338EAE0F8E323E238E38E
:1004F0008FEF8083818382838383848335962E1755
:100500003F07B9F7789480E1782E95E0E92EF12C39
:1005100026E0C22ED12C01E010E033E0832E912C96
:1005200044E0A42EB12C809108048072E09102383E
:10053000F0910338E730F105B0F7EF55FD4F0C941B
:100540007303A802B302C402E00217032C030A03D8
:100550008111E9CF009302381093033810922338A9
:1005600010922438E0CF81115DC0809123389091A2
:1005700024380B97C0F27092050482E090E08093DB
:10058000023890930338CFCF882369F080912338C5
:10059000909124388135910508F4C5CF80920238B6
:1005A00090920338C0CF8091233890912438813ABB
:1005B0009F4008F4B8CFA0920238B0920338B3CF6E
:1005C000709206048091043890910538813091052D
:1005D000A9F038F00297C9F010920438109205384B
:1005E00004C000930438109305381092023810921A
:1005F0000338C0920238D092033895CF82E090E061
:100600008093043890930538F0CF8092043890920C
:100610000538EBCF8091233890912438813A9F4060
:1006200008F481CF10920238109203387CCF709278
:100630000604809104389091053889839A8342E0BA
:1006400050E070E060E0CE0101960E943303E0923A
:100650000238F092033867CF8111E4CF64CF605045
:100660007C4E0C946A03DC01A40FB51F415050402E
:1006700048F0CB01840F951F2E910E9444034150F6
:100680005040D0F70895262F0E946603008002167E
:1006900019F00E944F03019701970895262FAF93F9
:1006A000BF93E0E0F0E1328131FDFDCFDC01A050ED
:1006B000BC4E2C932DE924BF23E020830196BF91EB
:1006C000AF91089503D0808199270895FC01E050EF
:1006D000FC4E0895FB01DC0102C001900D924150D7
:1006E0005040D8F70895EE0FFF1F0590F491E02DCC
:0606F0000994F894FFCF0D
:0206F600FF0003
:00000001FF
