:1000000019C033C032C012C130C02FC02EC02DC0A5
:1000100023C12BC02AC029C028C073C026C025C058
:1000200024C024C022C021C020C01FC01EC01DC0CB
:100030001CC01BC011241FBECFEFCDBFDFE3DEBF4E
:100040001FE3A0E0BFE3E8E8FBE002C005900D92EB
:10005000A430B107D9F72FE3A4E0BFE301C01D929C
:10006000AF30B207E1F72DD18DC1CACF1F920F92E9
:100070000FB60F9211242F933F938F939F93EF937B
:10008000FF9331E030930B06E0911006F0911106DA
:100090002091023F223049F1233071F1213099F44F
:1000A00086E0F695E7958A95E1F7EE0FFF1FE85792
:1000B000FC4780819181019680930D3F90930E3F84
:1000C00082E08093023F8091023F8093060681E0A8
:1000D00080930806FF91EF919F918F913F912F910F
:1000E0000F900FBE0F901F9018958F2F82958F70D5
:1000F00080930C3F83E0E5CFF0930B3F3093023FBA
:10010000E2CF1F920F920FB60F9211242F933F93BD
:100110004F935F936F938F939F9380910A3F8823B0
:1001200009F46DC04091083F5091093F60910C3F28
:100130002091083F3091093F220F331F2093083F41
:100140003093093F81E090E002C0880F991F6A95C3
:10015000E2F784239523892B49F08091083F909101
:10016000093F81608093083F9093093F80910B3F46
:10017000813198F18091073F982F91744091003F11
:100180005091013F9A01220F331F2093003F30937B
:10019000013F452F441F4427441F880F842B809321
:1001A000073F913011F0903429F421602093003FF3
:1001B0003093013F90910B3F8091003F891720F0D1
:1001C00080910B3F803F48F08091083F80FF26C020
:1001D0008091083F8E7F8093083F10920A3F809164
:1001E000083F80FF1FC081E08093250484E0809356
:1001F0002504809326048091083F8093810681E046
:100200008093460A9F918F916F915F914F913F919B
:100210002F910F900FBE0F901F9018958091083F5F
:100220008160D9CF81E080932604E0CF1F920F92A6
:100230000FB60F9211248F938091090487FF03C09A
:1002400081E080930A3F8FEF809309048F910F9094
:100250000FBE0F901F9018951F920F920FB60F921E
:1002600011242F933F938F939F932091053F3091BB
:10027000063F80910D3F90910E3F820F931F809318
:10028000053F9093063F8217930758F48091043FEF
:100290008F5F8093043F8C5F83FF0FC082E0809369
:1002A00025048FEF80930B0A9F918F913F912F919F
:1002B0000F900FBE0F901F90189582E08093260438
:1002C000F0CFF89481E098ED94BF8093610090E8BE
:1002D000909302043FE03093210428E02093260409
:1002E0009091A00093609093A0009091A1009160E4
:1002F0009093A10090911604987F9093160490918A
:10030000160494609093160490911604977F90932E
:10031000160491EC909380061092000A3093050A1F
:1003200040E951E04093260A5093270A80930A0A35
:100330008093000A40E456E040934C0A50934D0AE3
:100340001092410A8093450A8093400A9AE0909364
:1003500017041092000696E09093010693E590939F
:10036000020690E1909303061092050680930A0618
:100370008093060680930006809308062093250448
:080380007894FFCFF894FFCF41
:10038800030003000300030003000300030003004D
:10039800030003000300030003000300030003003D
:1003A800030003000300030003000300030003002D
:1003B8000300040004000400040004000400040016
:1003C8000400040004000400040004000400040005
:1003D80004000400040004000400040004000400F5
:1003E80004000400040004000400050005000500E2
:1003F80005000500050005000500050005000500CD
:1004080005000500050005000500050005000500BC
:1004180005000500050006000600060006000600A7
:100428000600060006000600060006000600060094
:100438000600060006000600060006000700070082
:10044800070007000700070007000700070007006C
:10045800070007000700070007000700080008005A
:100468000800080008000800080008000800080044
:100478000800080008000800080009000900090031
:10048800090009000900090009000900090009001C
:10049800090009000A000A000A000A000A000A0006
:1004A8000A000A000A000A000A000A000B000B00F2
:1004B8000B000B000B000B000B000B000B000B00DC
:1004C8000C000C000C000C000C000C000C000C00C4
:1004D8000C000C000D000D000D000D000D000D00AE
:1004E8000D000D000D000E000E000E000E000E0097
:1004F8000E000E000E000E000F000F000F000F0080
:100508000F000F000F000F00100010001000100067
:10051800100010001000110011001100110011004E
:100528001100110012001200120012001200120035
:10053800120013001300130013001300130014001B
:100548001400140014001400140015001500150000
:1005580015001500150016001600160016001600E6
:1005680017001700170017001700170018001800C9
:1005780018001800180019001900190019001A00AD
:100588001A001A001A001A001B001B001B001B008F
:100598001B001C001C001C001C001D001D001D0071
:1005A8001D001E001E001E001E001F001F001F0051
:1005B8001F00200020002000200021002100210031
:1005C8002100220022002200230023002300230010
:1005D80024002400240025002500250026002600EC
:1005E80026002700270027002700280028002800C9
:1005F8002900290029002A002A002B002B002B00A3
:100608002C002C002C002D002D002D002E002E007B
:100618002F002F002F003000300030003100310053
:100628003200320033003300330034003400350028
:1006380035003600360036003700370038003800FD
:10064800390039003A003A003B003B003C003C00CE
:100658003D003D003E003E003F003F00400040009E
:10066800410041004200420043004300440044006E
:10067800450046004600470047004800480049003A
:100688004A004A004B004B004C004D004D004E0004
:100698004F004F00500051005100520053005300CA
:1006A800540055005500560057005700580059008F
:1006B8005A005A005B005C005D005D005E005F0050
:1006C800600060006100620063006400640065000F
:1006D800660067006800690069006A006B006C00CA
:1006E8006D006E006F007000710072007200730080
:1006F8007400750076007700780079007A007B0036
:100708007C007D007E007F008000810082008300E5
:10071800850086008700880089008A008B008C008D
:100728008E008F0090009100920093009500960033
:10073800970098009A009B009C009D009F00A000D5
:10074800A100A300A400A500A700A800A900AB0071
:10075800AC00AD00AF00B000B200B300B500B60009
:10076800B800B900BB00BC00BE00BF00C100C20099
:10077800C400C600C700C900CB00CC00CE00D00022
:10078800D100D300D500D600D800DA00DC00DD00A7
:10079800DF00E100E300E500E700E900EA00EC0023
:1007A800EE00F000F200F400F600F800FA00FC0099
:1007B800FE00000103010501070109010B010D01FC
:1007C8000F0112011401160118011B011D011F015F
:1007D80022012401260129012B012E0130013301B8
:1007E800350138013A013D013F0142014501470108
:1007F8004A014D014F015201550158015B015D014C
:1008080060016301660169016C016F017201750184
:1008180078017B017E018101840187018B018E01B2
:100828009101940198019B019E01A201A501A901D2
:10083800AC01B001B301B701BA01BE01C201C501E3
:10084800C901CD01D001D401D801DC01E001E401E6
:10085800E801EC01F001F401F801FC0100020402D6
:1008680008020D02110215021A021E0222022702B4
:100878002B023002340239023E02420247024C0285
:10088800510256025A025F02640269026E02730242
:1008980078027E02830288028D02930298029E02E9
:1008A800A302A802AE02B402B902BF02C502CB027B
:1008B800D002D602DC02E202E802EE02F402FB02F7
:1008C800010307030D0314031A03210327032E034F
:1008D80034033B03420349034F0356035D03640398
:1008E8006C0373037A0381038803900397039F03C0
:1008F800A603AE03B603BD03C503CD03D503DD03CD
:10090800E503ED03F503FE0306040E0417041F04B4
:1009180028043104390442044B0454045D04660479
:100928007004790482048C0495049F04A804B2041A
:10093800BC04C604D004DA04E404EE04F804030595
:100948000D05180522052D05380543054E055905E1
:1009580064056F057B05860592059D05A905B50506
:10096800C105CD05D905E505F105FE050A061706F9
:10097800240630063D064A065806650672068006B5
:100988008D069B06A906B706C506D306E106EF063F
:10099800FE060C071B072A0739074807570767078A
:1009A800760786079507A507B507C507D507E6079C
:1009B800F6070708180829083A084B085C086E0863
:1009C8007F089108A308B508C708D908EC08FF08EC
:1009D8001109240937094B095E0972098509990922
:1009E800AD09C109D609EA09FF09140A290A3E0A0C
:1009F800540A690A7F0A950AAB0AC10AD80AEE0A9C
:100A0800050B1C0B330B4B0B620B7A0B920BAA0BCF
:100A1800C30BDB0BF40B0D0C260C3F0C590C730CA1
:100A28008D0CA70CC10CDC0CF70C120D2D0D490D0B
:100A3800640D800D9D0DB90DD60DF30D100E2D0E04
:100A48004B0E680E870EA50EC30EE20E010F210F86
:100A5800400F600F800FA10FC10FE20F0310251088
:100A6800461068108B10AD10D010F31017113A1102
:100A78005E118311A711CC11F11117123C126212E9
:100A88008912B012D712FE1226134E1376139E1334
:100A9800C713F1131A1444146F149914C414F014DE
:100AA8001B1547157415A115CE15FB1529165816D3
:100AB8008616B516E516141745177517A617D8170D
:100AC80009183C186E18A118D51808193D1971197C
:100AD800A719DC19121A491A7F1AB71AEF1A271B15
:100AE800601B991BD21B0C1C471C821CBE1CFA1CC9
:100AF800361D731DB11DEF1D2D1E6C1EAC1EEC1E88
:100B08002C1F6D1FAF1FF11F34207720BB20FF2043
:100B180044218921CF2116225D22A522ED223623E8
:100B28008023CA2315246024AC24F8244625932561
:100B3800E22531268126D12622277427C62719289F
:100B48006D28C22817296C29C3291A2A722ACB2A88
:100B5800242B7E2BD92B342C912CEE2C4C2DAA2D0A
:100B68000A2E6A2ECB2E2C2F8F2FF22F5630BB3009
:100B780021318731EF315732C0322A33953301346E
:040B88001700010051
:00000001FF
