:100000000EC226C232C324C223C222C221C220C2CF
:100010001FC21EC295C21CC21BC21AC219C2000056
:1000200000000000000000000000000000000000D0
:1000300000000000000000000000000000000000C0
:1000400000000000000000000000000000000000B0
:1000500000000000000000000000000000000000A0
:100060000000000000000000000000000000000090
:100070000000000000000000000000000000000080
:100080000000000000000000000000000000000070
:100090000000000000000000000000000000000060
:1000A0000000000000000000000000000000000050
:1000B0000000000000000000000000000000000040
:1000C0000000000000000000000000000000000030
:1000D0000000000000000000000000000000000020
:1000E0000000000000000000000000000000000010
:1000F0000000000000000000000000000000000000
:1001000000000000000000000000010001000100EC
:1001100001000100010001000100010001000100D7
:1001200001000100010001000100010001000100C7
:1001300001000100010001000100010001000100B7
:1001400001000100010002000200020002000200A2
:10015000020002000200020002000200020002008F
:10016000020002000200020002000300030003007C
:100170000300030003000300030003000300030067
:100180000300040004000400040004000400040050
:10019000040004000400050005000500050005003A
:1001A0000500050005000600060006000600060022
:1001B0000600060007000700070007000700080008
:1001C00008000800080008000800090009000900EC
:1001D00009000A000A000A000A000B000B000B00CD
:1001E0000B000C000C000C000D000D000D000D00AC
:1001F0000E000E000E000F000F0010001000100087
:10020000110011001100120012001300130014005D
:10021000140015001500160016001700170018002E
:10022000180019001A001A001B001B001C001D00FA
:100230001D001E001F0020002000210022002300BE
:1002400023002400250026002700280029002A007A
:100250002B002C002D002E002F003000310032002A
:10026000340035003600370039003A003B003D00CD
:100270003E00400041004300440046004700490062
:100280004B004D004E0050005200540056005800E4
:100290005A005C005E0061006300650068006A004F
:1002A0006D006F007200740077007A007D0080009E
:1002B0008300860089008C008F00930096009A00CE
:1002C0009D00A100A500A900AD00B100B500B900D6
:1002D000BD00C200C600CB00D000D500DA00DF00B0
:1002E000E400E900EF00F400FA00000106010C014F
:1002F000120119011F0126012D0134013B014201A8
:100300004A0152015A0162016A0172017B018401B2
:100310008D019601A001AA01B401BE01C801D3015B
:10032000DE01E901F40100020C021802250232028A
:100330003F024C025A026802770285029402A4022C
:10034000B402C402D402E502F70208031B032D0322
:100350004003540368037C039103A603BC03D20348
:10036000E9030104190431044A0464047E04990475
:10037000B504D104EE040B05290548056805880578
:10038000A905CB05EE05110636065B068106A80613
:10039000D006F90622074D077907A507D3070208FB
:1003A000320863089508C908FD0833096A09A209DB
:1003B000DC09170A530A910AD00A110B530B970B49
:1003C000DD0B230C6C0CB60C030D500DA00DF20DC3
:1003D000450E9A0EF20E4B0FA70F05106410C610B3
:1003E0002B119211FB116612D4124513B8132E145F
:1003F000A7142315A1152316A7162F17BA174718E8
:10040000D9186D19061AA11A411BE41B8B1C351D46
:10041000E41D971E4E1F0A20C9208D21562211244B
:100420001FBECFEDCDBF10E0A0E6B0E0E6E4F7E000
:1004300002C005900D92A236B107D9F720E0A2E6DE
:10044000B0E001C01D92AB36B207E1F71FD179C110
:10045000D7CD87B5826087BD07B400FEFDCF87B5D5
:10046000846087BD10BE1FBC82E08CBD91E790BF49
:100470009FEF9DBD90E89EBD96E097BB13BE12BE58
:100480008ABD83BF87EC89BD89B7806189BF80E25F
:100490008BBF81E085BB88E384BB86E886B9369A4A
:1004A0003699FECF84B195B10DD07894089590918E
:1004B0006000892F81708195887B9695892780932C
:1004C000600008959C012150310940916500892BFD
:1004D00081F080916000982F91709195987B86951E
:1004E0008927480F21503109B0F78093600040936D
:1004F0006500411103C080EF80936500089521E0FD
:1005000030E002C0220F331F6A95E2F72823392317
:1005100041E050E0232B11F450E040E0880F991F98
:10052000842B952B08959C012170332702C0220F44
:10053000331F6A95E2F796958795822B932B089542
:100540001F920F920FB60F9211242F933F934F9348
:100550005F936F937F938F939F93AF93BF93EF932B
:10056000FF93809165008EBD2091630030916400FF
:100570008091690090916A00820F931F90936400AC
:10058000809363008217930720F488B394E089274F
:1005900088BB80916200882359F1409168002091C6
:1005A00065003091660081E090E002C0880F991FDD
:1005B0004A95E2F782239323E1E0F0E0892B91F161
:1005C000220F331FE22BF32BF0936600E0936500BC
:1005D00080916000282F21702195287B86952827FF
:1005E0002093600080916700813198F4109262003E
:1005F000FF91EF91BF91AF919F918F917F916F91FB
:100600005F914F913F912F910F900FBE0F901F90D0
:10061000189580916700803F40F021E02E272093BD
:100620006500E4CFF0E0E0E0CBCF4091670030E040
:10063000C901880F991F880F991F880F991F821B66
:10064000930B880F991F82959295907F9827807FB2
:100650009827821B930B6FEF70E05FD0605F7F4F36
:100660004617170619F210F2D8CF1F920F920FB645
:100670000F9211248F93B09B03C081E0809362009E
:100680008F910F900FBE0F901F901895E2DE20E023
:1006900041E050E03699FECF94B185B18927982783
:1006A0008927223039F0233059F1222359F027B914
:1006B000369AF0CF969587959695879580936700A3
:1006C00023E0F5CFEEE1F0E0811522E0920728F07B
:1006D000FC01EE0FFF1FE25EF34085919491909331
:1006E0006A00809369008091690090916A0022E01D
:1006F000892BE9F650936A004093690022E0D7CF36
:100700000024880F991F001C880F991F001C892F37
:10071000902D8093680020E0CACFAA1BBB1B51E13B
:1007200007C0AA1FBB1FA617B70710F0A61BB70B61
:10073000881F991F5A95A9F780959095BC01CD0106
:060740000895F894FFCFBC
:0207460023008E
:00000001FF
