:100000000C943E000C945B000C945B000C945B0021
:100010000C945B000C945B000C945D000C945B00F2
:100020000C945B000C945B000C9477000C945B00C8
:100030000C945B000C945B000C945B000C945B00D4
:100040000C945B000C945B000C945B000C945B00C4
:100050000C945B000C945B000C945B000C945B00B4
:100060000C945B000C945B000C945B000C948F0070
:100070000C945B000C945B000C945B0011241FBE7D
:10008000CFEFCDBFDFE3DEBF18E3A0E0B8E3E0E1F0
:10009000F7E002C005900D92A230B107D9F728E32E
:1000A000A2E0B8E301C01D92AD31B207E1F70E94B2
:1000B000DD010C9486030C9400001F920F920FB682
:1000C0000F9211248F939F9380911B3890911C382D
:1000D000019680931B3890931C3881E080934301F4
:1000E0009F918F910F900FBE0F901F9018951F92A8
:1000F0000F920FB60F9211248F93EF93FF9380E22C
:1001000080934604E0E0FAE080E183871286FF9165
:10011000EF918F910F900FBE0F901F9018951F9227
:100120000F920FB60F9211242F933F934F935F932B
:100130006F937F938F939F93AF93BF93CF93EF93DF
:10014000FF93C09100088C2F887F883F09F0A7C0DB
:10015000CA3F09F487C020F4C83FA1F020E047C09F
:10016000CB3F09F498C0CC3FC9F788E080934604A0
:1001700080910738811103C080E280934604109279
:100180000738ECCF80910738882341F32091063857
:10019000222321F0215020930638E0CF88E080937D
:1001A000060480910C38811140C080E280934504A0
:1001B00080910438811135C08091200A9091210AE4
:1001C00096958795809300389093013880910038F8
:1001D000909101388093280A9093290A1092200A5E
:1001E0001092210A80E180930B0A80930A0A2093DF
:1001F00024048091040885FFFCCFC0930208FF917E
:10020000EF91CF91BF91AF919F918F917F916F911E
:100210005F914F913F912F910F900FBE0F901F90C4
:100220001895815080930438D1CF60910C3880911B
:10023000053890E070E06F5F7F4F0E945803809315
:10024000053880910538811109C080E2809345040A
:10025000809105388F5F80930538C9CF80E2809305
:100260004604F6CF1092200A1092210A1092053807
:1002700080910B388093063882E08093043888E0C0
:10028000809345048093050480E28093460481E0D6
:100290008093073863CF88E080934504F8CFC7FF89
:1002A0007AC010921A388C2F807F803F81F5C03F32
:1002B000B1F0C73F09F052CF80910D388B3061F417
:1002C000809116388A3289F08F37A1F0893221F473
:1002D0008091183880930C3810920D383FCFC0931E
:1002E0000E3881E080930D3839CF80911838809393
:1002F0000B38F2CF60910C3890E080E00E94300320
:1003000060910B3881E090E00E943003E5CF8038A7
:10031000B9F487E08093450410920D382C2F2F708C
:10032000809108389091093881309105D1F078F0AA
:100330008230910539F1039751F120911A3857CF46
:10034000803951F780910A3880934604E5CF84E0E4
:1003500080930A38283090F42C2F277081E090E0A9
:1003600007C031E030930A38283040F02850330B72
:1003700001C0880F2A95EAF7809501C08FEF80931E
:100380001A38DBCF85E080930A382695E7CF87E0DF
:1003900080930A38D2CF20911A38E0910D388FEF30
:1003A0008E0F8B3008F023CF81E08E0F80930D38B5
:1003B000F0E0E25FF74CC0831ACFCF93DF9300D019
:1003C00000D0CDB7DEB7F89488ED91E084BF90936C
:1003D000610090E080E00E94180380930C3881E077
:1003E00090E00E94180380930B3842E050E062E0F6
:1003F00070E0CE0103960E94140380910C388F3F69
:10040000D1F410920C3810920B381B821C82609130
:100410000C3890E080E00E94300360910B3881E05E
:1004200090E00E94300342E050E062E070E0CE01D4
:1004300003960E9420038B819C81809308389093BF
:1004400009388AE0809300048FEF809320048FE2C4
:100450008093410487E08093440481E0809301020B
:1004600080E094E0809308089093090880E88093E6
:10047000050880EC8093060883E0809307081092BB
:10048000000A8FE08093050A8FEF9FEF8093260A82
:100490009093270A80E898E18093280A9093290A8C
:1004A0008DE08093000A10924701809141018111F3
:1004B000FCCF81E090E080934A0190934B018091C2
:1004C000420181608093420189E9809340017894E0
:1004D00082E0782E95E0E92EF12C26E0C22ED12C78
:1004E00001E010E033E0832E912C44E0A42EB12CE7
:1004F000809148048071E0910238F0910338E73030
:10050000F105B0F7EA57FD4F0C946C038D02980289
:10051000A902C502FC021103EF028111E9CF009389
:1005200002381093033810921B3810921C38E0CF19
:1005300081115DC080911B3890911C380B97C0F2DF
:100540007092460482E090E08093023890930338E2
:10055000CFCF882369F080911B3890911C3881356A
:10056000910508F4C5CF8092023890920338C0CF2D
:1005700080911B3890911C38813A9F4008F4B8CF85
:10058000A0920238B0920338B3CF709245048091A4
:100590000838909109388130910581F050F082300F
:1005A000910599F00397B1F0C0920238D0920338C8
:1005B0009FCF0093083810930938F6CF82E090E07F
:1005C0008093083890930938EFCF80920838909242
:1005D0000938EACF1092083810920938E5CF809197
:1005E0001B3890911C38813A9F4008F481CF1092BB
:1005F0000238109203387CCF7092450480910838FD
:100600009091093889839A8342E050E070E060E07D
:10061000CE0101960E942003E0920238F092033846
:1006200067CF8111E4CF64CF60507C4E0C944F03B0
:1006300003D0808199270895FC01E050FC4E089575
:10064000DC01A40FB51F4150504048F0CB01840F8E
:10065000951F2E910E94310341505040D0F70895CC
:10066000262F0E941C030080021619F00E943C03F2
:10067000019701970895262FAF93BF93E0E0F0E133
:10068000328131FDFDCFDC01A050BC4E2C932DE911
:1006900024BF23E020830196BF91AF910895FB0111
:1006A000DC0102C001900D9241505040D8F70895EE
:1006B00097FB072E16F4009407D077FD09D00E940F
:1006C000720307FC05D03EF4909581959F4F0895E5
:1006D000709561957F4F0895EE0FFF1F0590F4917F
:1006E000E02D0994AA1BBB1B51E107C0AA1FBB1F29
:1006F000A617B70710F0A61BB70B881F991F5A95AE
:10070000A9F780959095BC01CD010895F894FFCF8D
:0207100080184F
:00000001FF
